:0300000002265F76
:0C265F00787FE4F6D8FD7581530226A6B2
:0A3FF600FFFFFFFFFFFFF75AA5AF22
:1033A3007274696D65722063616C6C206261636B1A
:1033B3000A0074657374207072696E74660A006122
:1033C3003731333920696E697469616C20666169CC
:0C33D3006C210A007265672025640A0066
:0511F4004202EE0000C4
:102ACB007BFF7A3379A3120AE1B2A6AFCD7E00EF7A
:102ADB007F00FEADCC7C00EF2DFFEE3CFE9002EEB6
:102AEB00EEF0A3EFF07B017A0279F0C003C002C0D5
:102AFB00019002EEE0FEA3E0FFEF24FAFDEE34FFBF
:102B0B00FC9002A5E4F0A37401F07BFF7A2A79CB49
:102B1B009002A7EBF0A3EAF0A3E9F07E027FEE9020
:102B2B0002AAEEF0A3EFF0D001D002D003121EA840
:012B3B002277
:1026EB0090035BE4F0A3E4F075865A1235FC1235C7
:1026FB00D31228761200167BFF7A3379B5120AE1D2
:10270B007F0A12321F1234C07F0A12321F7F217EC2
:10271B00807DED7C43122F8EEF60097BFF7A33793E
:10272B00C2120AE17F1812359E7F0A12321F7F00F8
:10273B0012326390035BEEF0A3EFF07BFF7A3379F9
:10274B00D790035BE0FEA3E0FF90022EEEF0A3EF29
:10275B00F0120AE11221327F0A12321F121B4C8037
:06276B00F3E47E007F0094
:012771002245
:10341B00900331EFF0900332ECF0A3EDF0C2A090EB
:10342B000331E0FFEF4400FF900331EFF0900331E5
:10343B00E0FF122F417F017E00123455900332E0E2
:0A344B00FEA3E0FF122E97D2A0228C
:05326300900334EFF0C0
:10326800900335E4F0A3E4F0C2A0900334E0FFEF4C
:103278004480FF900334EFF0900334E0FF122F41B5
:103288007F017E001234551229E4900335EEF0A335
:0C329800EFF0D2A0900335E0FEA3E0FFB1
:0132A4002207
:0D2DE900900337EFF0900338ECF0A3EDF00D
:102DF600900337E0FF7E007848A60608A6077848C5
:102E0600E6FE08E6FFEF7F00C454F0FE900219E0EC
:102E1600FCA3E0FDEE4CFEEF4DFF7848A60608A6A3
:102E2600077848E6FC08E6FD7F0712341B90033856
:0A2E3600E0FCA3E0FD7F0812341B4E
:012E4000226F
:0D2D8D0090033AEFF090033BECF0A3EDF063
:102D9A0090033AE0FF7E00784AA60608A607784A1A
:102DAA00E6FE08E6FFEF7807C333CE33CED8F9FF45
:102DBA00900219E0FCA3E0FDEE4CFEEF4DFF784ACD
:102DCA00A60608A607784AE6FC08E6FD7F0712343D
:0E2DDA001B90033BE0FCA3E0FD7F0912341BBD
:012DE80022C8
:052E4100900365EFF0B5
:102E4600900365E0FF7E00784CA60608A607784C3E
:102E5600E6FE08E6FFEF7F00C454F0FE900219E09C
:102E6600FCA3E0FDEE4CFEEF4DFF784CA60608A64F
:102E760007784CE6FC08E6FD7F0712341B7F081234
:102E86003263784CA60608A607784CE6FE08E6FFED
:012E96002219
:1024F000781F7600781FE6FFEFC394085024781FFA
:10250000E6FF75F002EFA4240BF582E5F03402F546
:1025100083E0FCA3E0FD781FE6FF12341B781F0662
:1025200080D2781F760A781FE6FFEFC394105024FC
:10253000781FE6FF75F002EFA4240BF582E5F03476
:1025400002F583E0FCA3E0FD781FE6FF12341B7860
:102550001F0680D2781F7600781FE6FFEFC3941025
:102560005024781FE6FF75F002EFA424E1F582E520
:10257000F03401F583E0FCA3E0FD781FE6FF122DA7
:10258000E9781F0680D2781F7600781FE6FFEFC338
:1025900094055024781FE6FF75F002EFA42401F59E
:1025A00082E5F03402F583E0FCA3E0FD781FE6FF4E
:0825B000122D8D781F0680D268
:0125B8002200
:101D36007F00123263781DA60608A607900229E0E6
:101D4600FEA3E0FFEE4408FCEF4402FD7F0F1234D1
:101D56001B7F0F123263781DA60608A607781DE6BC
:101D6600FE08E6FFEE5408FEEF5402FFEF4E70E168
:101D76007F0E123263781DA60608A607781DE6FEBA
:101D860008E6FFEEC4F854F0C868FEEFC4540F48E6
:101D9600FFEF5401FF781AA607781AE6FFEF6003F3
:101DA6007F04227F0A122E41781DA60608A6077810
:101DB6001DE6FE08E6FFEEC4F854F0C868FEEFC460
:101DC600540F48FFEF5401FF781CA607781CE6FF66
:101DD600EF60037F04227D007C4C7F0C12341B7D58
:101DE600007CF87F02122DE99001E1E0FEA3E0FFFE
:101DF600EE44E0FCAD077F00122DE9900229E0FEDB
:101E0600A3E0FFEE4410FCAD077F0F12341B7F0FDB
:101E1600123263781DA60608A607781DE6FE08E6B8
:101E2600FFEE20E4E9900223E0FCA3E0FD7F0C1224
:101E3600341B9001E5E0FCA3E0FD7F02122DE99042
:101E460001E1E0FCA3E0FD7F00122DE9900229E00C
:101E5600FEA3E0FFAC06EF4404FD7F0F12341B7FA8
:101E66000F123263781DA60608A607781DE6FE083F
:101E7600E6FFEF20E2E97F0E123263781DA6060820
:101E8600A607781DE6FE08E6FFEEFF7E00EF54018A
:101E9600FF781BA607781BE6FFEF60037F04227F0F
:011EA600003B
:011EA7002218
:061FF200900309120761D3
:101FF8007BCD7ACC794C7841900309E0FCA3E0FDD5
:10200800A3E0FEA3E0FF12025F780D120755780DDA
:1020180012073C1203B37811A6077811E6FCE41204
:10202800037FC004C005C006C007780D12073CD066
:1020380003D002D001D00012006178121207557F38
:10204800007E007D807C47781212074812015612E4
:1020580003B37816A60608A6077F1412359E9002C9
:1020680011E0FEA3E0FFEE547FFE7818A60608A64E
:10207800077818E6FC08E6FD7F0312341B90021768
:10208800E0FEA3E0FFEE540FFE7818A60608A607A8
:102098007818E6FC08E6FD7F0612341B7F007E00F8
:1020A8007D577C44900309E0F8A3E0F9A3E0FAA384
:1020B800E0FB1202FC5015900213E0FEA3E0FFEED5
:1020C80054EFFE7818A60608A6078013900213E0BE
:1020D800FEA3E0FFEE4410FE7818A60608A60778CF
:1020E80018E6FC08E6FD7F0412341B90020DE0FEA2
:1020F800A3E0FF7F007818A60608A6077811E6FF78
:102108007E007818E6FC08E6FDEE4CFCEF4DFD7FFE
:102118000112341B7816E6FC08E6FD7F0212341B18
:092128007D007C007F02122D8D68
:01213100228B
:1025B900783876FF783B76FF0876FF9001E5E0FEF4
:1025C900A3E0FFAC06EF4410FD7F02122DE9900154
:1025D900FFE0FEA3E0FFAC06EF4401FD7F0F122DE3
:1025E900E97F0F122E417E00EF5401FF7839A606CC
:1025F90008A6077839E6FE08E6FFEF4E6010783B3B
:1026090008E616188606700116FFEF4E70D37F0F85
:10261900122E41EE5403FEEEC313FEEF13FF783979
:10262900A60608A6077839E6FE08E6FFD3EF94BAAE
:10263900EE940040137839E6FE08E6FFC3EF94C62E
:10264900EE940050037F05227838E616FFEF600309
:052659000225D77F04FB
:01265E002259
:10359E00900366EFF0C2A0900366E0FF122F41D2B7
:0235AE00A02259
:102F8E0090030D120761D2A0C2977F7012359E7FFB
:102F9E000A12321F1224F07F0A7E001228F47F8C50
:102FAE007EC57D757C34122C0E7F017E001228F4B6
:102FBE0090030DE0FCA3E0FDA3E0FEA3E0FF121FD3
:0C2FCE00F27F0A7E001228F4121D362249
:102C0E00900311120761C2A07F20122F4190031171
:102C1E00E0FCA3E0FDA3E0FEA3E0FF781812072975
:102C2E00122F41900311E0FCA3E0FDA3E0FEA3E010
:102C3E00FF7810120729122F41900311E0FCA3E038
:102C4E00FDA3E0FEA3E0FF7808120729122F4190A2
:102C5E000311E0FCA3E0FDA3E0FEA3E0FF122F4171
:052C6E00D2A07F00224E
:102FDA00783F7600087600783FE6FE08E6FF900222
:102FEA0019E0FCA3E0FDEC54F7FCED54CFFDEE4CE8
:102FFA00FEEF4DFF783FA60608A607783FE6FC08D5
:10300A00E6FD7F0712341B7F09123263783DA6065C
:0A301A0008A607783DE6FE08E6FF71
:013024002289
:10225F00900367EFF07F1412359E7F1412321F9098
:10226F000219E0FEA3E0FFAC06EF54FEFD7F07125C
:10227F00341B900367E0FFEF120871229D0222BA10
:10228F000A22D73222F464232E96000023137D21D5
:10229F007C667F0012341B7DD47C187F0A12341B9E
:1022AF007D057CF57F00122DE980747D217C127FE6
:1022BF000012341B7DD47C187F0A12341B7D067CE0
:1022CF00F77F00122DE980577D237C007F001234A9
:1022DF001B7DD07C187F0A12341B7D067CF67F0095
:1022EF00122DE9803A7D217C007F0012341B7DD4B2
:1022FF007C187F0A12341B7D067CF77F00122DE9B4
:10230F00801D801B900219E0FEA3E0FFAC06EF4496
:10231F0001FD7F0712341B7F1412321F7F012290A1
:10232F000219E0FEA3E0FFAC06EF4401FD7F0712A8
:0A233F00341B7F1412321F7F0022AE
:052CD200900368EFF023
:102CD7007F1412359E9001FBE0FEA3E0FF7F007892
:102CE7004EA60608A607900368E0FF7E00EF24FFC4
:102CF700FFEE34FFFE784EE6FC08E6FDEE4CFCEFF7
:102D07004DFD7F0D122DE99001F5E0FEA3E0FFEEEA
:102D170054C0FE784EA60608A607784EE6FC08E6DD
:082D2700FD7F0A122DE97F0077
:012D2F002281
:102C7300900369EFF0900369E0FFEF1208712C8B6A
:102C8300022CA20400002CCC900227E0FEA3E0FF5C
:102C9300EE54BFFCEF54FBFD7F0E122DE9802D9007
:102CA3000227E0FEA3E0FFEE54BFFCEF54FBFD7FE1
:102CB3000E122DE9900227E0FEA3E0FFAC06EF44DD
:0F2CC30004FD7F0E122DE980037F01227F002286
:10310300900315EBF0A3EAF0A3E9F0900318EDF0B8
:103113007F6012359E7F0112321FC2A07F40122FA3
:1031230041900318E0FF14F0EF6019900315E0FBE2
:10313300A3E475F0011206BBA9F0FA1205E6FF122B
:073143002F4180DDD2A02224
:10314A00900319EBF0A3EAF0A3E9F090031CEDF069
:10315A007FE012359E7F0112321FC2A07FC0122F5C
:10316A004190031CE0FF14F0EF6019122D30900318
:10317A0019E0FBA3E475F0011206BBA9F0FAEF12FD
:07318A00062C80DDD2A0221B
:0527720090036AEFF086
:1027770090036AE0FFEFC39402400B90036AE0FF07
:10278700EFD3940740037F01227F1412359E9002F6
:1027970013E0FEA3E0FFEF54F0FF7850A60608A66B
:1027A7000790036AE0FF7E00EF25E0FFEE33FE7837
:1027B70050E6FC08E6FDEE4CFEEF4DFFAC06EF449D
:1027C70001FD7F04122DE97F0A7E001234557F0137
:1027D700122E417E00EF5480FFEF7807CEC313CE51
:0E27E70013D8F9FFEF4E70047F0180027F00CF
:0127F50022C1
:1027F600784676FF0876FF7F1812359E900223E012
:10280600FEA3E0FFEE54FEFCAD077F0C12341B7FE7
:102816000F123263AC06EF4401FD7F0F12341B7FAB
:102826000F123263EF5401FF7845A607784608E693
:1028360016188606700116FFEF4E60077845E6FF0C
:10284600EF70DC7846E6FE08E6FFD3EF9400EE94E0
:1028560000400F7F0C123263EF54FFFF7845A60746
:0F2866008004784576007F1412359E7845E6FF92
:012875002240
:103025001225B9EFB404037F04227F1412359E7D67
:10303500457C007F08122DE97D7F7C027F01122DE2
:10304500E9900225E0FEA3E0FFEE4404FCAD077F16
:103055000D12341B900229E0FEA3E0FFEE4402FCB2
:0A306500AD077F0F12341B7F00221D
:10306F007F1412359E7D457C007F08122DE97D056A
:10307F007CFC7F01122DE91225B9EFB404037F0404
:10308F00229001E5E0FEA3E0FFAC06EF4410FD7FC8
:10309F0002122DE9900229E0FEA3E0FFEE4402FCAC
:0A30AF00AD077F0F12341B7F0022D3
:1030B9007F1412359E7D4D7C007F08122DE97D0518
:1030C9007CFC7F01122DE91225B9EFB404037F04BA
:1030D900229001E5E0FEA3E0FFAC06EF4430FD7F5E
:1030E90002122DE9900229E0FEA3E0FFEE4402FC62
:0A30F900AD077F0F12341B7F002289
:1011F9006020020B00210A24B80500000A200024FF
:10120900000000010000000018D470094400080023
:10121900484520C0602001E1F706000000001107E1
:1012290001700201400F2AC00045D281000408253F
:101239000127003F155F00004A0201037F84000077
:051249000000000000A0
:0D35E30053FBFB53F3FB758F0843A88422B4
:1034C00053FBFB43F30453FBFD43F30243FB015364
:1034D000F3FE43FA8053F27F53E47E43FA4053F203
:0E34E000BF53FADF53F2DF1235E3123610222B
:03001E00C2A0225B
:03361000D2A02223
:1035140090036BEFF090036BE0FFEFB4010753FAF5
:0F352400BF43F2402243FA4053F2BF53E4BE22AA
:052F410090035DEFF0BC
:102F460090035EE4F090035EE0FFEFC39408503711
:102F560090035DE0FFEF30E704D2968002C2967FD1
:102F6600017E00123455D2977F017E00123455C27D
:102F76009790035DE0FFEF25E0FF90035DEFF09093
:072F8600035EE004F080BED1
:012F8D002221
:082E970090033DEEF0A3EFF003
:102E9F0090033FE4F090033FE0FFEFC39410503CEA
:102EAF0090033DE0FEA3E0FFEE30E704D2968002F0
:102EBF00C296D2977F017E00123455C29790033D80
:102ECF00E0FEA3E0FFEF25E0FFEE33FE90033DEEC3
:0C2EDF00F0A3EFF090033FE004F080B996
:012EEB0022C4
:102D3000900360E4F07F0112351490035FE4F0909B
:102D4000035FE0FFEFC3940850383096149003609F
:102D5000E0FFEF25E0FFEF4401FF900360EFF0801C
:102D60000E900360E0FFEF25E0FF900360EFF0D2EC
:102D7000977F017E00123455C29790035FE004F004
:0C2D800080BD7F00123514900360E0FF5E
:012D8C002224
:1029E400900341E4F0A3E4F07F0112351490034016
:1029F400E4F0900340E0FFEFC39410504A30961D7A
:102A0400900341E0FEA3E0FFEF25E0FFEE33FEEF8D
:102A14004401FF900341EEF0A3EFF08017900341CF
:102A2400E0FEA3E0FFEF25E0FFEE33FE900341EE6E
:102A3400F0A3EFF0D2977F017E00123455C2979035
:102A44000340E004F080AB7F00123514900341E0B2
:042A5400FEA3E0FFFE
:012A5800225B
:05336500900343EFF0AE
:10336A00900344E4F0A3E4F0900344E4F0A3E4F00F
:10337A00900343E0FF7E00900344E0FCA3E0FDC31A
:10338A00ED9FEC9E50120000900345E004F0700699
:08339A00900344E004F080D828
:0133A2002208
:0828F4009002F8EEF0A3EFF0F2
:1028FC009002FAE4F0A3E4F09002FCE4F0A3E4F01C
:10290C009002FAE4F0A3E4F09002F8E0FEA3E0FFFA
:10291C009002FAE0FCA3E0FDC3ED9FEC9E504190C9
:10292C0002FCE4F0A3E4F09002FCE0FEA3E0FFC3A1
:10293C00EF94DCEE94005018000000000000000042
:10294C009002FDE004F070069002FCE004F080D7E9
:10295C009002FBE004F070069002FAE004F080A80C
:01296C002248
:10124E006020025F000000000000000000000000AF
:10125E000000000000000000000000000000000080
:10126E000000000041025D0041025E0041025B0091
:04127E0041025C00CD
:10287600D28543F920C29FD29ED29C7E007F05EF6F
:102886008EF012089728A3000128B0000228BD0088
:102896000328CA000428D70005000028E475BA03F7
:1028A60075AA98438780D2DF803F75BA0375AACC94
:1028B600438780D2DF803275BA0375AAE6438780E4
:1028C600D2DF802575BA0375AAEF438780D2DF80F1
:1028D6001875BA0375AAF7438780D2DF800B75BADD
:0E28E6000375AA98438780D2DFD2ACD2AF220E
:03002300022A5955
:102A5900C0E0C083C082C085C084C0925392FEC0CA
:0B2A6900D075D000C006C007309844B4
:102A740090036CE4F0C298C29A90025BE0FFEF040A
:102A8400FFEF541FFF90036CEFF090025CE0FF90A7
:102A9400036CE0FEEE6F601C90025BE0FF745F2F3E
:102AA400F582E43402F583E599F090036CE0FF903D
:042AB400025BEFF0E2
:102AB800D007D006D0D0D092D084D085D082D08311
:032AC800D0E03229
:10354C0090036DEFF090036DE0FF8F993099FD3093
:05355C009902C2992252
:1035610090036EEFF090036EE0FF8F993099FD307C
:053571009902C299223D
:1031910090031DEBF0A3EAF0A3E9F0900320EDF01A
:1031A1007852760078527600900320E0FF7852E65C
:1031B100FEEEC39F502090031DE0FBA3E0FAA3E0C5
:1031C100F97852E6FF8F827583001205FFFF1235F1
:0631D1006178520680D275
:0131D70022D5
:1031D800900321EBF0A3EAF0A3E9F0900324EDF0CB
:1031E8007853760078537600900324E0FF7853E60E
:1031F800FEEEC39F5020900321E0FBA3E0FAA3E07A
:10320800F97853E6FF8F827583001205FFFF1235A8
:063218004C78530680D241
:01321E00228D
:1033DF00900346EBF0A3EAF0A3E9F0900346E0FB7D
:1033EF00A3E0FAA3E0F91205E6FFEF601E90034693
:1033FF00E0FBA3E0FAA3E0F91205E6FF12354C90CB
:0C340F000347E475F0011206A580D022EE
:10241E00900304EBF0A3EAF0A3E9F0900307ECF0CD
:03242E00A3EDF02B
:10243100784376FF0876FF784176007841E6FF7EA3
:1024410000900307E0FCA3E0FDC3EF9DEE9C400379
:102451000224E87843E6FE08E6FF900304E0FBA3CC
:10246100E0FAA3E0F97841E6FD8D8275830012055B
:10247100FFFD7C00EE6CFEEF6DFF7843A60608A61B
:1024810007784276007842E6FFEFC394085052780D
:1024910043E6FE08E6FFEF30E02D7843E6FE08E66E
:1024A100FFEEC313FEEF13FF7843A60608A60778D5
:1024B10043E6FE08E6FFEE64A0FEEF6401FF784309
:1024C100A60608A60780157843E6FE08E6FFEEC3D8
:1024D10013FEEF13FF7843A60608A607784206808D
:0E24E100A478410602243C7843E6FE08E6FF9C
:0124EF0022CA
:1035760090036FEFF090036FE0FF8F993099FD3065
:053586009902C2992228
:10358B00900370EFF0900370E0FF123576900370AC
:03359B00E0FF222C
:1032A500900371E4F090025BE0FF90025CE0FEEEBB
:1032B5006F602790025CE0FF745F2FF582E43402B3
:1032C500F583E0FF900371EFF090025CE0FFEF04FF
:0F32D500FFEF541FFF90025CEFF0900371E0FFDA
:0132E40022C7
:1032E500900372E4F090025BE0FF90025CE0FEEE7A
:1032F5006F602790025CE0FF745F2FF582E4340273
:10330500F583E0FF900372EFF090025CE0FFEF04BD
:0F331500FFEF541FFF90025CEFF0900372E0FF98
:013324002286
:102EEC00900373E4F090025BE0FF90025CE0FEEE76
:102EFC00C39F501590025CE0FF90025BE0FEC3EEB6
:102F0C009FFF900373EFF0802690025BE0FF90022E
:102F1C005CE0FEEED39F401790025CE0FFC3742090
:102F2C009FFF90025BE0FEEF2EFF900373EFF0909B
:042F3C000373E0FF3C
:012F4000226E
:0B35FC0043FBC053F53FD2A6D2A7222C
:1014E9000A233E20000A53415249353120436F7087
:1014F90079726967687420323031322D3232000ACC
:1015090053415249353120434C49000A2B3D3D3D59
:101519003D20436F6D6D616E64203D3D3D2B3D2047
:1015290046756E6374696F6E203D3D3D3D3D3D3DA1
:101539003D3D3D3D3D3D2B0A7C54524143202020F9
:101549002020202020202020207C205472616369E3
:101559006E672041646A75737420526164696F20F3
:1015690020207C0A7C46524551203C76613E202051
:1015790020202020207C204765742F536574204645
:1015890072657175656E63792020202020207C0AA0
:101599007C434F4C43203C76613E20202020202074
:1015A900207C204765742F53657420434F4C43209A
:1015B900202020202020202020207C0A7C4449460D
:1015C90046203C76613E202020202020207C204798
:1015D90065742F53657420446573697265644F6639
:1015E9006673657420207C0A7C52415445203C7600
:1015F900613E202020202020207C204765742F5325
:1016090065742052462042617564726174652020B8
:1016190020207C0A7C54585057203C76613E20207B
:1016290020202020207C204765742F536574205288
:101639004620545820506F776572202020207C0A5C
:101649007C4C4F4144202020202020202020202095
:10165900207C205265616420466C61736820536563
:101669007474696E6773202020207C0A7C5341566C
:10167900452020202020202020202020207C2053AD
:1016890061766520746F20466C6173682020202084
:101699002020202020207C0A2B2D2D2D2D2D2D2D95
:1016A9002D2D2D2D2D2D2D2D2D2B2D2D2D2D2D2D63
:1016B9002D2D2D2D2D2D2D2D2D2D2D2D2D2D2D2D51
:1016C9002D2D2B00676574206C696E652066616934
:1016D9006C65640A000A636D64206572726F720A30
:1016E90000FF14E9FF14EEFF1508FF151448454CD7
:1016F9005000000000FF348D545800000000000025
:03170900FF35B0F9
:1012820041027F0060200280000000000000000098
:10129200000000000000000000000000000000004C
:0812A200000000000000000044
:10348D00900349EBF0A3EAF0A3E9F0900349E0FBC8
:10349D00A3E0FAA3E0F9900349EBF0A3EAF0A3E966
:1034AD00F09016F3E493FB740193FA740293F912FE
:0334BD000AE122FF
:1035B00090034CEBF0A3EAF0A3E9F090027F7401D2
:0235C000F022F7
:100EF9009002B2EBF0A3EAF0A3E9F09002B5EDF0AD
:100F09009002B6E4F09002B8E4F09002B9E4F090EF
:100F190002BAE4F0A3E4F0122EECEFD394005003EC
:100F29000211E01232E59002B7EFF09002B7E0FF4C
:100F3900EF12087111C0000F5F080FEB0D11C011FE
:100F490011C0130FD61B0F5F7F0F8DAA000010155C
:100F59000211C00211C09002B6E0FFEF7003021146
:100F6900C09002B6E014F09002B374FF75F0FF125E
:100F790006A57F0812358B7F2012358B7F08123525
:100F89008B0211C09002B97401F09002B7E0FF9092
:100F990002B2E0FBA3E0FAA3E0F9EF12062C9002FB
:100FA900B7E0FF9002B8E0FE74002EF582E4340049
:100FB900F583EFF09002B8E004F09002B3E475F025
:100FC900011206A59002B6E004F00211C09002B227
:100FD900E0FBA3E0FAA3E0F9E412062CE47E007F2B
:100FE90000229002B7E0FF9002B2E0FBA3E0FAA36F
:100FF900E0F9EF12062C9002B3E475F0011206A590
:101009009002B6E004F09002B7740AF09002B9E0D9
:07101900FFEF700302119CC0
:101020009002BCE4F09002BDE4F09002BEE4F0A3B4
:10103000E4F09002B7E0FF9002B2E0FBA3E0FAA375
:10104000E0F9EF12062C9002B7E0FF9002B8E0FE44
:1010500074002EF582E43400F583EFF09002B7E0DF
:10106000FF9002BDEFF09002B8E004F09002B3E40C
:1010700075F0011206A59002B6E004F09002EAE0D5
:10108000FEA3E0FF9002BEEEF0A3EFF09002BCE4FE
:10109000F09002BDE0FF7E00EF2401FFEE3400FE81
:1010A0009002BCE0FD7C00C3ED9FEE6480F8EC6430
:1010B0008098400302113F122EECEFD39400404E73
:1010C0001232E59002B2E0FBA3E0FAA3E0F9EF12DE
:1010D000062C9002B2E0FBA3E0FAA3E0F91205E6C9
:1010E000FF9002B8E0FE74002EF582E43400F58330
:1010F000EFF09002B8E004F09002BCE004F090023F
:10110000B3E475F0011206A59002B6E004F0900277
:10111000BEE0FEA3E0FFEF2480FFEE3400FE90026D
:10112000EAE0FCA3E0FDEF6D7002EE6C60030210DC
:10113000919002BAE4F0A37401F080030210919040
:1011400002BAE0FEA3E0FFEF4E60129002B8E4F0B6
:101150009002B9E4F0E47E007F002280637B017A94
:101160000079019002B8E0FFEF24FEFD122B3C90C5
:1011700002B8E0FE74FF2EF582E434FFF583E0FE52
:10118000EFB506107B007A0079001235B07E007F43
:0A1190000122802CE47E007F002283
:10119A0080249002B7E0FF9002B2E0FBA3E0FAA33A
:1011AA00E0F9EF12062C9002B3E475F0011206A5DD
:1011BA009002B6E004F09002B5E0FFEF24FEFF9043
:1011CA0002B6E0FEEEC39F500D9002B7E0FFEF6457
:1011DA000A6003020F2C9002B2E0FBA3E0FAA3E03C
:0911EA00F9E412062C7E007F01DD
:0111F30022D9
:0B192D009002CDEBF0A3EAF0A3E9F07C
:101938009002D2E4F0A3740AF09002D4E4F0A3E495
:10194800F09002D0E4F0A3E4F09002CDE0FBA3E035
:10195800FAA3E0F91205E6FFEFB42D159002D4E4DE
:10196800F0A37401F09002CEE475F0011206A58090
:10197800439002CDE0FBA3E0FAA3E0F91205E6FFED
:10198800EFB430309002CEE475F0011206A5900253
:10199800CDE0FBA3E0FAA3E0F91205E6FFEFB47887
:1019A800139002CEE475F0011206A59002D2E4F07D
:1019B800A37410F09002CDE0FBA3E0FAA3E0F912C3
:1019C80005E6FFEF7003021B269002CDE0FBA3E0C3
:1019D800FAA3E0F91205E6FFC3EF648094B0403E35
:1019E8009002CDE0FBA3E0FAA3E0F91205E6FFD3ED
:1019F800EF648094B950279002CDE0FBA3E0FAA3EE
:101A0800E0F91205E6FFEF3395E0FEEF24D0FFEE94
:101A180034FFFE9002D6EEF0A3EFF0021AD3900244
:101A2800CDE0FBA3E0FAA3E0F91205E6FFC3EF64FB
:101A38008094E1403D9002CDE0FBA3E0FAA3E0F9F9
:101A48001205E6FFD3EF648094E650269002CDE0BD
:101A5800FBA3E0FAA3E0F91205E6FFEF3395E0FEF9
:101A6800EF24A9FFEE34FFFE9002D6EEF0A3EFF0CC
:101A780080599002CDE0FBA3E0FAA3E0F91205E655
:101A8800FFC3EF648094C15003021B269002CDE08F
:101A9800FBA3E0FAA3E0F91205E6FFD3EF64809414
:101AA800C6507B9002CDE0FBA3E0FAA3E0F9120553
:101AB800E6FFEF3395E0FEEF24C9FFEE34FFFE901A
:101AC80002D6EEF0A3EFF0800280539002D2E0FE3F
:101AD800A3E0FF9002D6E0FCA3E0FDC3ED9FEE6417
:101AE80080F8EC64809850369002D2E0FCA3E0FDC8
:101AF8009002D0E0FEA3E0FF12063E9002D6E0FC82
:101B0800A3E0FDEF2DFFEE3CFE9002D0EEF0A3EF38
:101B1800F09002CEE475F0011206A50219BC9002FD
:101B2800D4E0FEA3E0FFEF4E60119002D0E0FEA3E8
:101B3800E0FFC3E49FFFE49EFE80089002D0E0FE31
:031B4800A3E0FF18
:011B4B002277
:0B170C009002D8EBF0A3EAF0A3E9F094
:101717009002E1E4F09002E27420F07B007A007915
:1017270000C003C002C0019002D8E0FBA3E0FAA307
:10173700E0F9D082D083D0E06B7008E9658270034E
:10174700EA6583702B9002D8E0FBA3E0FAA3E0F9E7
:10175700C003C002C0019002DBE0FBA3E0FAA3E0F4
:10176700F91207999002D8E0FBA3E0FAA3E0F92267
:101777009002D8E0FBA3E0FAA3E0F91205E6FFEF39
:10178700642060139002D8E0FBA3E0FAA3E0F9120B
:1017970005E6FFEFB4223A9002D8E0FBA3E0FAA3F4
:1017A700E0F91205E6FFEFB4220C9002E27422F092
:1017B7009002E17401F09002D8E0FBA3E0FAA3E005
:1017C700F9E412062C9002D9E475F0011206A580FF
:1017D7009F9002D8E0FBA3E0FAA3E0F99002DEEBCA
:1017E700F0A3EAF0A3E9F09002DEE0FBA3E0FAA39E
:1017F700E0F91205E6FFEF640D60589002DEE0FBAA
:10180700A3E0FAA3E0F91205E6FFEF640A6044904B
:1018170002E1E0FFEF60149002DEE0FBA3E0FAA331
:10182700E0F91205E6FFEF642260289002E1E0FF8D
:10183700EF70149002DEE0FBA3E0FAA3E0F91205D3
:10184700E6FFEF6420600C9002DFE475F0011206FA
:10185700A580949002DEE0FBA3E0FAA3E0F912056D
:10186700E6FF9002E2E0FEEF6E60289002DEE0FB0A
:10187700A3E0FAA3E0F91205E6FFEF640D60149008
:1018870002DEE0FBA3E0FAA3E0F91205E6FFEF644E
:101897000A70489002DEE0FBA3E0FAA3E0F9E41245
:1018A700062C9002E1E0FFEF60249002DEE0FBA34C
:1018B700E0FAA3E0F91205E6FF9002E2E0FEEFB5D9
:1018C700060C9002DFE475F0011206A5800D900268
:1018D700DFE475F0011206A502185A9002DEE0FB5C
:1018E700A3E0FAA3E0F91205E6FFEF60139002DE2A
:1018F700E0FBA3E0FAA3E0F9C003C002C001800C3B
:101907007B007A007900C003C002C0019002DBE0CF
:10191700FBA3E0FAA3E0F91207999002D8E0FBA332
:05192700E0FAA3E0F965
:01192C002298
:101B4C009002C0E4F0A37401F07B007A007900905D
:101B5C0002C2EBF0A3EAF0A3E9F07B007A00790073
:101B6C009002C5EBF0A3EAF0A3E9F07B007A0079D0
:101B7C00009002C8EBF0A3EAF0A3E9F09002CCE4E9
:101B8C00F07B017A0279807D20120EF99002C0EE72
:101B9C00F0A3EFF09002C0E0FEA3E0FFEF4E700C5C
:101BAC007BFF7A1679CD120AE1021D2D7B017A0298
:101BBC007980C003C002C0017B017A0279C890020F
:101BCC00DBEBF0A3EAF0A3E9F0D001D002D00312D2
:101BDC00170C9002C2EBF0A3EAF0A3E9F09002C25A
:101BEC00E0FBA3E0FAA3E0F91205E6FFEF700302B5
:101BFC001D2D9002C2E0FBA3E0FAA3E0F99002C510
:101C0C00EBF0A3EAF0A3E9F09002C5E0FBA3E0FA45
:101C1C00A3E0F91205E6FFEF60419002C5E0FBA3DB
:101C2C00E0FAA3E0F91205E6FFEF6420602D9002C4
:101C3C00C5E0FBA3E0FAA3E0F91205E6FF1235C2FA
:101C4C009002C5E0FBA3E0FAA3E0F9EF12062C909A
:101C5C0002C6E475F0011206A580AD9002CBE4F04B
:101C6C009002CBE0FFC3EF648094824003021D0B13
:101C7C009002CBE0FFEF3395E0FE7C007D0B12066B
:101C8C003E74F62FF974163EFA7BFFC003C002C0F7
:101C9C00019002C2E0FBA3E0FAA3E0F9A801AC02B8
:101CAC00AD03D001D002D003120A20EF704890028D
:101CBC00C8E0FBA3E0FAA3E0F9C003C002C00190A6
:101CCC0002CBE0FFEF3395E0FE9016FE75F00BEFC4
:101CDC0012076DEE75F00BA42583F583E493FB746A
:101CEC000193FA740293F989828A83D001D002D0CD
:101CFC00031208C880099002CBE004F0021C6C901F
:101D0C0002CBE0FFEFB402199002C0E4F0A3E4F0C0
:101D1C0090027FE0FFEF70097BFF7A1679DE120AE2
:091D2C00E19002C0E0FEA3E0FF1B
:011D3500228B
:1012AA000137030136000222000001340001330035
:1012BA00062D413731333900602801B8000000009B
:1012CA000000000000000000000000000000000014
:1012DA000000000000000000000000000000000004
:1012EA0000000000092468656C6C6F7720210001FA
:1012FA003500602800000000000000000000000027
:10130A0000000000000000000000000000000000D3
:10131A000000000000000000000000000000410181
:10132A00E00061900028AABB0100003C49000000CF
:10133A0000000000000000000000000000000000A3
:10134A000000000000000000000000000000AABB2E
:10135A000200003CB900000000000000000000008C
:10136A000000000000000000000000000000000073
:10137A00000000000000AABB030000FCE800000017
:10138A000000000000000000000000000000000053
:10139A000000000000000000000000000000AABBDE
:1013AA000400003D59000000000000000000000099
:1013BA000000000000000000000000000000000023
:1013CA00000000000000AABB050000FD08000000A4
:1013DA000000000000000000000000000000000003
:1013EA000000000000000000000000000000AABB8E
:1013FA00060000FDF80000000000000000000000E8
:10140A0000000000000000000000000000000000D2
:10141A00000000000000AABB0700003DA900000070
:10142A0000000000000000000000000000000000B2
:10143A000000000000000000000000000000AABB3D
:10144A000800003E990000000000000000000000B3
:10145A000000000000000000000000000000000082
:10146A00000000000000AABB090000FEC80000003E
:10147A000000000000000000000000000000000062
:10148A000000000000000000000000000000AABBED
:10149A000A0000FE38000000000000000000000002
:1014AA000000000000000000000000000000000032
:0614BA000000000000002C
:03001300020003E5
:10000300C0D075D000C00078367601D000D0D03291
:10332500900325EBF0A3EAF0A3E9F0900328EDF074
:103335007F1412359E7F0A7E001228F4900325E043
:10334500FBA3E0FAA3E0F9900328E0FD1231037F27
:103355001A12359E7F0A7E001228F47837760222EB
:102B3C009002FEEBF0A3EAF0A3E9F0900301EDF0B4
:102B4C00900302E4F0900303E4F0900303E4F090AC
:102B5C000301E0FF900303E0FEEEC39F50279002B9
:102B6C00FEE0FBA3E0FAA3E0F9900303E0FF8F8201
:102B7C007583001205FFFF900302E02FF090030312
:102B8C00E004F080CA900302E0FFEFF4FFEF04FFD3
:0A2B9C00900302EFF0900302E0FF47
:012BA600220C
:1021320090034FE4F0A37401F0900351E4F0783679
:10214200E6FFEF640160030222127837E6FFEF1226
:10215200087121780121F5022161030000220E7B22
:10216200017A0179B87D0612314A7F1812359E78BC
:1021720037760102220E7B017A0179B87D2812316D
:102182004A7F1812359E7B017A0179B99001B9E034
:10219200FFEF04FD122B3C9001B9E0FE74BA2EF55C
:1021A20082E43401F583E0FEEF6E70609001BAE0E4
:1021B200FFEFB40A167B017A0179B89001B9E0FF0A
:1021C200EF2403FD123191B2A680419001BBE0FFE2
:1021D200EF60399001BBE014F09001B9E0FF74BAEE
:1021E2002FF582E43401F583E004F09001E07401FC
:1021F200F08019B2A77FC812321FB2A77F1812351A
:102202009E7F0A7E001228F47837760178367600AF
:102212009001E0E0FFEF601C7FE812321F7B017A41
:102222000179B89001B9E0FFEF2403FD1233259044
:1022320001E0E4F090027FE0FFEFB401177B017A46
:10224200007900900001E0FFEF2403FD1233259096
:0C225200027FE4F090034FE0FEA3E0FFE9
:01225E00225D
:1014C0004402E3000000004202E800004202EC0097
:0A14D000004102E7004202EA0000BA
:1035D300438910758DAE758B9F43884043A888221D
:03001B0002296D4A
:10296D00C0E0C083C082C085C084C0925392FEC0B7
:10297D00D075D000C006C007C2AB9002E9E004F0EC
:10298D0070069002E8E004F09002EBE004F07006AF
:10299D009002EAE004F09002E8E0FEA3E0FF7E0082
:1029AD00EF547FFFEF4E70149002EDE004F07006CF
:1029BD009002ECE004F09002E77401F0758DAE75B5
:1029CD008B9FD2ABD007D006D0D0D092D084D085FB
:0729DD00D082D083D0E0326C
:08345500900329EEF0A3EFF053
:10345D0090032BE4F0A3E4F0900329E0FEA3E0FF3A
:10346D0090032BE0FCA3E0FDC3ED9FEC9E5010906C
:0F347D00032CE004F0700690032BE004F080D9DC
:01348C00221D
:05321F00900352EFF0E6
:10322400900353E4F0900354E4F0900353E4F090DB
:103234000352E0FF900353E0FEEEC39F502090033F
:1032440054E4F0900354E0FFEFC394DC500890037F
:0E32540054E004F080ED900353E004F080D1CC
:013262002249
:0800260090032DEEF0A3EFF0B2
:10002E0012360790032FEEF0A3EFF012360790036F
:10003E002FE0FCA3E0FDC3EF9DFFEE9CFE90032D91
:0C004E00E0FCA3E0FDC3EF9DEE9C40DF52
:01005A002283
:093607009002E8E0FEA3E0FF22BE
:0C35F0009002ECE0FEA3E0FFE4FCFD22F2
:0614DA004303580000006E
:04001600123533224A
:101EA8009002A0EBF0A3EAF0A3E9F09002A3ECF013
:031EB800A3EDF0A7
:101EBB009002ACE4F0A3E4F07B007A007900C0035D
:101ECB00C002C001900358E0FBA3E0FAA3E0F9D0F5
:101EDB0082D083D0E06B7008E965827003EA65837A
:101EEB0070099002ACE4F0A37401F09002A7E0FB40
:101EFB00A3E0FAA3E0F9C003C002C0019002A0E086
:101F0B00FBA3E0FAA3E0F9758202758300120818AF
:101F1B009002AAE0FEA3E0FFAA06A9077B01C0037B
:101F2B00C002C0019002A0E0FBA3E0FAA3E0F975A8
:101F3B0082057583001208189002A3E0FEA3E0FF50
:101F4B009002A0E0FBA3E0FAA3E0F9EE8FF01206FB
:101F5B00FC9002A0E0FBA3E0FAA3E0F9900358EB9E
:101F6B00F0A3EAF0A3E9F09002AAE0FEA3E0FF8F52
:101F7B00828E83E0FEA3E0FF9002A3E0FCA3E0FDD2
:101F8B00C3ED9FFFEC9EFE9002AEEEF0A3EFF09040
:101F9B0002AEE0FEA3E0FF7C067D4A1206509003E2
:101FAB0063EFF0900363E0FF7E007C067D49120631
:101FBB003E9002AEE0FCA3E0FDC3ED9FFFEC9EFE66
:101FCB009002B0EEF0A3EFF09002ACE0FEA3E0FFC6
:101FDB00EF64014E700B9002B0E0FEA3E0FF1234F1
:061FEB00EEE47E007F0021
:011FF10022CD
:102349007B007A007900C003C002C001900358E005
:10235900FBA3E0FAA3E0F9D082D083D0E06B700848
:10236900E965827003EA6583700302241D900358AE
:10237900E0FBA3E0FAA3E0F9900355EBF0A3EAF040
:10238900A3E9F07B007A007900900358EBF0A3EA07
:10239900F0A3E9F0900355E0FBA3E0FAA3E0F9AE5E
:1023A90002AF01900355E0FBA3E0FAA3E0F97582BF
:1023B900057583001207E8AC02AD01900355E0FBF7
:1023C900A3E0FAA3E0F97582027583001207E88990
:1023D900828A831208C87B007A007900C003C00290
:1023E900C001900358E0FBA3E0FAA3E0F9D082D042
:1023F90083D0E06B7008E965827003EA6583601435
:10240900900358E0FBA3E0FAA3E0F91206D1FFAE6E
:04241900F01234EE9B
:01241D00229C
:0814E0004103630041036400B5
:1035330075CD0075CC0075CB0075CA0075C3C07519
:09354300C20043C89543C10822EF
:1034EE00900361EEF0A3EFF0900361E0FEA3E0FF26
:1034FE008FC2900361E0FEA3E0FFEEFF7E008FC35C
:06350E0043C108D2BB22FC
:03005B00022BA7CE
:102BA700C0E0C0F0C083C082C085C084C092539289
:102BB700FEC0D075D000C000C001C002C003C00471
:102BC700C005C006C007C2BB900364E004F09003D1
:102BD70063E0FF900364E0FEEEB507081223499017
:102BE7000364E4F0D2BBD007D006D005D004D003ED
:102BF700D002D001D000D0D0D092D084D085D0825E
:072C0700D083D0F0D0E032D1
:10005E0002041FE86480F8E933E83360110460F0AD
:10006E00ED33EC337009E8FCE9FDEAFEEBFF220408
:10007E0060DED3EB9FEA9EE99DE8C2E78CF0C2F703
:10008E0095F0400CE8CCF8E9CDF9EACEFAEBCFFBCF
:10009E001203EA85D0F05804700320D5B3E804703B
:1000AE00075002B2D502042992D5EC0460F7E4CCD5
:1000BE00C0E0C398F8603B94186008400DD0E0FB98
:1000CE00020401E4FBFAC9FC8028E830E406E4C926
:1000DE00FBE4CAFCE830E305E4C9CACBFCE85407EC
:1000EE006010F8C3E913F9EA13FAEB13FBEC13FCF7
:1000FE00D8F130F52FC3E49CFCEF9BFFEE9AFEED9A
:10010E0099FDD0E0FBEF4E4D4C701222DB03020442
:10011E0026EC2CFCEF33FFEE33FEED33FDED30E736
:10012E00EB020401EF2BFFEE3AFEED39FDD0E0FBC2
:10013E0050130BBB0003020429ED13FDEE13FEEF6B
:08014E0013FFEC13FC02040195
:10015600EC4D6011E8497017ED33EC3304600DE4A3
:10016600FCFFFEFD22E933E8330470F802041F1297
:1001760003EA58046009E4CC248150062850090299
:100186000429284003020426C0E0EB4A7044B980E3
:1001960006D0E0FB020415EF4E701CBD8008EBFF95
:1001A600EAFEE9FD80EBE98DF0A4FEE5F002023FF0
:1001B600E9CDF9EAFEEBFFEF89F0A4FCE5F0CE8984
:1001C600F0A42EFFE435F0CD89F0A42DFEE435F041
:1001D6008067EF4E7005BD80D780C3EF8BF0A4AC6F
:1001E600F0EE8BF0A42CFCE435F0F8EF8AF0A42CAA
:1001F600E5F038FCE433CB8DF0A42CFCE5F03BF8BD
:10020600EE8AF0A42CFCE5F038F8E433CF89F0A4AC
:100216002CFCE5F038CF3400CE89F0A42FFFE5F0B2
:100226003EFEE433C98DF0A42EFEE5F039CD8AF00A
:10023600A42FFFE5F03EFEE43DFD33D0E0FB500782
:100246000BBB000F020429EC2CFCEF33FFEE33FE50
:06025600ED33FD0204017E
:10025C00020429EC5D046005E85904700302041FD4
:10026C001203EA580460F6EC4860F2EC7004FDFEF0
:10027C00FF22C860DB2481C85009C3986002500675
:10028C000204269850CAF582E9294B4A7005AB82C4
:10029C0002041575F0007C1A7880C3EF9BEE9AED82
:1002AC0099400DC3EF9BFFEE9AFEED99FDE842F0ED
:1002BC00DC23ACF0D0E0FFD0E0FED0E0FDAB822040
:1002CC00E7101BEB60BAEC2CFCEF33FFEE33FEEDCA
:1002DC0033FD020401E803F830E705C0F075F000C7
:1002EC00EF2FFFEE33FEED33FD40B830E7C280AAAE
:1002FC0074F8CC6480CCC86480C8F58204604FC3A9
:10030C00EB9FF5F0EA9E42F0E99D42F0E89C45F047
:10031C00603C501DE5825FFFE582D313CB5BCBF4D1
:10032C002B5582FB50280ABA002409B900200880FA
:10033C001DE5825BFBE582D313CF5FCFF4C3132F94
:10034C005582FF50090EBE00050DBD00010CC3EB1C
:10035C009FF5F0EA9E42F0E99D42F0E89C45F06082
:09036C0007CC4820E701B3EC22A4
:1003750075F020800E75F010800575F0087D007E03
:10038500007F003392D530D50312071BEC334010A4
:10039500EF33FFEE33FEED33FDEC33FCD5F0ED220C
:0E03A500E5F0247EA2D513CC92E7CDCEFF2248
:1003B300EDD2E7CD33EC3392D524814006E4FFFE42
:1003C300FDFC22FCE4CFCECDCC24E0501174FF80A1
:1003D300EDC3CC13CCCD13CDCE13CECF13CF04703E
:0703E300F030D5DE02071B1C
:100A7600E508242EF582E43402F583E00508229089
:100A8600022B30070390022EE475F001120779025B
:100A960005E62000E97F2ED2008018EF540F24903F
:100AA600D43440D4FF30040BEF24BFB41A005003F3
:100AB6002461FFE50960021509050CE50C700205C5
:100AC6000B30070E90022BE475F001120779EF0246
:100AD600062C02358B7403D2078003E4C207F5089F
:100AE60090022B120790E4F509F50BF50CE5096069
:100AF600077F20120AB980F5750AFFC201C200C23B
:100B060002C203C205C206C208120A85FF700D3072
:100B160007057F00120ACAAF0CAE0B22B4255FC2CE
:100B2600D5C204120A85FF24D0B40A00501A75F003
:100B36000A780930D50508B6FF0106C6A426F620B0
:100B4600D5047002D20380D924CFB41A00EF500422
:100B5600C2E5D204020DBCD20180C6D20080C0D24A
:100B66000280BCD2D580BAD20580B47F20120AB9E1
:100B76002002077401B5090040F1120A76FF120A35
:100B8600B9020AF3D208D2068095120A76FB120A37
:100B960076FA120A76F94A4B700679BA7A0E7BFF14
:100BA60020022EE509602A7E008E827583001205DA
:100BB600FF60060EEE650A70F0C2D5EBC0E0EAC033
:100BC600E0E9C0E0EE120E1DD0E0F9D0E0FAD0E088
:100BD600FB1205E6FF60AAEBC0E0EAC0E0E9C0E070
:100BE600120AB9D0E02401F9D0E03400FAD0E0FBD3
:100BF600E50A0460DCD50AD98087D20280A2120DEC
:100C0600FF60F7E50A700104120434A90A600DE5D5
:100C16000A600914F50A120EA7EF60F3EA30E7023C
:100C2600F404C3995079EAF4250A0430E701E40490
:100C3600F50A800D120DFF60C1EA050A250A1204A5
:100C460034EA90025AF030E701E4250A04D50A0492
:100C560020050114120E1DE4C0E0120EA790025AE0
:100C6600E0601320E70714F0120AA1802204F0D0F6
:100C7600E014C0E07F00120AA1E50A6007120A9894
:100C8600150A800B300503120A98D0E0020AF3D049
:100C9600E00480C4120DFF609EE50A04120434903D
:100CA600025AEAF0E50A2005026001042404120E45
:010CB6001D20
:100CB70074FF04C0E0120EA7120AA1E50A2005027C
:100CC7006003120A98D0E0B50AE87F45120AAB9094
:100CD700025AE07F2B30E7047F2DF404C0E0120AAC
:100CE700B9D0E075F00A84C0F0120AA2D0E0120A67
:100CF700A2020AF3791080027908C206C2088008A6
:100D0700D2D5790A8004790AC2D5E50A047002F5BA
:100D17000AE4FAFDFEFF120A76FC7B082001131293
:100D27000A76FD7B1030000A120A76FE120A76FF59
:100D37007B20EC3382D592D55013C3E43000069F55
:100D4700FFE49EFEE42001039DFDE49CFCE4CBF858
:100D5700C201EC700CCFCECDCCE824F8F870F3804C
:100D670017C3EF33FFEE33FEED33FDEC33FCEB330C
:100D7700FB994002FB0FD8E9EB300105F8D0E0C43E
:100D870048B201C0E00AEC4D4E4F78207B0070C29C
:100D9700EAB50A0040BCC0E0120E1FD0F0D0E02038
:100DA7000104C4C0E0C4B201C0F0120AA2D0F0D559
:100DB700F0EB020AF31208710B90530CFB580B610E
:100DC7004C0B5D420CFF4F0D07440D07490B764353
:100DD7000D0D550C3A460C9A450C04470EDA500B8C
:100DE700652D0B692E0B8C2B0B6D230B8A200EC3E5
:100DF7002A0B254800000B84E50AB4FF03750A0691
:100E0700120A76FC120A76FD120A76FE120A76FF9D
:100E1700900253020471790AA2D520031430050900
:100E2700B910020404B9080104A2D5200602500132
:100E3700042002689202B509005034C0E07F2030D8
:100E470003197F30A20272067205500F120E76C286
:100E570002C206C205C2087F30800F300503E9C011
:100E6700E0120AB9300503D0E0F9D0E0B509CC307B
:100E770005177F30B9100C120AB97F583004077F65
:100E8700788003B90803120AB93002057F2D020AD8
:100E9700B97F202008F87F2B2006F322920280CF0B
:100EA7007F00B40700500B2453F582E43402F58326
:100EB700E0FF22286E756C6C2900D201120A763089
:100EC70001F8C201780930D50108F6020B252D502B
:100ED700434958120A762403B405004001E4900EF2
:100EE700D593120AAA743A120AAAD2037509040200
:020EF7000CFBF2
:1003EA00E9D2E7C933E833F892D5EDD2E7CD33EC59
:0703FA0033FC5002B2D522D2
:10040100EC30E7100FBF000C0EBE00080DBD00045C
:100411000BEB6014A2D5EB13FCED92E7FD2274FF08
:10042100FCFDFEFF22E480F8A2D574FF13FC7D8061
:03043100E480EF75
:10043400F920E73624F950037907E4F42402FBE5B4
:1004440082158270021583DBF6E024FB501BE96001
:1004540014E4F0E582158270021583E004F0B40A16
:0D04640008E4F0D9EE7401F00A22C2D5229E
:10047100ED33EC3392D5FA602AB4FF33EDC2E77B5A
:10048100FF60067A047996E4227A04799F20D504E4
:100491007A04799A224E614E002B494E46002D492D
:1004A1004E4600E47A08F0A3DAFC7B00740722C010
:1004B10083C082ECC0E0EDC0E0EEC0E0EFC0E0EA56
:1004C10075F010A4CAABF075F04DA42BFBE435F028
:1004D100FCEA2410FAEB34C5FBEC34D9FCEDC2E79D
:1004E100FF75F056A4F42411C5F0F434C58FF0A4BF
:1004F1002AE5F03BE43CF020E7141205A6D0E0FF2A
:10050100D0E0FED0E0FDD0E0FC12025F8014F404E4
:100511001205A6D0E0FFD0E0FED0E0FDD0E0FC1255
:100521000156D082D083E0FAEDD2E7CD33EC33240B
:1005310082FBE4C3CF33CFCE33CECD33CD33DBF328
:100541007B0775F00A846004F0A31B0AE5F0F0A3B1
:100551008FF0740AA4FFACF08EF0740AA42CFEACE8
:10056100F050010C8DF0740AA42CFDE435F0F0A3D9
:05057100DBDE7407222F
:100576003F8000004120000042C80000447A00008D
:10058600461C400047C35000497424004B1896800F
:100596004CBEBC205A0E1BCA6753C21C749DC5AE06
:1005A600FB60065407601C23231205D4EB54386005
:1005B600091205C01205CF120156ECF8EDF9EEFA54
:1005C600EFCB22EB1205CF80F1543803241C9005A3
:1005D60076FE93FC0EEE93FD0EEE930ECE93FF2267
:10266B000226EBE493A3F8E493A34003F68001F274
:10267B0008DFF48029E493A3F85407240CC8C33370
:10268B00C4540F4420C8834004F456800146F6DF3F
:10269B00E4800B01020408102040809011F4E47ECA
:1026AB00019360BCA3FF543F30E509541FFEE49334
:1026BB00A360010ECF54C025E060A840B8E493A3FB
:1026CB00FAE493A3F8E493A3C8C582C8CAC583CA26
:1026DB00F0A3C8C582C8CAC583CADFE9DEE780BEDE
:0114E8000003
:1005E600BB010689828A83E0225002E722BBFE0213
:0905F600E32289828A83E4932246
:1005FF00BB010CE58229F582E5833AF583E02250B1
:10060F0006E92582F8E622BBFE06E92582F8E222FA
:0D061F00E58229F582E5833AF583E4932214
:10062C00BB010689828A83F0225002F722BBFE01AD
:02063C00F322A7
:10063E00EF8DF0A4A8F0CF8CF0A428CE8DF0A42ED0
:02064E00FE228A
:10065000BC000BBE0029EF8DF084FFADF022E4CC8E
:10066000F875F008EF2FFFEE33FEEC33FCEE9DEC57
:10067000984005FCEE9DFE0FD5F0E9E4CEFD22ED9D
:10068000F8F5F0EE8420D21CFEADF075F008EF2FE7
:10069000FFED33FD4007985006D5F0F222C398FDD8
:0506A0000FD5F0EA2275
:1006A500C5F0F8A3E028F0C5F0F8E58215827002E0
:0606B5001583E038F0227D
:1006BB00A3F8E0C5F025F0F0E582158270021583F2
:0606CB00E0C838F0E8224F
:1006D100BB010A89828A83E0F5F0A3E022500687F4
:1006E100F009E71922BBFE07E3F5F009E3192289B6
:0B06F100828A83E493F5F074019322E9
:1006FC00BB010A89828A83F0E5F0A3F0225006F749
:0F070C0009A7F01922BBFE06F3E5F009F3192245
:0E071B00C3E49FFFE49EFEE49DFDE49CFC22EF
:10072900E8600FECC313FCED13FDEE13FEEF13FFAE
:03073900D8F122D2
:0C073C00E6FC08E6FD08E6FE08E6FF22E9
:0D074800E6FB08E6F908E6FA08E6CBF82221
:0C075500ECF608EDF608EEF608EFF622D0
:0C076100ECF0A3EDF0A3EEF0A3EFF0220B
:0C076D00A42582F582E5F03583F5832297
:10077900F8E0FBA3A3E0F925F0F0E5821582700209
:070789001583E0FA38F022AD
:09079000EBF0A3EAF0A3E9F0226A
:10079900BB011A89828A83D0F0D0E0F8D0E0F9D081
:1007A900E0FAD0E0FBE8C0E0C0F00207905016E99B
:1007B900F8D083D082D0E0F9D0E0FAD0E0FBC08253
:1007C900C083020A46BBFE16E9F8D083D082D0E086
:0F07D900F9D0E0FAD0E0FBC082C083020A6122AF
:1007E800BB010DE58229F582E5833AF583020A4FBC
:1007F8005007E92582F8020A3DBBFE07E92582F881
:10080800020A58E58229F582E5833AF583020A6AE5
:10081800BB0120E58229F582E5833AF583D0F0D043
:10082800E0F8D0E0F9D0E0FAD0E0FBE8C0E0C0F0B2
:100838000207905018E92582F8D083D082D0E0F9D9
:10084800D0E0FAD0E0FBC082C083020A46BBFE18A3
:10085800E92582F8D083D082D0E0F9D0E0FAD0E060
:09086800FBC082C083020A612278
:10087100D083D082F8E4937012740193700DA3A316
:1008810093F8740193F5828883E47374029368602A
:06089100EFA3A3A380DF2A
:10089700D083D082F8E4937012740193700DA3A3F0
:1008A70093F8740193F5828883E473740293B5F027
:0D08B700067403936860E9A3A3A3A380D88F
:0608C4008A838982E473BF
:1035C200EFC39461400AEF947B5005EF24E0FF22A1
:0135D20022D6
:1008CA00E3F5F009E208B5F06D606B80F3E3F5F04B
:1008DA0009E608B5F060605E80F387F009E608B5BE
:1008EA00F054605280F487F009E208B5F048604697
:1008FA0080F488828C8387F009E0A3B5F0386036EB
:10090A0080F488828C8387F009E493A3B5F027608A
:10091A002580F388828C83E3F5F009E0A3B5F0160D
:10092A00601480F388828C83E3F5F009E493A3B51D
:10093A00F004600280F20209E1808580E7808E80FF
:10094A00D28032801580628074809B80B5808B80D3
:10095A00A18045806680300209ED88848C85898271
:10096A008A83E493F5F0A30592E493A31592B5F074
:10097A0066606480ED89828A83E493F5F0A3E208D5
:10098A00B5F054605280F289828A83E0F5F0A3E6DA
:10099A0008B5F043604180F389828A83E0F5F0A3C9
:1009AA00E208B5F032603080F389828A83E493F5F5
:1009BA00F0A3E608B5F020601E80F2803F88848CA0
:1009CA008589828A83E493F5F0A30592E0A31592C0
:1009DA00B5F004600280EE7FFFB5F0020F224002FC
:1009EA007F012288848C8589828A83E0F5F0A305B9
:1009FA0092E0A31592B5F0DF60DD80EF88848C85E4
:100A0A0089828A83E0F5F0A30592E493A31592B54F
:100A1A00F0C560C380EE88F0ED2402B4040050B73C
:100A2A00F582EB2402B4040050AD232345822390BF
:030A3A00094373FA
:090A3D00E6FB08E6FA08E6F922DE
:090A4600EBF608EAF608E9F622D5
:090A4F00E0FBA3E0FAA3E0F922A8
:090A5800E2FB08E2FA08E2F922CF
:090A6100EBF208EAF208E9F222C6
:0C0A6A00E493FB740193FA740293F922E8
:00000001FF
