:030000000223CA0E
:0C23CA00787FE4F6D8FD75812102241113
:0A3FF600FFFFFFFFFFFFF75AA5AF22
:102F7600613731333920696E697469616C20666125
:052F8600696C210A0046
:1028E000E4900108F0A3F075865A123069120003D3
:1028F00012283E1230967F0A123000122DB37F0A42
:10290000123000122FC97F217E807DED7C43122979
:10291000C0EF60097BFF7A2F7976120B967F181231
:0F29200030347F0A1230001214421215DB80F897
:0C2D84009001A2E04402FCA3E0FD7F0FE0
:102D9000900121ECF0A3EDF0C2A0EF122C4A7F01CC
:102DA0007E00122FEE900121E0FEA3E0FF122BD255
:032DB000D2A0228C
:102F2C00E4FDFCC2A0EF4480FF122C4A7F017E001E
:082F3C00122FEE1227E6D2A0CD
:012F4400226A
:0C2C830090015EE0FCA3E04410FD7F0225
:082C8F00900110ECF0A3EDF040
:102C9700EFC454F0FE900192E04EFEA3E0FDAC06B7
:102CA7007F07122D90900110E0FCA3E0FD7F080242
:022CB7002D905E
:082CEE0090011FECF0A3EDF0D2
:102CF6007E00EF7807C333CE33CED8F9FF9001922A
:102D0600E04EFEA3E04FFDAC067F07122D9090012A
:0B2D16001FE0FCA3E0FD7F09022D90F0
:102F1100EFC454F0FE900192E04EFEA3E0FDAC063A
:0A2F21007F07122D907F08122F2C5D
:012F2B002283
:101F7700E490010EF090010EE0FFC39408501F7526
:101F8700F002EFA42484F582E5F03401F583E0FC48
:101F9700A3E0FD122D9090010EE004F080D7900190
:101FA7000E740AF090010EE0FFC39410501F75F0F5
:101FB70002EFA42484F582E5F03401F583E0FCA365
:101FC700E0FD122D9090010EE004F080D7E490011F
:101FD7000EF090010EE0FFC39410501F75F002EF52
:101FE700A4245AF582E5F03401F583E0FCA3E0FD73
:101FF700122C8F90010EE004F080D7E490010EF0D0
:1020070090010EE0FFC39405501F75F002EFA42462
:102017007AF582E5F03401F583E0FCA3E0FD122CAC
:09202700EE90010EE004F080D7F8
:01203000228D
:1019A300E4FF122F2C90010EEEF0A3EFF09001A2B2
:1019B300E04408FCA3E04402FD7F0F122D907F0F4B
:1019C300122F2C90010EEEF0A3EFF0EE5408FEEF71
:1019D30054024E70E97F0E122F2C90010EEEF0A3ED
:1019E300EFF090010EE0C4F854F0C8A3E0C4540F24
:1019F30048540160037F04227F0A122F1190010EC5
:101A0300EEF0A3EFF090010EE0C4F854F0C8A3E0A9
:101A1300C4540F48540160037F04227D007C4C7F33
:101A23000C122D907D007CF87F02122C8F90015AAE
:101A3300E044E0FCA3E0FDE4FF122C8F9001A2E060
:101A43004410122D8A7F0F122F2C90010EEEF0A35B
:101A5300EFF0EE20E4EF90019CE0FCA3E0FD7F0CAF
:101A6300122D9090015EE0FCA3E0FD7F02122C8F0B
:101A730090015AE0FCA3E0FDE4FF122C8F9001A239
:101A8300E0FCA3E04404FD7F0F122D907F0F122F83
:101A93002C90010EEEF0A3EFF020E2F07F0E122F58
:101AA3002C90010EEEF0A3EFF090010EE0540160D4
:061AB300037F04227F0006
:011AB900220A
:0618840090010E12084362
:10188A007BCD7ACC794C784190010EE0FCA3E0FD47
:10189A00A3E0FEA3E0FF12025F9001121208439038
:1018AA000112E0FCA3E0FDA3E0FEA3E0FF1203B3F4
:1018BA00900116EFF0FCE412037FA804A905AA061A
:1018CA00AB07900112E0FCA3E0FDA3E0FEA3E0FF5A
:1018DA00120061900117120843E4FFFE7D807C47E5
:1018EA00900117E0F8A3E0F9A3E0FAA3E0FB1201E4
:1018FA00561203B390011BEEF0A312303090018A06
:10190A00E0547FFEA3E0FF90011DEEF0FCA3EFF090
:10191A00FD7F03122D90900190E0540FFEA3E0FF8B
:10192A0090011DEEF0FCA3EFF0FD7F06122D90E46E
:10193A00FFFE7D577C4490010EE0F8A3E0F9A3E096
:10194A00FAA3E0FB1202FC90018CE0500454EF80F1
:10195A00024410FFA3E090011DCFF0A3EFF0900125
:10196A001DE0FCA3E0FD7F04122D90900186E0FEAD
:10197A007F0090011DF0A3EFF0900116E0FDEEFC50
:10198A000F122D9090011BE0FCA3E0FD7F02122DA7
:09199A0090E4FDFC7F02022CEE3A
:1025420090020974FFF0A3F0A3F0122C839001789B
:10255200E0FCA3E04401FD7F0F122C8F7F0F122FAE
:10256200117E00EF5401FF600E90020A74FFF5F035
:1025720012071045F070E57F0F122F11EE5403C3BE
:1025820013FEEF13FFD394BAEE9400400BEF94C600
:10259200EE940050037F0522900209E0FF14F0EF51
:0425A20070AB7F0497
:0125A6002212
:04303000EFF07F142A
:08303400C2A0122C4AD2A02216
:1029C00090010A120843D2A0C2977F701230347F60
:1029D0000A123000121F777F0A1230007F8C7EC5EA
:1029E0007D757C341226CD7F0112300090010AE003
:1029F000FCA3E0FDA3E0FEA3E0FF1218847F0A120F
:062A000030001219A322B0
:1026CD0090010E120843C2A07F20122C4A90010ED9
:1026DD00E0FCA3E0FDA3E0FEA3E0FF7818120830B4
:1026ED00122C4A90010EE0FCA3E0FDA3E0FEA3E056
:1026FD00FF7810120830122C4A90010EE0FCA3E076
:10270D00FDA3E0FEA3E0FF7808120830122C4A90DA
:0F271D00010EA3A3A3E0FF122C4AD2A07F00223B
:102F4500900192E054F7FCA3E054CFFDECFE7F071F
:082F5500122D907F09122F2CB0
:012F5D002251
:101EAF009002141230307F14123000900192E0FC37
:101EBF00A3E054FEFD7F07122D90900214E024F64C
:101ECF00602B24D8603F24CE605324CE7003021FB2
:101EDF0060249470657D217C66E4FF122D907DD483
:101EEF007C187F0A122D907D057CF580467D217C24
:101EFF0012E4FF122D907DD47C187F0A122D907D55
:101F0F00067CF7802E7D237C00E4FF122D907DD080
:101F1F007C187F0A122D907D067CF680167D217C21
:101F2F0000E4FF122D907DD47C187F0A122D907D36
:101F3F00067CF7E4FF122C8F8017900192E0FCA330
:101F4F00E04401FD7F07122D907F141230007F01B6
:101F5F0022900192E0FCA3E04401FD7F07122D9037
:081F6F007F141230007F0022F4
:032B160090021515
:102B1900123030900174E07F00780DF6FE08EFF670
:102B2900900215E024FFFDE434FF4EFC7F0D122CCA
:102B39008F90016EE054C0FEA3E0FF780DEEF6FC25
:0B2B490008EFF6FD7F0A122C8F7F00C2
:012B5400225E
:102B9400EF24FC60112402702F9001A0E054BFFCCC
:102BA400A3E054FB801A9001A0E054BFFCA3E054BE
:102BB400FBFD7F0E122C8F9001A0E0FCA3E04404E7
:0E2BC400FD7F0E122C8F80037F01227F0022E6
:102A900090014AEBF0A3EAF0A3E9F0A3EDF07F6028
:102AA0001230347F01123000C2A07F40801E90019E
:102AB0004DE0FF14F0EF601990014AE0FBA3E475CC
:102AC000F001120710A9F0FA1205E6FF122C4A8055
:042AD000DDD2A02291
:102A0600900122EBF0A3EAF0A3E9F0A3EDF07FE05A
:102A16001230347F01123000C2A07FC0122C4A90BF
:102A26000125E0FF14F0EF6019122AD4900122E08C
:102A3600FBA3E475F001120710A9F0FAEF12065F86
:052A460080DDD2A0229A
:05272C00900216EFF021
:10273100C394024006E0D3940740037F01227F1433
:1027410012303490018CE0FEA3E054F0FDAC069011
:102751000216E025E0FFE4334CFEEF4DAC064401E8
:10276100FD7F04122C8F7F0A7E00122FEE7F011253
:102771002F117E00EF54807807CEC313CE13D8F902
:092781004E70047F0180027F000C
:01278A00222C
:1024D10074FF90020DF0A3F07F1812303490019C2C
:1024E100E054FEFCA3E0FD7F0C122D907F0F122F14
:1024F1002CAC06EF4401FD7F0F122D907F0F122FA0
:102501002CEF540190020CF0A374FFF5F0120710A8
:1025110045F0600690020CE070E2D390020EE09468
:102521000090020DE0940040087F0C122F2CEF80E8
:1025310001E490020CF07F1412303490020CE0FFA1
:012541002277
:10002600122542BF04037F04227F141230347D451B
:100036007C007F08122C8F7D7F7C027F01122C8F23
:1000460090019EE04404FCA3E0FD7F0D122D90126A
:050056002D847F002253
:102E38007F141230347D457C007F08122C8F7D056D
:102E48007CFC7F01122C8F122542BF04037F0422D1
:092E5800122C83122D847F00224C
:102CB9007F141230347D4D7C007F08122C8F7D05E6
:102CC9007CFC7F01122C8F122542BF04037F042252
:102CD90090015EE0FCA3E04430FD7F02122C8F12CC
:052CE9002D847F002294
:101739006020018400210A24B80500000A20002441
:10174900000000010000000018D4700944000800DE
:10175900484520C06020015AF70600000000110723
:1017690001700201400F2AC00045D28100040825FA
:101779000127003F155F00004A017A037F840000BA
:0517890000000000005B
:0D30230053FBFB53F3FB758F0843A8842279
:102DB30053FBFB43F30453FBFD43F30243FB015378
:102DC300F3FE43FA8053F27F53E47E43FA4053F217
:0D2DD300BF53FADF53F2DF12302302001E5F
:03001600C2A02263
:03001E00D2A0224B
:102F8B00EFB4010753FABF43F2402243FA4053F226
:052F9B00BF53E4BE225B
:052C4A0090014EEFF0C7
:102C4F00E4A3F090014EE030E704D2968002C296E2
:102C5F007F017E00122FEED2977F017E00122FEEA2
:102C6F00C29790014EE025E0F0A3E004F0E0C3949A
:032C7F000840D03A
:012C8200222F
:082BD200900123EEF0A3EFF0E7
:102BDA00E4A3F0900123E0A330E704D2968002C276
:102BEA0096D2977F017E00122FEEC297900124E0C1
:102BFA0025E0F0900123E033F0900125E004F0E0B5
:052C0A00C3941040CE50
:012C0F0022A2
:102AD400E4900127F07F01122F8BE4900126F090FF
:102AE4000127E030960725E04401F0800325E0F05B
:102AF400D2977F017E00122FEEC297900126E00448
:102B0400F0E0C3940840D8E4FF122F8B900127E033
:012B1400FFC1
:012B1500229D
:1027E600E4900111F0A3F07F01122F8BE490011009
:1027F600F0900112E025E0309612FF900111E033CF
:10280600FEEF4401FFEEF0A3EFF08007F090011118
:10281600E033F0D2977F017E00122FEEC29790012F
:1028260010E004F0E0C3941040C7E4FF122F8B9031
:072836000111E0FEA3E0FF29
:01283D002278
:10178E00602001A600000000000000000000000024
:10179E00000000000000000000000000000000003B
:0C17AE00000000004101A4004101A50062
:10283E00D28543F920C29FD29ED29CE470117405BA
:10284E0024FE600D14601214601714601C240480A2
:10285E002075BA0375AACC801E75BA0375AAE680D8
:10286E001675BA0375AAEF800E75BA0375AAF780AE
:10287E000675BA0375AA98438780D2DFD2ACD2AF61
:01288E002227
:0300230002266D45
:10266D00C0E0C083C082C085C084C0925392FEC0BA
:0B267D00D075D000C006C007309832B6
:10268800900156E4F0C298C29A9001A4E0FF045465
:102698001FFE900156F09001A5E06E601574A62FFC
:1026A800F582E43401F583E599F0900156E0900154
:0226B800A4F08C
:1026BA00D007D006D0D0D092D084D085D082D08313
:0326CA00D0E0322B
:0B3048008F993099FD309902C2992247
:0B3053008F993099FD309902C299223C
:0B2DE000900143EBF0A3EAF0A3E9F040
:102DEB00E4FEEEC39D501A900143E0FBA3E0FAA36F
:102DFB00E0F98E827583001205FFFF1230530E80AF
:012E0B00E1E5
:012E0C0022A3
:0B305E008F993099FD309902C2992231
:06309000AE0712305E22C3
:102EAE00E4FC9001A4E0FEA3E0FD6E601474A62D78
:102EBE00F582E43401F583E0FCED04541F9001A586
:032ECE00F0AF045E
:012ED10022DE
:102E6100E4FF9001A4E0FEA3E0FDC39E5006C3EE83
:102E71009DFF80139001A4E0FEA3E0FDD39E4007D7
:072E810074209DFFEE2FFFFE
:012E88002227
:0B30690043FBC053F53FD2A6D2A722C4
:10122A000A233E20000A53415249353120436F7048
:10123A0079726967687420323031322D3232000A8D
:10124A0053415249353120434C49000A2B3D3D3D1B
:10125A003D20436F6D6D616E64203D3D3D2B3D2009
:10126A0046756E6374696F6E203D3D3D3D3D3D3D63
:10127A003D3D3D3D3D3D2B0A7C54524143202020BB
:10128A002020202020202020207C205472616369A5
:10129A006E672041646A75737420526164696F20B5
:1012AA0020207C0A7C46524551203C76613E202013
:1012BA0020202020207C204765742F536574204607
:1012CA0072657175656E63792020202020207C0A62
:1012DA007C434F4C43203C76613E20202020202036
:1012EA00207C204765742F53657420434F4C43205C
:1012FA00202020202020202020207C0A7C444946CF
:10130A0046203C76613E202020202020207C204759
:10131A0065742F53657420446573697265644F66FA
:10132A006673657420207C0A7C52415445203C76C1
:10133A00613E202020202020207C204765742F53E6
:10134A00657420524620426175647261746520207A
:10135A0020207C0A7C54585057203C76613E20203D
:10136A0020202020207C204765742F53657420524A
:10137A004620545820506F776572202020207C0A1E
:10138A007C4C4F4144202020202020202020202057
:10139A00207C205265616420466C61736820536525
:1013AA007474696E6773202020207C0A7C5341562E
:1013BA00452020202020202020202020207C20536F
:1013CA0061766520746F20466C6173682020202046
:1013DA002020202020207C0A2B2D2D2D2D2D2D2D57
:1013EA002D2D2D2D2D2D2D2D2D2B2D2D2D2D2D2D25
:1013FA002D2D2D2D2D2D2D2D2D2D2D2D2D2D2D2D13
:10140A002D2D2B00676574206C696E6520666169F5
:10141A006C65640A000A636D64206572726F720AF1
:10142A0000FF122AFF122FFF1249FF125548454C9E
:08143A005000000000FF2FDC50
:1017BA004101C600602001C70000000000000000CF
:1017CA00000000000000000000000000000000000F
:0817DA00000000000000000007
:102FDC00901434E493FB740193FA740293F9120B7A
:022FEC0096222B
:0E0FAE00900117EBF0A3EAF0A3E9F0A3EDF039
:100FBC00E4A3F090011DF0A3F0A3F0A3F0122E61B6
:100FCC00EFD394005003021217122EAE90011CEFB7
:100FDC00F0700302120124F8602424FB7003021049
:100FEC007C24FC700302120124FE70030212012403
:100FFC00F8606B249C600724D5602E0210A490012D
:10100C001BE0700302120190011BE014F090011818
:10101C0074FFF5F01206FA7F081230907F20123020
:10102C00907F0812309002120190011E7401F09012
:10103C00011CE0FF900117E0FBA3E0FAA3E0F9EF3D
:10104C0012065F90011CE0FFA3E024A9F582E434B2
:10105C0000F583EFF090011DE004F00211F1900116
:10106C0017E0FBA3E0FAA3E0F9E412065FFEFF220F
:10107C0090011CE0FF900117E0FBA3E0FAA3E0F95C
:10108C00EF12065F900118E475F0011206FA900158
:10109C001BE004F0A3740AF090011EE0700302112F
:0110AC00DD66
:1010AD00E4900121F0A3F0A3F0A3F090011CE0FF68
:1010BD00900117E0FBA3E0FAA3E0F9EF12065F90B1
:1010CD00011CE0FFA3E024A9F582E43400F583EFD1
:1010DD00F0900122EFF090011DE004F0900118E472
:1010ED0075F0011206FA90011BE004F012307F90AA
:1010FD000123EEF0A3EFF0E4900121F0900122E046
:10110D002401FFE433FE900121E0C39FEE6480F8DB
:10111D007480985078122E61EFD39400404C122EAB
:10112D00AE900117E0FBA3E0FAA3E0F9EF12065F22
:10113D00900117E0FBA3E0FAA3E0F91205E6FF909A
:10114D00011DE024A9F582E43400F583EFF0900150
:10115D001DE004F0900121E004F0900118E475F019
:10116D00011206FA90011BE004F012307F90012469
:10117D00E02480FD900123E03400FCEF6D7002EE61
:10118D006C600302110990011FF0A304F090011F80
:10119D00E07002A3E0600AE490011DF0A3F0FEFFF1
:1011AD00227B017A0079AA90011DE024FEFD122D0B
:1011BD005490011DE024A8F582E43400F583E0B5D8
:1011CD00070A9001C67401F07E00FF22E4FEFF22A3
:1011DD0090011CE0FF900117E0FBA3E0FAA3E0F9FA
:1011ED00EF12065F900118E475F0011206FA9001F6
:1011FD001BE004F090011AE024FEFFA3E0C39F5012
:10120D0009A3E0640A6003020FD5900117E0FBA368
:0C121D00E0FAA3E0F9E412065FFE7F0196
:0112290022A2
:101ABA009001F7E4F0A3740AF0E4A3F0A3F0900114
:101ACA00F5F0A3F01205E6FFB42D0B9001F9E4F04E
:101ADA00A304F0021BA8EFB4301D740129F9E43AFB
:101AEA00FA1205E6B47810740129F9E43AFA900179
:101AFA00F7E4F0A37410F01205E6FF7003021BB0BE
:101B0A00C3648094B04012D3EF648094B9500AEF52
:101B1A003395E0FEEF24D080381205E6FFC36480D7
:101B2A0094E14012D3EF648094E6500AEF3395E0D3
:101B3A00FEEF24A9801B1205E6FFC3648094C1400E
:101B4A0065D3EF648094C6505DEF3395E0FEEF24D1
:101B5A00C9FFEE34FF9001FBF0A3EFF09001F7E02C
:101B6A00FEA3E0FFC39001FCE09FEE6480F89001C1
:101B7A00FBE0648098502F9001F7E0FCA3E0FD9011
:101B8A0001F5E0FEA3E0FF1206939001FCE02FFFAF
:101B9A009001FBE03E9001F5F0A3EFF0740129F902
:101BAA00E43AFA021B019001F9E07002A3E0900105
:101BBA00F5600EE0FEA3E0FFC3E49FFFE49EFE8013
:061BCA0005E0FEA3E0FFB0
:011BD00022F2
:0B1CE200900117EBF0A3EAF0A3E9F07B
:101CED00E4FF7E20900117E0FBA3E0FAA3E04A4B4E
:101CFD007011900117A3A3E0F9C003C002C001A3A6
:101D0D00021DB9900117E0FBA3E0FAA3E0F912055B
:101D1D00E6FD64206004EDB42217EDB422047E22AA
:101D2D007F01E412065F90011875F0011206FA802A
:101D3D00D2900117E0FBA3E0FAA3E0F91205E6FD4E
:101D4D00640D6022ED640A601DEF60071205E66404
:101D5D00226013EF70071205E664206009740129F3
:101D6D00F9E43AFA80D61205E6FD6E600AED640DCF
:101D7D006005ED640A701FE412065FEF600F120537
:101D8D00E6B50609740129F9E43AFA8009740129C6
:101D9D00F9E43AFA80D01205E6600280067B007AFB
:101DAD00007900C003C002C00190011AE0FBA3E05E
:101DBD00FAA3E0F912087B900117E0FBA3E0FAA368
:021DCD00E0F93B
:011DCF0022F1
:1015DB0090010AE4F0A304F07B00A314F0A3F0A3A2
:1015EB00F0F9A3F0A3C9F0A3E9F0A3EBF0A3F0A3E8
:1015FB00F0900116F00B7A0179C77D20120FAE9097
:10160B00010AEEF0A3EFF04E70097BFF7A14790E0E
:10161B0002172D90011A7401F0A37401F0A3741238
:10162B00F07B017A0179C7121CE290010CEBF0A35D
:10163B00EAF0A3E9F01205E6700302173090010CF3
:10164B00E0F9A3E0FAA3E0A3C9F0A3EAF0A3E9F061
:10165B0090010FE0FBA3E0FAA3E0F91205E6FF60AF
:10166B00226420601E12301290010FE0FBA3E0FAFF
:10167B00A3E0F9EF12065F900110E475F00112067A
:10168B00FA80CDE4900115F0900115E0FFC3648062
:10169B0094815074EF3395E0FE7C007D0B12069322
:1016AB0074372FF974143EFA7BFFC003C00290010C
:1016BB000CE0FBA3E0FAA3E0F8AC02AD03D002D040
:1016CB0003120AD5EF7039900112E0FBA3E0FAA3E5
:1016DB00E0F9C002A3E0FF3395E0FE90143F75F0F4
:1016EB000BEF12084FEE75F00BA42583F5837401F5
:1016FB0093FA740293F5828A83D00212097D8008D3
:10170B00900115E004F08080900115E0B40116E41F
:10171B0090010AF0A3F09001C6E070097BFF7A14E8
:0D172B00791F120B9690010AE0FEA3E0FF6B
:01173800228E
:1017E20041010703410105004600D7413731333932
:1017F20000602800DD000000000000000000000082
:1018020000000000000000000000000000000000D6
:10181200000000000000000000000000006028003E
:10182200A90000000000000000000000000000000D
:1018320000000000000000000000000000000000A6
:10184200000000000000000000410106004600D137
:0618520000010004000586
:03001300022ED2E8
:102ED200C0E0C083C082C085C084C0925392FE907D
:102EE20001057401F0D092D084D085D082D083D0F5
:022EF200E032CC
:102C1000900146EBF0A3EAF0A3E9F0A3EDF07F14F6
:102C20001230347F0A123000900146E0FBA3E0FA34
:102C3000A3E0F9A3E0FD122A907F1A1230347F0A34
:0A2C40001230009001077402F02228
:0B2D5400900125EBF0A3EAF0A3E9F0EA
:102D5F00E4FFFEEEC39D5018900125E0FBA3E0FABF
:102D6F00A3E0F98E827583001205FF2FFF0E80E31B
:042D7F00EFF404FF6A
:012D8300222D
:042B5500AD07AC0616
:102B5900E4FBFAEB25E0FFEA33FE74D12FF582742A
:102B6900003EF583E0FEA3E06D7002EE6C600B0B96
:102B7900BB00010AEB64034A70D9C3EB9403EA640E
:0A2B890080948050037F01227F003A
:012B9300221F
:1014420090010AE4F0A304F0E4A3F0900105E06443
:1014520001600302151B900107E014601F14700362
:101462000214FD1460030215167B017A0079DD7DFA
:1014720006122A067F181230340215107B017A00F8
:1014820079DD7D28122A067F181230349000DFE0C1
:10149200FEA3E07C002400FFEC3EFE122B55EF7011
:1014A200739000DDE02405601214602F2402706442
:1014B2007B017A0079DD12217980599000E1E0FE0A
:1014C200A3E07C002400FFEC3EFEEF64034E704478
:1014D2007B017A0079DD122A4B80399000E1E0FE2F
:1014E200A3E07C002400FFEC3EFEEF64034E702478
:1014F2007B017A0079DD1220318019B2A77FC812F0
:101502003000B2A77F181230347F0A1230009001E7
:10151200077401F0E4900105F0900106E0601A7F83
:10152200E81230007B017A0079DD9000DEE02403CE
:10153200FD122C10E4900106F09001C6E0B40120E7
:101542007B017A0079AD9000AAE024FEFDA3E0FFC2
:1015520090012AE4F0A3EFF0122217E49001C6F002
:0615620090001AE0606A2F
:101568009000ABE0FF7E0012279C90010DEFF090F9
:1015780000AAE024FEFDA3E0FF900147E4F0A3EFFA
:10158800F0A37401F0A37401F0A3740EF07B017A48
:101598000079AD1220D990010DE075F00AA4241F3E
:1015A800F582E43400F583E0FCA3E0FD7B017A01D9
:1015B800790E12288F7B017A01790E90010FE024B1
:0A15C8000AFD122DE0E490001AF075
:0815D20090010AE0FEA3E0FF16
:0115DA0022EE
:101858004401FD00000000420201000042020300B2
:01186800007F
:10000300438910758DAE758B9F43884043A8882222
:03001B0002292F88
:10292F00C0E0C083C082C085C084C0925392FEC2F3
:10293F00AB900202E004F07006900201E004F09008
:10294F000202E0547F700E900204E004F0700690D3
:10295F000203E004F0758DAE758B9FD2ABD092D091
:0A296F0084D085D082D083D0E032FE
:102FEE00E4FDFCC3ED9FEC9E50070DBD00010C806F
:012FFE00F2E0
:012FFF0022AF
:10300000E4FEEEC39F500AE4FD0DEDB4DCFB0E8040
:01301000F1CE
:01301100229C
:082D2100900205EEF0A3EFF0B3
:102D290012307F900207EEF0A3EFF012307F90028D
:102D390007E0FCA3E0FDC3EF9DFFEE9CFED39002EC
:0A2D490006E09F900205E09E50E1B5
:012D5300225D
:09307F00900201E0FEA3E0FF2233
:0C303C00900203E0FEA3E0FFE4FCFD2294
:0618690043020F00000025
:03309600022FA066
:0B1DD0009001E7EBF0A3EAF0A3E9F0BC
:101DDB00E49001F3F0A3F090020FE0FBA3E0FAA371
:101DEB00E04A4B70079001F3F0A304F09001EEE092
:101DFB00FBA3E0FAA3E0F9C003C002C0019001E726
:101E0B00E0FBA3E0FAA3E0F99000021208FA9001BC
:101E1B00F1E0FEA3E0AA06F97B01C003C002C001FA
:101E2B009001E7E0FBA3E0FAA3E0F99000051208AC
:101E3B00FA9001E7E0FBA3E0FAA3E0F9EC8DF012D6
:101E4B0007D69001E7E0F9A3E0FAA3E090020FC9EF
:101E5B00F0A3EAF0A3E9F09001F1E0FEA3E0F58234
:101E6B008E83E0FEA3E0FFC3ED9FFFEC9EAB07FA72
:101E7B007C067D4AFE1206A5900212EFF07E007CD6
:101E8B00067D49120693AC02AD03C3ED9FFFEC9E9A
:101E9B00FE9001F3E07004A3E06401700312307450
:031EAB00E4FEFF53
:011EAE002211
:1024560090020FE0FBA3E0FAA3E04A4B606C900207
:102466000FE0F9A3E0FAA3E0900157C9F0A3EAF060
:10247600A3E9F090020FE4F0A3F0A3F0900157E077
:10248600FBA3E0FAA3E0F9AE02FF9000051208CA2A
:10249600AC02AD01900157E0FBA3E0FAA3E0F9908E
:1024A60000021208CA89828A8312097D90020FE00F
:1024B600FBA3E0FAA3E04A4B601090020FA3A3E04F
:0A24C600F9120726FFAEF012307481
:0124D00022E9
:08186F004102120041021300C6
:102FA000E4F5CDF5CCF5CBF5CA75C3C0F5C243C881
:052FB0009543C1082259
:0B3074008FC2EEF5C343C108D2BB229F
:03005B000225A7D4
:1025A700C0E0C0F0C083C082C085C084C09253928F
:1025B700FEC0D075D000C000C001C002C003C00477
:1025C700C005C006C007C2BB900213E004F090022A
:1025D70012E0FFA3E0B50708122456900213E4F0B7
:1025E700D2BBD007D006D005D004D003D002D0018B
:1025F700D000D0D0D092D084D085D082D083D0F0F4
:03260700D0E032EE
:102FB500526563762066726F6D204E4F44452D2510
:042FC500733A0A0051
:0C18770041001C0041001B0041001A0051
:1029790074FA12065F900001E4120671900002E4F5
:1029890075F0031207F5900004E4F5F01207F590CD
:102999000006E4F5F01207F5900008E4F5F01207D7
:1029A900F590000AE475F0031207F590000CE4F5C0
:0729B900F01207F57F002278
:102E0D00900004E475F001120789AF05900006ECFF
:102E1D008FF01207F5900008E4F5F01207F5900019
:0B2E2D000CE475F0011207897F002201
:083088007D0E122C107F0022C6
:102F5E00900001740112062C900002E475F0031229
:082F6E0007F51230887F0022F4
:101BD100E4900125F0A3F090001CE0FFC3900126E2
:101BE100E09F7480F8900125E0648098503D90005A
:101BF1000A120751FDACF0900125E0FEA3E0780246
:101C0100C333CE33CED8F92481F58274003EF583F7
:101C1100E0FEA3E06D7002EE6C6010900126E0041E
:101C2100F070B4900125E004F080AC90001CE0FF5E
:101C3100C3900126E09F7480F8900125E0648098AC
:101C41005057900004120751FDACF0900125E0FEC1
:101C5100A3E07802C333CE33CED8F92483F582745E
:101C6100003EF583E0FEA3E0C39DEE9C502890006A
:101C710004120751FDACF0900125E0FEA3E07802CB
:101C8100C333CE33CED8F92483F58274003EF58375
:101C9100ECF0A3ED80477F002290000A120751FD6E
:101CA100ACF0900125E0FEA3E07802C333CE33CE41
:101CB100D8F9FF2481F58274003EF583ECF0A3EDA1
:101CC100F0900004120751FD74832FF58274003ED9
:101CD100F583E5F0F0A3EDF090001CE004F07F0146
:011CE10022E0
:102E890074FB12065F900002E475F0031207F590D7
:102E99000006E475F0031207F5900008E4F5F01256
:052EA90007F57F002287
:10260A00900125EBF0A3EAF0A3E9F0900125E0FBA5
:10261A00A3E0FAA3E0F99000011205FFFF90012858
:10262A00E0FBA3E0FAA3E0F9900001EF1206719033
:10263A000008E475F001120789900125E0FBA3E088
:10264A00FAA3E0F990000A120751FF900128E0FB73
:10265A00A3E0FAA3E0F990000AE5F08FF01207F57B
:03266A007F0022CC
:102EF400900002E475F0031207F5AF05900004ECAE
:0D2F04008FF01207F57D0C122C107F0022BB
:10278B00EBF0A3EAF0A3E9F0900006120751FFAEBD
:01279B00F04D
:08279C00900143EEF0A3EFF001
:1027A400E4FFFE90001BE0FDC3EF9D7480F86E987B
:1027B400502F90002375F00AEF12084FEE75F00ABF
:1027C400A42583F583E0FCA3E0FD900143E0FAA394
:1027D400E0FBED6B7002EC6A60070FBF00010E8036
:0127E400C232
:0127E50022D1
:0322AE0090012577
:1022B10012278B7E00900125E0FBA3E0FAA3E0F951
:1022C100900002120751FDACF090001D75F00AEF6D
:1022D10012084FEE75F00AA42583F583ECF0A3ED07
:1022E100F090001BE0FDC3EF9D7480F8985001222F
:1022F10090000A120751FDACF090002175F00AEF31
:1023010012084FEE75F00AA42583F583ECF0A3EDD6
:10231100F0900006120751FDACF090002375F00A11
:10232100EF12084FEE75F00AA42583F583ECF0A3B4
:0A233100EDF090001BE004F0E0FF67
:01233B00227F
:03233C00900125E8
:10233F0012278B7E00900125E0FBA3E0FAA3E0F9C2
:10234F00900002120751FDACF090001F75F00AEFDC
:10235F0012084FEE75F00AA42583F583ECF0A3ED78
:10236F00F090001BE0FDC3EF9D7480F898500122A0
:10237F0090000A120751FDACF090002175F00AEFA2
:10238F0012084FEE75F00AA42583F583ECF0A3ED48
:10239F00F0900006120751FDACF090002375F00A83
:1023AF00EF12084FEE75F00AA42583F583ECF0A326
:0B23BF00EDF090001BE004F0E0FF22B6
:0B217900900122EBF0A3EAF0A3E9F0D4
:1021840090000A120751640345F070030222149070
:102194000122E0FBA3E0FAA3E0F9121BD1EF607087
:1021A400900122E0FBA3E0FAA3E0F91222AEAD070E
:1021B4007C00900122E0FBA3E0FAA3E0F990000682
:1021C400120751640345F07039C00390012804F0EC
:1021D400A37400F0A37400F0D00312260AAF059094
:1021E400001D75F00AEF12084FE475F00AA4258368
:1021F400F583E0FCA3E0FD7B017A007900122EF464
:10220400800E900122E0FBA3E0FAA3E0F9122F5E16
:022214007F0049
:0122160022A5
:0B2A4B00900122EBF0A3EAF0A3E9F0F9
:102A560012233C900122E0FBA3E0FAA3E0F99000E8
:102A66000A120751640345F0700790001A04F080BB
:102A760016EF75F00AA4241DF582E43400F583E010
:092A8600FCA3E0FD122EF47F0018
:012A8F002224
:102FC9007B017A00790C1229797A007900122E890D
:032FD9007F002254
:10288F00900143EBF0A3EAF0A3E9F0900143E0FBE2
:10289F00A3E0FAA3E0F9900002E475F0031207F544
:1028AF00AF05900004EC8FF01207F5C003C002C013
:1028BF0001900143E0FBA3E0FAA3E0F990000112BD
:1028CF0005FF240AFDD001D002D003122C107F0087
:0128DF0022D6
:0E20D900900143EBF0A3EAF0A3E9F0A3EDF0D1
:1020E700900149E0FBA3E0FAA3E0F974FC12065F54
:1020F700900149E0FBA3E0FAA3E0F9900002E47540
:10210700F0031207F5900006E475F0031207F59047
:102117000147E0FFA3E0900008CF8FF01207F5908A
:102127000146E0900001120671E4FFFE900146E0CF
:10213700FDC3EF9D7480F86E985034900143E0FB27
:10214700A3E0FAA3E0F98F828E831205FFFD9001C9
:1021570049E0FBA3E0FAA3E0240AF9E43AFAE92FFD
:10216700F9EA3EFAED12065F0FBF00010E80BD7F50
:012177000067
:012178002244
:0E221700900126EBF0A3EAF0A3E9F0A3EDF0AE
:10222500E490012CF090012AE0FEA3E0FF12279C28
:10223500AC0790001BE0FFECC39F504D900129E0D7
:10224500FDA3E0FFA3E0900147CFF0A3EFF0A37457
:1022550001F0A37401F0A3742FF0900126E0FBA315
:10226500E0FAA3E0F91220D9AF04EF75F00AA4242F
:102275001FF582E43400F583E0FCA3E0FD7B017AE1
:1022850001792F12288F7F01227B017A00790C902A
:10229500012AE0FCA3E0FD122E0D1230887B017AA5
:0822A50000790C7D0E122DE002
:0122AD00220E
:0B203100900122EBF0A3EAF0A3E9F01D
:10203C00900008120751640345F07053B2A690014A
:10204C0022E0FBA3E0FAA3E0F9900006120751FF8F
:10205C00900129E5F0F0A3EFF07BFF7A2F79B51210
:10206C000B96900122E0FBA3E0FAA3E0240AF9E42A
:10207C003AFAC002C001900122A3E0FAA3E0F99061
:10208C0000011205FFFDD001D002122DE0803B9023
:10209C000122E0FBA3E0FAA3E0240AF9E43AFAC037
:1020AC0002C001900122A3E0FAA3E0F99000011212
:1020BC0005FFFD900008120751FF90012AE5F0F092
:0C20CC00A3EFF0D001D0021222177F0019
:0120D80022E5
:10005E0002041FE86480F8E933E83360110460F0AD
:10006E00ED33EC337009E8FCE9FDEAFEEBFF220408
:10007E0060DED3EB9FEA9EE99DE8C2E78CF0C2F703
:10008E0095F0400CE8CCF8E9CDF9EACEFAEBCFFBCF
:10009E001203EA85D0F05804700320D5B3E804703B
:1000AE00075002B2D502042992D5EC0460F7E4CCD5
:1000BE00C0E0C398F8603B94186008400DD0E0FB98
:1000CE00020401E4FBFAC9FC8028E830E406E4C926
:1000DE00FBE4CAFCE830E305E4C9CACBFCE85407EC
:1000EE006010F8C3E913F9EA13FAEB13FBEC13FCF7
:1000FE00D8F130F52FC3E49CFCEF9BFFEE9AFEED9A
:10010E0099FDD0E0FBEF4E4D4C701222DB03020442
:10011E0026EC2CFCEF33FFEE33FEED33FDED30E736
:10012E00EB020401EF2BFFEE3AFEED39FDD0E0FBC2
:10013E0050130BBB0003020429ED13FDEE13FEEF6B
:08014E0013FFEC13FC02040195
:10015600EC4D6011E8497017ED33EC3304600DE4A3
:10016600FCFFFEFD22E933E8330470F802041F1297
:1001760003EA58046009E4CC248150062850090299
:100186000429284003020426C0E0EB4A7044B980E3
:1001960006D0E0FB020415EF4E701CBD8008EBFF95
:1001A600EAFEE9FD80EBE98DF0A4FEE5F002023FF0
:1001B600E9CDF9EAFEEBFFEF89F0A4FCE5F0CE8984
:1001C600F0A42EFFE435F0CD89F0A42DFEE435F041
:1001D6008067EF4E7005BD80D780C3EF8BF0A4AC6F
:1001E600F0EE8BF0A42CFCE435F0F8EF8AF0A42CAA
:1001F600E5F038FCE433CB8DF0A42CFCE5F03BF8BD
:10020600EE8AF0A42CFCE5F038F8E433CF89F0A4AC
:100216002CFCE5F038CF3400CE89F0A42FFFE5F0B2
:100226003EFEE433C98DF0A42EFEE5F039CD8AF00A
:10023600A42FFFE5F03EFEE43DFD33D0E0FB500782
:100246000BBB000F020429EC2CFCEF33FFEE33FE50
:06025600ED33FD0204017E
:10025C00020429EC5D046005E85904700302041FD4
:10026C001203EA580460F6EC4860F2EC7004FDFEF0
:10027C00FF22C860DB2481C85009C3986002500675
:10028C000204269850CAF582E9294B4A7005AB82C4
:10029C0002041575F0007C1A7880C3EF9BEE9AED82
:1002AC0099400DC3EF9BFFEE9AFEED99FDE842F0ED
:1002BC00DC23ACF0D0E0FFD0E0FED0E0FDAB822040
:1002CC00E7101BEB60BAEC2CFCEF33FFEE33FEEDCA
:1002DC0033FD020401E803F830E705C0F075F000C7
:1002EC00EF2FFFEE33FEED33FD40B830E7C280AAAE
:1002FC0074F8CC6480CCC86480C8F58204604FC3A9
:10030C00EB9FF5F0EA9E42F0E99D42F0E89C45F047
:10031C00603C501DE5825FFFE582D313CB5BCBF4D1
:10032C002B5582FB50280ABA002409B900200880FA
:10033C001DE5825BFBE582D313CF5FCFF4C3132F94
:10034C005582FF50090EBE00050DBD00010CC3EB1C
:10035C009FF5F0EA9E42F0E99D42F0E89C45F06082
:09036C0007CC4820E701B3EC22A4
:1003750075F020800E75F010800575F0087D007E03
:10038500007F003392D530D503120822EC3340109C
:10039500EF33FFEE33FEED33FDEC33FCD5F0ED220C
:0E03A500E5F0247EA2D513CC92E7CDCEFF2248
:1003B300EDD2E7CD33EC3392D524814006E4FFFE42
:1003C300FDFC22FCE4CFCECDCC24E0501174FF80A1
:1003D300EDC3CC13CCCD13CDCE13CECF13CF04703E
:0703E300F030D5DE02082214
:100B2B00E5082429F582E43401F583E005082290D9
:100B3B000126300703900129E475F00112085B02CE
:100B4B0005E62000E97F2ED2008018EF540F249089
:100B5B00D43440D4FF30040BEF24BFB41A0050033D
:100B6B002461FFE50960021509050CE50C7002050F
:100B7B000B30070E900126E475F00112085BEF02B3
:100B8B00065F0230907403D2078003E4C207F508B6
:100B9B00900126120872E4F509F50BF50CE50960D6
:100BAB00077F20120B6E80F5750AFFC201C200C2CF
:100BBB0002C203C205C206C208120B3AFF700D3007
:100BCB0007057F00120B7FAF0CAE0B22B4255FC263
:100BDB00D5C204120B3AFF24D0B40A00501A75F098
:100BEB000A780930D50508B6FF0106C6A426F620FB
:100BFB00D5047002D20380D924CFB41A00EF50046D
:100C0B00C2E5D204020E71D20180C6D20080C0D2DE
:100C1B000280BCD2D580BAD20580B47F20120B6E75
:100C2B002002077401B5090040F1120B2BFF120BC8
:100C3B006E020BA8D208D2068095120B2BFB120B5F
:100C4B002BFA120B2BF94A4B7006796F7A0F7BFF3D
:100C5B0020022EE509602A7E008E82758300120524
:100C6B00FF60060EEE650A70F0C2D5EBC0E0EAC07D
:100C7B00E0E9C0E0EE120ED2D0E0F9D0E0FAD0E01D
:100C8B00FB1205E6FF60AAEBC0E0EAC0E0E9C0E0BA
:100C9B00120B6ED0E02401F9D0E03400FAD0E0FB67
:100CAB00E50A0460DCD50AD98087D20280A2120E35
:100CBB00B460F7E50A700104120434A90A600DE56B
:100CCB000A600914F50A120F5CEF60F3EA30E702D1
:100CDB00F404C3995079EAF4250A0430E701E404DB
:100CEB00F50A800D120EB460C1EA050A250A12043A
:100CFB0034EA900155F030E701E4250A04D50A04E3
:100D0B0020050114120ED2E4C0E0120F5C900155C5
:100D1B00E0601320E70714F0120B56802204F0D08A
:100D2B00E014C0E07F00120B56E50A6007120B4D72
:100D3B00150A800B300503120B4DD0E0020BA8D027
:100D4B00E00480C4120EB4609EE50A0412043490D1
:100D5B000155EAF0E50A2005026001042404120E95
:010D6B00D2B5
:100D6C0074FF04C0E0120F5C120B56E50A2005025A
:100D7C006003120B4DD0E0B50AE87F45120B609072
:100D8C000155E07F2B30E7047F2DF404C0E0120BFB
:100D9C006ED0E075F00A84C0F0120B57D0E0120B45
:100DAC0057020BA8791080027908C206C208800885
:100DBC00D2D5790A8004790AC2D5E50A047002F505
:100DCC000AE4FAFDFEFF120B2BFC7B082001131228
:100DDC000B2BFD7B1030000A120B2BFE120B2BFF82
:100DEC007B20EC3382D592D55013C3E43000069FA0
:100DFC00FFE49EFEE42001039DFDE49CFCE4CBF8A3
:100E0C00C201EC700CCFCECDCCE824F8F870F38096
:100E1C0017C3EF33FFEE33FEED33FDEC33FCEB3356
:100E2C00FB994002FB0FD8E9EB300105F8D0E0C488
:100E3C0048B201C0E00AEC4D4E4F78207B0070C2E6
:100E4C00EAB50A0040BCC0E0120ED4D0F0D0E020CD
:100E5C000104C4C0E0C4B201C0F0120B57D0F0D5ED
:100E6C00F0EB020BA81209530C45530DB0580C169D
:100E7C004C0C12420DB44F0DBC440DBC490C2B4311
:100E8C000DC2550CEF460D4F450CB9470F8F500C4A
:100E9C001A2D0C1E2E0C412B0C22230C3F200F78EC
:100EAC002A0BDA4800000C39E50AB4FF03750A0670
:100EBC00120B2BFC120B2BFD120B2BFE120B2BFF10
:100ECC0090014E020471790AA2D520031430050951
:100EDC00B910020404B9080104A2D520060250017D
:100EEC00042002689202B509005034C0E07F203023
:100EFC0003197F30A20272067205500F120F2BC21B
:100F0C0002C206C205C2087F30800F300503E9C05B
:100F1C00E0120B6E300503D0E0F9D0E0B509CC300F
:100F2C0005177F30B9100C120B6E7F583004077FF9
:100F3C00788003B90803120B6E3002057F2D020B6B
:100F4C006E7F202008F87F2B2006F322920280CFA0
:100F5C007F00B40700500B244EF582E43401F58376
:100F6C00E0FF22286E756C6C2900D201120B2B301D
:100F7C0001F8C201780930D50108F6020BDA2D50C0
:100F8C00434958120B2B2403B405004001E4900F85
:100F9C008A93120B5F743A120B5FD2037509040229
:020FAC000DB086
:1003EA00E9D2E7C933E833F892D5EDD2E7CD33EC59
:0703FA0033FC5002B2D522D2
:10040100EC30E7100FBF000C0EBE00080DBD00045C
:100411000BEB6014A2D5EB13FCED92E7FD2274FF08
:10042100FCFDFEFF22E480F8A2D574FF13FC7D8061
:03043100E480EF75
:10043400F920E73624F950037907E4F42402FBE5B4
:1004440082158270021583DBF6E024FB501BE96001
:1004540014E4F0E582158270021583E004F0B40A16
:0D04640008E4F0D9EE7401F00A22C2D5229E
:10047100ED33EC3392D5FA602AB4FF33EDC2E77B5A
:10048100FF60067A047996E4227A04799F20D504E4
:100491007A04799A224E614E002B494E46002D492D
:1004A1004E4600E47A08F0A3DAFC7B00740722C010
:1004B10083C082ECC0E0EDC0E0EEC0E0EFC0E0EA56
:1004C10075F010A4CAABF075F04DA42BFBE435F028
:1004D100FCEA2410FAEB34C5FBEC34D9FCEDC2E79D
:1004E100FF75F056A4F42411C5F0F434C58FF0A4BF
:1004F1002AE5F03BE43CF020E7141205A6D0E0FF2A
:10050100D0E0FED0E0FDD0E0FC12025F8014F404E4
:100511001205A6D0E0FFD0E0FED0E0FDD0E0FC1255
:100521000156D082D083E0FAEDD2E7CD33EC33240B
:1005310082FBE4C3CF33CFCE33CECD33CD33DBF328
:100541007B0775F00A846004F0A31B0AE5F0F0A3B1
:100551008FF0740AA4FFACF08EF0740AA42CFEACE8
:10056100F050010C8DF0740AA42CFDE435F0F0A3D9
:05057100DBDE7407222F
:100576003F8000004120000042C80000447A00008D
:10058600461C400047C35000497424004B1896800F
:100596004CBEBC205A0E1BCA6753C21C749DC5AE06
:1005A600FB60065407601C23231205D4EB54386005
:1005B600091205C01205CF120156ECF8EDF9EEFA54
:1005C600EFCB22EB1205CF80F1543803241C9005A3
:1005D60076FE93FC0EEE93FD0EEE930ECE93FF2267
:1023D6000228E0E493A3F8E493A34003F68001F215
:1023E60008DFF48029E493A3F85407240CC8C33308
:1023F600C4540F4420C8834004F456800146F6DFD7
:10240600E4800B0102040810204080901739E47E16
:10241600019360BCA3FF543F30E509541FFEE493CB
:10242600A360010ECF54C025E060A840B8E493A392
:10243600FAE493A3F8E493A3C8C582C8CAC583CABD
:10244600F0A3C8C582C8CAC583CADFE9DEE780BE75
:011883000064
:1005E600BB010689828A83E0225002E722BBFE0213
:0905F600E32289828A83E4932246
:1005FF00BB010CE58229F582E5833AF583E02250B1
:10060F0006E92582F8E622BBFE06E92582F8E222FA
:0D061F00E58229F582E5833AF583E4932214
:10062C00BB010FF8E58229F582E5833AF583E028D2
:10063C00F0225009C58229F8E58226F622BBFE0974
:10064C00C58229F8E22582F222F8EA2583F583E9AE
:03065C00932822BE
:10065F00BB010689828A83F0225002F722BBFE017A
:02066F00F32274
:10067100F8BB010DE58229F582E5833AF583E8F0BF
:10068100225006E92582C8F622BBFE05E92582C86B
:02069100F22253
:10069300EF8DF0A4A8F0CF8CF0A428CE8DF0A42E7B
:0206A300FE2235
:1006A500BC000BBE0029EF8DF084FFADF022E4CC39
:1006B500F875F008EF2FFFEE33FEEC33FCEE9DEC02
:1006C500984005FCEE9DFE0FD5F0E9E4CEFD22ED48
:1006D500F8F5F0EE8420D21CFEADF075F008EF2F92
:1006E500FFED33FD4007985006D5F0F222C398FD83
:0506F5000FD5F0EA2220
:1006FA00C5F0F8A3E028F0C5F0F8E582158270028B
:06070A001583E038F02227
:10071000A3F8E0C5F025F0F0E5821582700215839C
:06072000E0C838F0E822F9
:10072600BB010A89828A83E0F5F0A3E0225006879E
:10073600F009E71922BBFE07E3F5F009E319228960
:0B074600828A83E493F5F07401932293
:10075100BB0110E58229F582E5833AF583E0F5F0E6
:10076100A3E0225009E92582F886F008E622BBFEC3
:100771000AE92582F8E2F5F008E222E5832AF58309
:08078100E993F5F0A3E99322CE
:10078900BB010DC58229C582C5833AC5830206FA14
:100799005011C58229F808E5F026F618F5F0E5822A
:1007A90036F622BBFE11C58229F808E225F0F5F0DC
:1007B900F218E23582F222F8E58229F582E5832AE8
:0D07C900F58374019325F0F5F0E4933822D8
:1007D600BB010A89828A83F0E5F0A3F0225006F76E
:0F07E60009A7F01922BBFE06F3E5F009F319226B
:1007F500F8BB0111E58229F582E5833AF583E8F036
:10080500E5F0A3F0225009E92582C8F608A6F022F2
:0D081500BBFE09E92582C8F2E5F008F222D9
:0E082200C3E49FFFE49EFEE49DFDE49CFC22E7
:10083000E8600FECC313FCED13FDEE13FEEF13FFA6
:03084000D8F122CA
:0C084300ECF0A3EDF0A3EEF0A3EFF02228
:0C084F00A42582F582E5F03583F58322B4
:10085B00F8E0FBA3A3E0F925F0F0E5821582700226
:07086B001583E0FA38F022CA
:09087200EBF0A3EAF0A3E9F02287
:10087B00BB011A89828A83D0F0D0E0F8D0E0F9D09E
:10088B00E0FAD0E0FBE8C0E0C0F00208725016E9D5
:10089B00F8D083D082D0E0F9D0E0FAD0E0FBC08270
:1008AB00C083020AFBBBFE16E9F8D083D082D0E0EE
:0F08BB00F9D0E0FAD0E0FBC082C083020B162216
:1008CA00BB010DE58229F582E5833AF583020B0423
:1008DA005007E92582F8020AF2BBFE07E92582F8E9
:1008EA00020B0DE58229F582E5833AF583020B1F97
:1008FA00BB0120E58229F582E5833AF583D0F0D061
:10090A00E0F8D0E0F9D0E0FAD0E0FBE8C0E0C0F0CF
:10091A000208725018E92582F8D083D082D0E0F913
:10092A00D0E0FAD0E0FBC082C083020AFBBBFE180B
:10093A00E92582F8D083D082D0E0F9D0E0FAD0E07D
:09094A00FBC082C083020B1622DF
:10095300D083D082F8E4937012740193700DA3A333
:1009630093F8740193F5828883E473740293686047
:06097300EFA3A3A380DF47
:060979008A838982E47309
:10301200EFC39461400AEF947B5005EF24E0FF2256
:01302200228B
:10097F00E3F5F009E208B5F06D606B80F3E3F5F095
:10098F0009E608B5F060605E80F387F009E608B508
:10099F00F054605280F487F009E208B5F0486046E1
:1009AF0080F488828C8387F009E0A3B5F038603635
:1009BF0080F488828C8387F009E493A3B5F02760D5
:1009CF002580F388828C83E3F5F009E0A3B5F01658
:1009DF00601480F388828C83E3F5F009E493A3B568
:1009EF00F004600280F2020A96808580E7808E8094
:1009FF00D28032801580628074809B80B5808B801E
:100A0F00A1804580668030020AA288848C85898205
:100A1F008A83E493F5F0A30592E493A31592B5F0BE
:100A2F0066606480ED89828A83E493F5F0A3E2081F
:100A3F00B5F054605280F289828A83E0F5F0A3E624
:100A4F0008B5F043604180F389828A83E0F5F0A313
:100A5F00E208B5F032603080F389828A83E493F53F
:100A6F00F0A3E608B5F020601E80F2803F88848CEA
:100A7F008589828A83E493F5F0A30592E0A315920A
:100A8F00B5F004600280EE7FFFB5F0020F22400246
:100A9F007F012288848C8589828A83E0F5F0A30503
:100AAF0092E0A31592B5F0DF60DD80EF88848C852E
:100ABF0089828A83E0F5F0A30592E493A31592B59A
:100ACF00F0C560C380EE88F0ED2402B4040050B787
:100ADF00F582EB2402B4040050AD2323458223900A
:030AEF0009F87390
:090AF200E6FB08E6FA08E6F92229
:090AFB00EBF608EAF608E9F62220
:090B0400E0FBA3E0FAA3E0F922F2
:090B0D00E2FB08E2FA08E2F92219
:090B1600EBF208EAF208E9F22210
:0C0B1F00E493FB740193FA740293F92232
:00000001FF
