:030000000225FBDB
:0C25FB00787FE4F6D8FD75817B02264253
:0A3FF600FFFFFFFFFFFFF75AA5AF22
:10333F007274696D65722063616C6C206261636B7E
:10334F000A0074657374207072696E74660A006186
:10335F003731333920696E697469616C2066616930
:0C336F006C210A007265672025640A00CA
:0511F4004202C50000ED
:102A67007BFF7A33793F120AE1B2A6AFCD7E00EF42
:102A77007F00FEADCC7C00EF2DFFEE3CFE9002C543
:102A8700EEF0A3EFF07B017A0279C7C003C002C062
:102A9700019002C5E0FEA3E0FFEF24FAFDEE34FF4C
:102AA700FC90027CE4F0A37401F07BFF7A2A79673B
:102AB70090027EEBF0A3EAF0A3E9F07E027FC590D7
:102AC7000281EEF0A3EFF0D001D002D003121EA3D3
:012AD70022DC
:10268700900332E4F0A3E4F075865A1235981235B8
:102697006F1228121200167BFF7A337951120AE162
:1026A7007F0A1231BB12345C7F0A1231BB7F217E55
:1026B700807DED7C43122F2AEF60097BFF7A337907
:1026C7005E120AE17F1812353A7F0A1231BB7F008A
:1026D7001231FF900332EEF0A3EFF07BFF7A3379EC
:1026E70073900332E0FEA3E0FF900205EEF0A3EF44
:1026F700F0120AE11223BE7F0A1231BB121B478078
:06270700F3E47E007F00F8
:01270D0022A9
:1033B700900308EFF0900309ECF0A3EDF0C2A090A2
:1033C7000308E0FFEF4400FF900308EFF0900308C5
:1033D700E0FF122EDD7F017E001233F1900309E03A
:0A33E700FEA3E0FF122E33D2A02255
:0531FF0090030BEFF04E
:1032040090030CE4F0A3E4F0C2A090030BE0FFEF02
:103214004480FF90030BEFF090030BE0FF122EDDD0
:103224007F017E001233F112298090030CEEF0A38B
:0C323400EFF0D2A090030CE0FEA3E0FF3E
:01324000226B
:0D2D850090030EEFF090030FECF0A3EDF0C3
:102D920090030EE0FF7E007870A60608A607787002
:102DA200E6FE08E6FFEF7F00C454F0FE9001F0E07B
:102DB200FCA3E0FDEE4CFEEF4DFF7870A60608A6E0
:102DC200077870E6FC08E6FD7F071233B790030F21
:0A2DD200E0FCA3E0FD7F081233B718
:012DDC0022D4
:0D2D2900900311EFF0900312ECF0A3EDF019
:102D3600900311E0FF7E007872A60608A607787257
:102D4600E6FE08E6FFEF7807C333CE33CED8F9FFA9
:102D56009001F0E0FCA3E0FDEE4CFEEF4DFF787233
:102D6600A60608A6077872E6FC08E6FD7F0712337A
:0E2D7600B7900312E0FCA3E0FD7F091233B713
:012D8400222C
:052DDD0090033CEFF043
:102DE20090033CE0FF7E007874A60608A60778747C
:102DF200E6FE08E6FFEF7F00C454F0FE9001F0E02B
:102E0200FCA3E0FDEE4CFEEF4DFF7874A60608A68B
:102E1200077874E6FC08E6FD7F071233B77F0812D5
:102E220031FF7874A60608A6077874E6FE08E6FF66
:012E3200227D
:10248C00781F7600781FE6FFEFC394085024781F5E
:10249C00E6FF75F002EFA424E2F582E5F03401F5D5
:1024AC0083E0FCA3E0FD781FE6FF1233B7781F062C
:1024BC0080D2781F760A781FE6FFEFC39410502461
:1024CC00781FE6FF75F002EFA424E2F582E5F03404
:1024DC0001F583E0FCA3E0FD781FE6FF1233B7782B
:1024EC001F0680D2781F7600781FE6FFEFC394108A
:1024FC005024781FE6FF75F002EFA424B8F582E5AE
:10250C00F03401F583E0FCA3E0FD781FE6FF122D0B
:10251C0085781F0680D2781F7600781FE6FFEFC300
:10252C0094055024781FE6FF75F002EFA424D8F52B
:10253C0082E5F03401F583E0FCA3E0FD781FE6FFB3
:08254C00122D29781F0680D230
:012554002264
:101D31007F001231FF781DA60608A607900200E079
:101D4100FEA3E0FFEE4408FCEF4402FD7F0F1233D7
:101D5100B77F0F1231FF781DA60608A607781DE68A
:101D6100FE08E6FFEE5408FEEF5402FFEF4E70E16D
:101D71007F0E1231FF781DA60608A607781DE6FE24
:101D810008E6FFEEC4F854F0C868FEEFC4540F48EB
:101D9100FFEF5401FF781AA607781AE6FFEF6003F8
:101DA1007F04227F0A122DDD781DA60608A607787A
:101DB1001DE6FE08E6FFEEC4F854F0C868FEEFC465
:101DC100540F48FFEF5401FF781CA607781CE6FF6B
:101DD100EF60037F04227D007C4C7F0C1233B77DC2
:101DE100007CF87F02122D859001B8E0FEA3E0FF90
:101DF100EE44E0FCAD077F00122D85900200E0FE6D
:101E0100A3E0FFEE4410FCAD077F0F1233B77F0F45
:101E11001231FF781DA60608A607781DE6FE08E622
:101E2100FFEE20E4E99001FAE0FCA3E0FD7F0C1253
:101E310033B79001BCE0FCA3E0FD7F02122D859039
:101E410001B8E0FCA3E0FD7F00122D85900200E0C7
:101E5100FEA3E0FFAC06EF4404FD7F0F1233B77F12
:101E61000F1231FF781DA60608A607781DE6FE08A9
:101E7100E6FFEF20E2E97F0E1231FF781DA606088A
:101E8100A607781DE6FE08E6FFEEFF7E00EF54018F
:101E9100FF781BA607781BE6FFEF60037F04227F14
:011EA1000040
:011EA200221D
:061FED009002E012076102
:101FF3007BCD7ACC794C78419002E0E0FCA3E0FD04
:10200300A3E0FEA3E0FF12025F780D120755780DDF
:1020130012073C1203B37811A6077811E6FCE41209
:10202300037FC004C005C006C007780D12073CD06B
:1020330003D002D001D00012006178121207557F3D
:10204300007E007D807C47781212074812015612E9
:1020530003B37816A60608A6077F1412353A900133
:10206300E8E0FEA3E0FFEE547FFE7818A60608A67C
:10207300077818E6FC08E6FD7F031233B79001EEFC
:10208300E0FEA3E0FFEE540FFE7818A60608A607AD
:102093007818E6FC08E6FD7F061233B77F007E0062
:1020A3007D577C449002E0E0F8A3E0F9A3E0FAA3B3
:1020B300E0FB1202FC50159001EAE0FEA3E0FFEE04
:1020C30054EFFE7818A60608A60780139001EAE0ED
:1020D300FEA3E0FFEE4410FE7818A60608A60778D4
:1020E30018E6FC08E6FD7F041233B79001E4E0FE36
:1020F300A3E0FF7F007818A60608A6077811E6FF7D
:102103007E007818E6FC08E6FDEE4CFCEF4DFD7F03
:10211300011233B77816E6FC08E6FD7F021233B7E7
:092123007D007C007F02122D29D1
:01212C002290
:10255500786076FF786376FF0876FF9001BCE0FE31
:10256500A3E0FFAC06EF4410FD7F02122D8590011C
:10257500D6E0FEA3E0FFAC06EF4401FD7F0F122D70
:10258500857F0F122DDD7E00EF5401FF7861A606D1
:1025950008A6077861E6FE08E6FFEF4E601078634F
:1025A50008E616188606700116FFEF4E70D37F0FEA
:1025B500122DDDEE5403FEEEC313FEEF13FF78611B
:1025C500A60608A6077861E6FE08E6FFD3EF94BAEB
:1025D500EE940040137861E6FE08E6FFC3EF94C66B
:1025E500EE940050037F05227860E616FFEF600346
:0525F5000225737F04C4
:0125FA0022BE
:10353A0090033DEFF0C2A090033DE0FF122EDDD2D2
:02354A00A022BD
:102F2A009002E4120761D2A0C2977F7012353A7FED
:102F3A000A1231BB12248C7F0A7E001228907F8CE1
:102F4A007EC57D757C34122BAA7F017E00122890E3
:102F5A009002E4E0FCA3E0FDA3E0FEA3E0FF121F61
:0C2F6A00ED7F0A7E00122890121D31221B
:102BAA009002E8120761C2A07F20122EDD9002E88F
:102BBA00E0FCA3E0FDA3E0FEA3E0FF7818120729DA
:102BCA00122EDD9002E8E0FCA3E0FDA3E0FEA3E004
:102BDA00FF7810120729122EDD9002E8E0FCA3E02C
:102BEA00FDA3E0FEA3E0FF7808120729122EDD906C
:102BFA0002E8E0FCA3E0FDA3E0FEA3E0FF122EDD65
:052C0A00D2A07F0022B2
:102F7600786776000876007867E6FE08E6FF900137
:102F8600F0E0FCA3E0FDEC54F7FCED54CFFDEE4C75
:102F9600FEEF4DFF7867A60608A6077867E6FC08E9
:102FA600E6FD7F071233B77F091231FF7865A60663
:0A2FB60008A6077865E6FE08E6FFAE
:012FC00022EE
:10212D0090033EEFF07F1412353A7F141231BB90BD
:10213D0001F0E0FEA3E0FFAC06EF54FEFD7F0712B9
:10214D0033B790033EE0FFEF120871216B02218837
:10215D000A21A53221C26421FC96000021E17D21D6
:10216D007C667F001233B77DD47C187F0A1233B79B
:10217D007D057CF57F00122D8580747D217C127F7D
:10218D00001233B77DD47C187F0A1233B77D067CDD
:10219D00F77F00122D8580577D237C007F00123341
:1021AD00B77DD07C187F0A1233B77D067CF67F0091
:1021BD00122D85803A7D217C007F001233B77DD4AE
:1021CD007C187F0A1233B77D067CF77F00122D85B0
:1021DD00801D801B9001F0E0FEA3E0FFAC06EF44F4
:1021ED0001FD7F071233B77F141231BB7F0122909F
:1021FD0001F0E0FEA3E0FFAC06EF4401FD7F071206
:0A220D0033B77F141231BB7F0022AB
:052C6E0090033FEFF0B0
:102C73007F1412353A9001D2E0FEA3E0FF7F007883
:102C830076A60608A60790033FE0FF7E00EF24FF29
:102C9300FFEE34FFFE7876E6FC08E6FDEE4CFCEF33
:102CA3004DFD7F0D122D859001CCE0FEA3E0FFEEDC
:102CB30054C0FE7876A60608A6077876E6FC08E6F2
:082CC300FD7F0A122D857F0040
:012CCB0022E6
:102C0F00900340EFF0900340E0FFEF1208712C2784
:102C1F00022C3E0400002C689001FEE0FEA3E0FFB2
:102C2F00EE54BFFCEF54FBFD7F0E122D85802D90CF
:102C3F0001FEE0FEA3E0FFEE54BFFCEF54FBFD7F6F
:102C4F000E122D859001FEE0FEA3E0FFAC06EF44CF
:0F2C5F0004FD7F0E122D8580037F01227F00224E
:10309F009002ECEBF0A3EAF0A3E9F09002EFEDF071
:1030AF007F6012353A7F011231BBC2A07F40122ED2
:1030BF00DD9002EFE0FF14F0EF60199002ECE0FBFF
:1030CF00A3E475F0011206BBA9F0FA1205E6FF1290
:0730DF002EDD80DDD2A022EE
:1030E6009002F0EBF0A3EAF0A3E9F09002F3EDF022
:1030F6007FE012353A7F011231BBC2A07FC0122E8B
:10310600DD9002F3E0FF14F0EF6019122CCC900270
:10311600F0E0FBA3E475F0011206BBA9F0FAEF128A
:07312600062C80DDD2A0227F
:05270E00900341EFF013
:10271300900341E0FFEFC39402400B900341E0FFBD
:10272300EFD3940740037F01227F1412353A9001BF
:10273300EAE0FEA3E0FFEF54F0FF7878A60608A6D0
:1027430007900341E0FF7E00EF25E0FFEE33FE78C4
:1027530078E6FC08E6FDEE4CFEEF4DFFAC06EF44D9
:1027630001FD7F04122D857F0A7E001233F17F0164
:10277300122DDD7E00EF5480FFEF7807CEC313CE1A
:0E27830013D8F9FFEF4E70047F0180027F0033
:012791002225
:10279200786E76FF0876FF7F1812353A9001FAE0DC
:1027A200FEA3E0FFEE54FEFCAD077F0C1233B77FB1
:1027B2000F1231FFAC06EF4401FD7F0F1233B77FDA
:1027C2000F1231FFEF5401FF786DA607786E08E60D
:1027D20016188606700116FFEF4E6007786DE6FF49
:1027E200EF70DC786EE6FE08E6FFD3EF9400EE941D
:1027F20000400F7F0C1231FFEF54FFFF786DA607E8
:0F2802008004786D76007F1412353A786DE6FF0A
:0128110022A4
:102FC100122555EFB404037F04227F1412353A7D94
:102FD100457C007F08122D857D7F7C027F01122DAB
:102FE100859001FCE0FEA3E0FFEE4404FCAD077F09
:102FF1000D1233B7900200E0FEA3E0FFEE4402FCA5
:0A300100AD077F0F1233B77F0022E6
:10300B007F1412353A7D457C007F08122D857D0596
:10301B007CFC7F01122D85122555EFB404037F0430
:10302B00229001BCE0FEA3E0FFAC06EF4410FD7F55
:10303B0002122D85900200E0FEA3E0FFEE4402FC9D
:0A304B00AD077F0F1233B77F00229C
:103055007F1412353A7D4D7C007F08122D857D0544
:103065007CFC7F01122D85122555EFB404037F04E6
:10307500229001BCE0FEA3E0FFAC06EF4430FD7FEB
:1030850002122D85900200E0FEA3E0FFEE4402FC53
:0A309500AD077F0F1233B77F002252
:1011F900602001E200210A24B80500000A20002429
:10120900000000010000000018D470094400080023
:10121900484520C0602001B8F7060000000011070A
:1012290001700201400F2AC00045D281000408253F
:101239000127003F155F00004A01D8037F840000A1
:051249000000000000A0
:0D357F0053FBFB53F3FB758F0843A8842218
:10345C0053FBFB43F30453FBFD43F30243FB0153C8
:10346C00F3FE43FA8053F27F53E47E43FA4053F267
:0E347C00BF53FADF53F2DF12357F1235AC2258
:03001E00C2A0225B
:0335AC00D2A02288
:1034B000900342EFF0900342E0FFEFB4010753FAAC
:0F34C000BF43F2402243FA4053F2BF53E4BE220F
:052EDD00900334EFF04A
:102EE200900335E4F0900335E0FFEFC394085037C8
:102EF200900334E0FFEF30E704D2968002C2967F5F
:102F0200017E001233F1D2977F017E001233F1C2AB
:102F120097900334E0FFEF25E0FF900334EFF09049
:072F22000335E004F080BE5E
:012F29002285
:082E3300900314EEF0A3EFF090
:102E3B00900316E4F0900316E0FFEFC39410503CA0
:102E4B00900314E0FEA3E0FFEE30E704D29680027D
:102E5B00C296D2977F017E001233F1C29790031472
:102E6B00E0FEA3E0FFEF25E0FFEE33FE900314EE50
:0C2E7B00F0A3EFF0900316E004F080B923
:012E87002228
:102CCC00900337E4F07F011234B0900336E4F090B7
:102CDC000336E0FFEFC39408503830961490033756
:102CEC00E0FFEF25E0FFEF4401FF900337EFF080AA
:102CFC000E900337E0FFEF25E0FF900337EFF0D2A3
:102D0C00977F017E001233F1C297900336E004F0F6
:0C2D1C0080BD7F001234B0900337E0FF50
:012D28002288
:10298000900318E4F0A3E4F07F011234B090031731
:10299000E4F0900317E0FFEFC39410504A30961D07
:1029A000900318E0FEA3E0FFEF25E0FFEE33FEEF1B
:1029B0004401FF900318EEF0A3EFF0801790031886
:1029C000E0FEA3E0FFEF25E0FFEE33FE900318EEFC
:1029D000F0A3EFF0D2977F017E001233F1C29790FF
:1029E0000317E004F080AB7F001234B0900318E0CE
:0429F000FEA3E0FF63
:0129F40022C0
:0533010090031AEFF03B
:1033060090031BE4F0A3E4F090031BE4F0A3E4F0C5
:1033160090031AE0FF7E0090031BE0FCA3E0FDC3D0
:10332600ED9FEC9E5012000090031CE004F0700626
:0833360090031BE004F080D8B5
:01333E00226C
:082890009002CFEEF0A3EFF07F
:102898009002D1E4F0A3E4F09002D3E4F0A3E4F0D2
:1028A8009002D1E4F0A3E4F09002CFE0FEA3E0FFB1
:1028B8009002D1E0FCA3E0FDC3ED9FEC9E50419057
:1028C80002D3E4F0A3E4F09002D3E0FEA3E0FFC358
:1028D800EF94DCEE940050180000000000000000A7
:1028E8009002D4E004F070069002D3E004F080D7A0
:1028F8009002D2E004F070069002D1E004F080A8C3
:0129080022AC
:10124E0060200236000000000000000000000000D8
:10125E000000000000000000000000000000000080
:10126E00000000004102340041023500410232000C
:04127E0041023300F6
:10281200D28543F920C29FD29ED29C7E007F05EFD3
:102822008EF0120897283F0001284C000228590018
:102832000328660004287300050000288075BA0387
:1028420075AA98438780D2DF803F75BA0375AACCF8
:10285200438780D2DF803275BA0375AAE643878048
:10286200D2DF802575BA0375AAEF438780D2DF8055
:102872001875BA0375AAF7438780D2DF800B75BA41
:0E2882000375AA98438780D2DFD2ACD2AF2272
:030023000229F5BA
:1029F500C0E0C083C082C085C084C0925392FEC02F
:0B2A0500D075D000C006C00730984418
:102A1000900343E4F0C298C29A900232E0FFEF04C0
:102A2000FFEF541FFF900343EFF0900233E0FF905D
:102A30000343E0FEEE6F601C900232E0FF74362F1D
:102A4000F582E43402F583E599F0900343E0FF90CA
:042A50000232EFF06F
:102A5400D007D006D0D0D092D084D085D082D08375
:032A6400D0E0328D
:1034E800900344EFF0900344E0FF8F993099FD304A
:0534F8009902C29922B7
:1034FD00900345EFF0900345E0FF8F993099FD3033
:05350D009902C29922A1
:10312D009002F4EBF0A3EAF0A3E9F09002F7EDF0D2
:10313D00787A7600787A76009002F7E0FF787AE672
:10314D00FEEEC39F50209002F4E0FBA3E0FAA3E053
:10315D00F9787AE6FF8F827583001205FFFF12342E
:06316D00FD787A0680D215
:013173002239
:103174009002F8EBF0A3EAF0A3E9F09002FBEDF083
:10318400787B7600787B76009002FBE0FF787BE624
:10319400FEEEC39F50209002F8E0FBA3E0FAA3E008
:1031A400F9787BE6FF8F827583001205FFFF1234E6
:0631B400E8787B0680D2E2
:0131BA0022F2
:10337B0090031DEBF0A3EAF0A3E9F090031DE0FB33
:10338B00A3E0FAA3E0F91205E6FFEF601E90031D20
:10339B00E0FBA3E0FAA3E0F91205E6FF1234E89094
:0C33AB00031EE475F0011206A580D0227C
:1022EC009002DBEBF0A3EAF0A3E9F09002DEECF055
:0322FC00A3EDF05F
:1022FF00786B76FF0876FF786976007869E6FF7E5F
:10230F00009002DEE0FCA3E0FDC3EF9DEE9C4003D6
:10231F000223B6786BE6FE08E6FF9002DBE0FBA334
:10232F00E0FAA3E0F97869E6FD8D82758300120566
:10233F00FFFD7C00EE6CFEEF6DFF786BA60608A626
:10234F0007786A7600786AE6FFEFC39408505278F0
:10235F006BE6FE08E6FFEF30E02D786BE6FE08E651
:10236F00FFEEC313FEEF13FF786BA60608A60778E0
:10237F006BE6FE08E6FFEE64A0FEEF6401FF786BEC
:10238F00A60608A6078015786BE6FE08E6FFEEC3E3
:10239F0013FEEF13FF786BA60608A607786A068070
:0E23AF00A478690602230A786BE6FE08E6FFB2
:0123BD0022FD
:10351200900346EFF0900346E0FF8F993099FD301B
:053522009902C299228C
:10352700900347EFF0900347E0FF123512900347EF
:03353700E0FF2290
:10324100900348E4F0900232E0FF900233E0FEEE9A
:103251006F6027900233E0FF74362FF582E4340269
:10326100F583E0FF900348EFF0900233E0FFEF04B5
:0F327100FFEF541FFF900233EFF0900348E0FF90
:01328000222B
:10328100900349E4F0900232E0FF900233E0FEEE59
:103291006F6027900233E0FF74362FF582E4340229
:1032A100F583E0FF900349EFF0900233E0FFEF0474
:0F32B100FFEF541FFF900233EFF0900349E0FF4F
:0132C00022EB
:102E880090034AE4F0900232E0FF900233E0FEEE55
:102E9800C39F5015900233E0FF900232E0FEC3EE6C
:102EA8009FFF90034AEFF08026900232E0FF9002E5
:102EB80033E0FEEED39F4017900233E0FFC3742047
:102EC8009FFF900232E0FEEF2EFF90034AEFF09052
:042ED800034AE0FFCA
:012EDC0022D3
:0B35980043FBC053F53FD2A6D2A72290
:1014E4000A233E20000A53415249353120436F708C
:1014F40079726967687420323031322D3232000AD1
:1015040053415249353120434C49000A2B3D3D3D5E
:101514003D20436F6D6D616E64203D3D3D2B3D204C
:1015240046756E6374696F6E203D3D3D3D3D3D3DA6
:101534003D3D3D3D3D3D2B0A7C54524143202020FE
:101544002020202020202020207C205472616369E8
:101554006E672041646A75737420526164696F20F8
:1015640020207C0A7C46524551203C76613E202056
:1015740020202020207C204765742F53657420464A
:1015840072657175656E63792020202020207C0AA5
:101594007C434F4C43203C76613E20202020202079
:1015A400207C204765742F53657420434F4C43209F
:1015B400202020202020202020207C0A7C44494612
:1015C40046203C76613E202020202020207C20479D
:1015D40065742F53657420446573697265644F663E
:1015E4006673657420207C0A7C52415445203C7605
:1015F400613E202020202020207C204765742F532A
:1016040065742052462042617564726174652020BD
:1016140020207C0A7C54585057203C76613E202080
:1016240020202020207C204765742F53657420528D
:101634004620545820506F776572202020207C0A61
:101644007C4C4F414420202020202020202020209A
:10165400207C205265616420466C61736820536568
:101664007474696E6773202020207C0A7C53415671
:10167400452020202020202020202020207C2053B2
:1016840061766520746F20466C6173682020202089
:101694002020202020207C0A2B2D2D2D2D2D2D2D9A
:1016A4002D2D2D2D2D2D2D2D2D2B2D2D2D2D2D2D68
:1016B4002D2D2D2D2D2D2D2D2D2D2D2D2D2D2D2D56
:1016C4002D2D2B00676574206C696E652066616939
:1016D4006C65640A000A636D64206572726F720A35
:1016E40000FF14E4FF14E9FF1503FF150F48454CF0
:1016F4005000000000FF342954580000000000008E
:03170400FF354C62
:1012820041025600602002570000000000000000EA
:10129200000000000000000000000000000000004C
:0812A200000000000000000044
:10342900900320EBF0A3EAF0A3E9F0900320E0FB7E
:10343900A3E0FAA3E0F9900320EBF0A3EAF0A3E9F3
:10344900F09016EEE493FB740193FA740293F91267
:033459000AE12263
:10354C00900323EBF0A3EAF0A3E9F0900256740188
:02355C00F0225B
:100EF900900289EBF0A3EAF0A3E9F090028CEDF0FF
:100F090090028DE4F090028FE4F0900290E4F0906A
:100F19000291E4F0A3E4F0122E88EFD39400500379
:100F29000211E012328190028EEFF090028EE0FF02
:100F3900EF12087111C0000F5F080FEB0D11C011FE
:100F490011C0130FD61B0F5F7F0F8DAA000010155C
:100F59000211C00211C090028DE0FFEF700302116F
:100F6900C090028DE014F090028A74FF75F0FF12B0
:100F790006A57F081235277F201235277F081235ED
:100F8900270211C09002907401F090028EE0FF9048
:100F99000289E0FBA3E0FAA3E0F9EF12062C900224
:100FA9008EE0FF90028FE0FE74002EF582E434009B
:100FB900F583EFF090028FE004F090028AE475F077
:100FC900011206A590028DE004F00211C090028979
:100FD900E0FBA3E0FAA3E0F9E412062CE47E007F2B
:100FE900002290028EE0FF900289E0FBA3E0FAA3C1
:100FF900E0F9EF12062C90028AE475F0011206A5B9
:1010090090028DE004F090028E740AF0900290E054
:07101900FFEF700302119CC0
:10102000900293E4F0900294E4F0900295E4F0A32F
:10103000E4F090028EE0FF900289E0FBA3E0FAA3C7
:10104000E0F9EF12062C90028EE0FF90028FE0FE96
:1010500074002EF582E43400F583EFF090028EE008
:10106000FF900294EFF090028FE004F090028AE487
:1010700075F0011206A590028DE004F09002C1E027
:10108000FEA3E0FF900295EEF0A3EFF0900293E450
:10109000F0900294E0FF7E00EF2401FFEE3400FEAA
:1010A000900293E0FD7C00C3ED9FEE6480F8EC6459
:1010B0008098400302113F122E88EFD39400404ED7
:1010C000123281900289E0FBA3E0FAA3E0F9EF126B
:1010D000062C900289E0FBA3E0FAA3E0F91205E6F2
:1010E000FF90028FE0FE74002EF582E43400F58359
:1010F000EFF090028FE004F0900293E004F0900291
:101100008AE475F0011206A590028DE004F09002C9
:1011100095E0FEA3E0FFEF2480FFEE3400FE900296
:10112000C1E0FCA3E0FDEF6D7002EE6C6003021005
:1011300091900291E4F0A37401F080030210919069
:101140000291E0FEA3E0FFEF4E601290028FE4F008
:10115000900290E4F0E47E007F002280637B017ABD
:1011600000790190028FE0FFEF24FEFD122AD89053
:10117000028FE0FE74FF2EF582E434FFF583E0FE7B
:10118000EFB506107B007A00790012354C7E007FA7
:0A1190000122802CE47E007F002283
:10119A00802490028EE0FF900289E0FBA3E0FAA38C
:1011AA00E0F9EF12062C90028AE475F0011206A506
:1011BA0090028DE004F090028CE0FFEF24FEFF9095
:1011CA00028DE0FEEEC39F500D90028EE0FFEF64A9
:1011DA000A6003020F2C900289E0FBA3E0FAA3E065
:0911EA00F9E412062C7E007F01DD
:0111F30022D9
:0B1928009002A4EBF0A3EAF0A3E9F0AA
:101933009002A9E4F0A3740AF09002ABE4F0A3E4EC
:10194300F09002A7E4F0A3E4F09002A4E0FBA3E08C
:10195300FAA3E0F91205E6FFEFB42D159002ABE40C
:10196300F0A37401F09002A5E475F0011206A580BE
:10197300439002A4E0FBA3E0FAA3E0F91205E6FF1B
:10198300EFB430309002A5E475F0011206A5900281
:10199300A4E0FBA3E0FAA3E0F91205E6FFEFB478B5
:1019A300139002A5E475F0011206A59002A9E4F0D4
:1019B300A37410F09002A4E0FBA3E0FAA3E0F912F1
:1019C30005E6FFEF7003021B219002A4E0FBA3E0F6
:1019D300FAA3E0F91205E6FFC3EF648094B0403E3A
:1019E3009002A4E0FBA3E0FAA3E0F91205E6FFD31B
:1019F300EF648094B950279002A4E0FBA3E0FAA31C
:101A0300E0F91205E6FFEF3395E0FEEF24D0FFEE99
:101A130034FFFE9002ADEEF0A3EFF0021ACE900277
:101A2300A4E0FBA3E0FAA3E0F91205E6FFC3EF6429
:101A33008094E1403D9002A4E0FBA3E0FAA3E0F927
:101A43001205E6FFD3EF648094E650269002A4E0EB
:101A5300FBA3E0FAA3E0F91205E6FFEF3395E0FEFE
:101A6300EF24A9FFEE34FFFE9002ADEEF0A3EFF0FA
:101A730080599002A4E0FBA3E0FAA3E0F91205E683
:101A8300FFC3EF648094C15003021B219002A4E0C2
:101A9300FBA3E0FAA3E0F91205E6FFD3EF64809419
:101AA300C6507B9002A4E0FBA3E0FAA3E0F9120581
:101AB300E6FFEF3395E0FEEF24C9FFEE34FFFE901F
:101AC30002ADEEF0A3EFF0800280539002A9E0FE96
:101AD300A3E0FF9002ADE0FCA3E0FDC3ED9FEE6445
:101AE30080F8EC64809850369002A9E0FCA3E0FDF6
:101AF3009002A7E0FEA3E0FF12063E9002ADE0FCD9
:101B0300A3E0FDEF2DFFEE3CFE9002A7EEF0A3EF66
:101B1300F09002A5E475F0011206A50219B7900230
:101B2300ABE0FEA3E0FFEF4E60119002A7E0FEA33F
:101B3300E0FFC3E49FFFE49EFE80089002A7E0FE5F
:031B4300A3E0FF1D
:011B4600227C
:0B1707009002AFEBF0A3EAF0A3E9F0C2
:101712009002B8E4F09002B97420F07B007A00796C
:1017220000C003C002C0019002AFE0FBA3E0FAA335
:10173200E0F9D082D083D0E06B7008E96582700353
:10174200EA6583702B9002AFE0FBA3E0FAA3E0F915
:10175200C003C002C0019002B2E0FBA3E0FAA3E022
:10176200F91207999002AFE0FBA3E0FAA3E0F92295
:101772009002AFE0FBA3E0FAA3E0F91205E6FFEF67
:10178200642060139002AFE0FBA3E0FAA3E0F91239
:1017920005E6FFEFB4223A9002AFE0FBA3E0FAA322
:1017A200E0F91205E6FFEFB4220C9002B97422F0C0
:1017B2009002B87401F09002AFE0FBA3E0FAA3E05C
:1017C200F9E412062C9002B0E475F0011206A5802D
:1017D2009F9002AFE0FBA3E0FAA3E0F99002B5EB21
:1017E200F0A3EAF0A3E9F09002B5E0FBA3E0FAA3CC
:1017F200E0F91205E6FFEF640D60589002B5E0FBD8
:10180200A3E0FAA3E0F91205E6FFEF640A60449050
:1018120002B8E0FFEF60149002B5E0FBA3E0FAA388
:10182200E0F91205E6FFEF642260289002B8E0FFBB
:10183200EF70149002B5E0FBA3E0FAA3E0F9120501
:10184200E6FFEF6420600C9002B6E475F001120628
:10185200A580949002B5E0FBA3E0FAA3E0F912059B
:10186200E6FF9002B9E0FEEF6E60289002B5E0FB61
:10187200A3E0FAA3E0F91205E6FFEF640D6014900D
:1018820002B5E0FBA3E0FAA3E0F91205E6FFEF647C
:101892000A70489002B5E0FBA3E0FAA3E0F9E41273
:1018A200062C9002B8E0FFEF60249002B5E0FBA3A3
:1018B200E0FAA3E0F91205E6FF9002B9E0FEEFB507
:1018C200060C9002B6E475F0011206A5800D900296
:1018D200B6E475F0011206A50218559002B5E0FBB8
:1018E200A3E0FAA3E0F91205E6FFEF60139002B558
:1018F200E0FBA3E0FAA3E0F9C003C002C001800C40
:101902007B007A007900C003C002C0019002B2E0FD
:10191200FBA3E0FAA3E0F91207999002AFE0FBA360
:05192200E0FAA3E0F96A
:01192700229D
:101B4700900297E4F0A37401F07B007A007900908B
:101B57000299EBF0A3EAF0A3E9F07B007A007900A1
:101B670090029CEBF0A3EAF0A3E9F07B007A0079FE
:101B77000090029FEBF0A3EAF0A3E9F09002A3E440
:101B8700F07B017A0279577D20120EF9900297EEC9
:101B9700F0A3EFF0900297E0FEA3E0FFEF4E700C8A
:101BA7007BFF7A1679C8120AE1021D287B017A02A7
:101BB7007957C003C002C0017B017A02799F900266
:101BC700B2EBF0A3EAF0A3E9F0D001D002D0031200
:101BD7001707900299EBF0A3EAF0A3E9F0900299B6
:101BE700E0FBA3E0FAA3E0F91205E6FFEF700302BA
:101BF7001D28900299E0FBA3E0FAA3E0F990029C6C
:101C0700EBF0A3EAF0A3E9F090029CE0FBA3E0FA73
:101C1700A3E0F91205E6FFEF604190029CE0FBA309
:101C2700E0FAA3E0F91205E6FFEF6420602D9002C9
:101C37009CE0FBA3E0FAA3E0F91205E6FF12355E8C
:101C470090029CE0FBA3E0FAA3E0F9EF12062C90C8
:101C5700029DE475F0011206A580AD9002A2E4F0A2
:101C67009002A2E0FFC3EF648094824003021D0646
:101C77009002A2E0FFEF3395E0FE7C007D0B120699
:101C87003E74F12FF974163EFA7BFFC003C002C001
:101C970001900299E0FBA3E0FAA3E0F9A801AC02E6
:101CA700AD03D001D002D003120A20EF7048900292
:101CB7009FE0FBA3E0FAA3E0F9C003C002C00190D4
:101CC70002A2E0FFEF3395E0FE9016F975F00BEFF7
:101CD70012076DEE75F00BA42583F583E493FB746F
:101CE7000193FA740293F989828A83D001D002D0D2
:101CF700031208C880099002A2E004F0021C679052
:101D070002A2E0FFEFB40219900297E4F0A3E4F017
:101D1700900256E0FFEF70097BFF7A1679D9120A15
:091D2700E1900297E0FEA3E0FF49
:011D30002290
:1012AA00015F03015E0002220000015C00015B0095
:1012BA00062D413731333900202833000000000061
:1012CA000000000000000000000000000000000014
:1012DA000000000000000000000000000000000004
:1012EA00000000092468656C6C6F77202100015D9D
:1012FA00006028000000000000000000000000005C
:10130A0000000000000000000000000000000000D3
:10131A0000000000000000000000000000619000D2
:10132A0028AABB0100003C490000000000000000A0
:10133A0000000000000000000000000000000000A3
:10134A00000000000000000000AABB0200003CB937
:10135A000000000000000000000000000000000083
:10136A000000000000000000000000000000000073
:10137A0000AABB030000FCE8000000000000000017
:10138A000000000000000000000000000000000053
:10139A00000000000000000000AABB0400003D5944
:1013AA000000000000000000000000000000000033
:1013BA000000000000000000000000000000000023
:1013CA0000AABB050000FD080000000000000000A4
:1013DA000000000000000000000000000000000003
:1013EA00000000000000000000AABB060000FDF893
:1013FA0000000000000000000000000000000000E3
:10140A0000000000000000000000000000000000D2
:10141A0000AABB0700003DA9000000000000000070
:10142A0000000000000000000000000000000000B2
:10143A00000000000000000000AABB0800003E995E
:10144A000000000000000000000000000000000092
:10145A000000000000000000000000000000000082
:10146A0000AABB090000FEC800000000000000003E
:10147A000000000000000000000000000000000062
:10148A00000000000000000000AABB0A0000FE38AD
:10149A000000000000000000000000000000000042
:1014AA000000000000000000000000000000000032
:0114BA000031
:03001300020003E5
:10000300C0D075D000C000785E7601D000D0D03269
:1032C1009002FCEBF0A3EAF0A3E9F09002FFEDF02D
:1032D1007F1412353A7F0A7E001228909002FCE09A
:1032E100FBA3E0FAA3E0F99002FFE0FD12309F7F1B
:1032F1001A12353A7F0A7E00122890785F760222F0
:102AD8009002D5EBF0A3EAF0A3E9F09002D8EDF06C
:102AE8009002D9E4F09002DAE4F09002DAE4F0908F
:102AF80002D8E0FF9002DAE0FEEEC39F5027900272
:102B0800D5E0FBA3E0FAA3E0F99002DAE0FF8F82B8
:102B18007583001205FFFF9002D9E02FF09002DACA
:102B2800E004F080CA9002D9E0FFEFF4FFEF04FF61
:0A2B38009002D9EFF09002D9E0FFFF
:012B42002270
:1023BE00900326E4F0A37401F0900328E4F0785E15
:1023CE00E6FFEF6401600302246A785FE6FFEF1216
:1023DE00087124030124540223ED03000024667BBC
:1023EE00007A0079337D061230E67F1812353A787E
:1023FE005F760180637B007A0079337D281230E6A8
:10240E007F1812353A7834E6FF900328EFF07B0000
:10241E007A007934900328E0FFEF04FD122AD89059
:10242E000328E0FE74352EF8E6FEEF6E702A78353E
:10243E00E6FFEF640A70217B007A0079337D281263
:10244E00312DB2A68012B2A77F1812353A7F0A7EBE
:10245E0000122890785F7601785E7600900256E042
:10246E00FFEFB401107B017A0079007D281232C192
:0D247E00900256E4F0900326E0FEA3E0FF7C
:01248B00222E
:1014BB004402BA000000004202BF00004202C30017
:0A14CB00004102BE004202C1000011
:10356F00438910758DAE758B9F43884043A8882281
:03001B00022909AE
:10290900C0E0C083C082C085C084C0925392FEC01B
:10291900D075D000C006C007C2AB9002C0E004F079
:1029290070069002BFE004F09002C2E004F0700665
:102939009002C1E004F09002BFE0FEA3E0FF7E0038
:10294900EF547FFFEF4E70149002C4E004F070065C
:102959009002C3E004F09002BE7401F0758DAE756B
:102969008B9FD2ABD007D006D0D0D092D084D0855F
:07297900D082D083D0E032D0
:0833F100900300EEF0A3EFF0E1
:1033F900900302E4F0A3E4F0900300E0FEA3E0FFF1
:10340900900302E0FCA3E0FDC3ED9FEC9E501090F9
:0F3419000303E004F07006900302E004F080D992
:013428002281
:0531BB00900329EFF074
:1031C00090032AE4F090032BE4F090032AE4F090BB
:1031D0000329E0FF90032AE0FEEEC39F50209003F6
:1031E0002BE4F090032BE0FFEFC394DC5008900336
:0E31F0002BE004F080ED90032AE004F080D183
:0131FE0022AE
:08002600900304EEF0A3EFF0DB
:10002E001235A3900306EEF0A3EFF01235A3900362
:10003E0006E0FCA3E0FDC3EF9DFFEE9CFE900304E3
:0C004E00E0FCA3E0FDC3EF9DEE9C40DF52
:01005A002283
:0935A3009002BFE0FEA3E0FF224C
:0C358C009002C3E0FEA3E0FFE4FCFD227F
:0614D50043032F0000009C
:040016001234CF22AF
:101EA300900277EBF0A3EAF0A3E9F090027AECF06A
:031EB300A3EDF0AC
:101EB600900283E4F0A3E4F07B007A007900C0038B
:101EC600C002C00190032FE0FBA3E0FAA3E0F9D023
:101ED60082D083D0E06B7008E965827003EA65837F
:101EE6007009900283E4F0A37401F090027EE0FB97
:101EF600A3E0FAA3E0F9C003C002C001900277E0B4
:101F0600FBA3E0FAA3E0F9758202758300120818B4
:101F1600900281E0FEA3E0FFAA06A9077B01C003A9
:101F2600C002C001900277E0FBA3E0FAA3E0F975D6
:101F3600820575830012081890027AE0FEA3E0FF7E
:101F4600900277E0FBA3E0FAA3E0F9EE8FF0120629
:101F5600FC900277E0FBA3E0FAA3E0F990032FEBF5
:101F6600F0A3EAF0A3E9F0900281E0FEA3E0FF8F80
:101F7600828E83E0FEA3E0FF90027AE0FCA3E0FD00
:101F8600C3ED9FFFEC9EFE900285EEF0A3EFF0906E
:101F96000285E0FEA3E0FF7C067D4A120650900310
:101FA6003AEFF090033AE0FF7E007C067D49120688
:101FB6003E900285E0FCA3E0FDC3ED9FFFEC9EFE94
:101FC600900287EEF0A3EFF0900283E0FEA3E0FF1D
:101FD600EF64014E700B900287E0FEA3E0FF12341F
:061FE6008AE47E007F008A
:011FEC0022D2
:102217007B007A007900C003C002C00190032FE061
:10222700FBA3E0FAA3E0F9D082D083D0E06B70087B
:10223700E965827003EA658370030222EB90032F3E
:10224700E0FBA3E0FAA3E0F990032CEBF0A3EAF09C
:10225700A3E9F07B007A00790090032FEBF0A3EA63
:10226700F0A3E9F090032CE0FBA3E0FAA3E0F9AEBA
:1022770002AF0190032CE0FBA3E0FAA3E0F975821B
:10228700057583001207E8AC02AD0190032CE0FB53
:10229700A3E0FAA3E0F97582027583001207E889C3
:1022A700828A831208C87B007A007900C003C002C3
:1022B700C00190032FE0FBA3E0FAA3E0F9D082D09E
:1022C70083D0E06B7008E965827003EA6583601468
:1022D70090032FE0FBA3E0FAA3E0F91206D1FFAECB
:0422E700F012348A33
:0122EB0022D0
:0814DB0041033A0041033B000C
:1034CF0075CD0075CC0075CB0075CA0075C3C0757E
:0934DF00C20043C89543C1082254
:10348A00900338EEF0A3EFF0900338E0FEA3E0FFDC
:10349A008FC2900338E0FEA3E0FFEEFF7E008FC3E9
:0634AA0043C108D2BB2261
:03005B00022B4332
:102B4300C0E0C0F0C083C082C085C084C0925392ED
:102B5300FEC0D075D000C000C001C002C003C004D5
:102B6300C005C006C007C2BB90033BE004F090035E
:102B73003AE0FF90033BE0FEEEB507081222179000
:102B8300033BE4F0D2BBD007D006D005D004D0037A
:102B9300D002D001D000D0D0D092D084D085D082C2
:072BA300D083D0F0D0E03236
:10005E0002041FE86480F8E933E83360110460F0AD
:10006E00ED33EC337009E8FCE9FDEAFEEBFF220408
:10007E0060DED3EB9FEA9EE99DE8C2E78CF0C2F703
:10008E0095F0400CE8CCF8E9CDF9EACEFAEBCFFBCF
:10009E001203EA85D0F05804700320D5B3E804703B
:1000AE00075002B2D502042992D5EC0460F7E4CCD5
:1000BE00C0E0C398F8603B94186008400DD0E0FB98
:1000CE00020401E4FBFAC9FC8028E830E406E4C926
:1000DE00FBE4CAFCE830E305E4C9CACBFCE85407EC
:1000EE006010F8C3E913F9EA13FAEB13FBEC13FCF7
:1000FE00D8F130F52FC3E49CFCEF9BFFEE9AFEED9A
:10010E0099FDD0E0FBEF4E4D4C701222DB03020442
:10011E0026EC2CFCEF33FFEE33FEED33FDED30E736
:10012E00EB020401EF2BFFEE3AFEED39FDD0E0FBC2
:10013E0050130BBB0003020429ED13FDEE13FEEF6B
:08014E0013FFEC13FC02040195
:10015600EC4D6011E8497017ED33EC3304600DE4A3
:10016600FCFFFEFD22E933E8330470F802041F1297
:1001760003EA58046009E4CC248150062850090299
:100186000429284003020426C0E0EB4A7044B980E3
:1001960006D0E0FB020415EF4E701CBD8008EBFF95
:1001A600EAFEE9FD80EBE98DF0A4FEE5F002023FF0
:1001B600E9CDF9EAFEEBFFEF89F0A4FCE5F0CE8984
:1001C600F0A42EFFE435F0CD89F0A42DFEE435F041
:1001D6008067EF4E7005BD80D780C3EF8BF0A4AC6F
:1001E600F0EE8BF0A42CFCE435F0F8EF8AF0A42CAA
:1001F600E5F038FCE433CB8DF0A42CFCE5F03BF8BD
:10020600EE8AF0A42CFCE5F038F8E433CF89F0A4AC
:100216002CFCE5F038CF3400CE89F0A42FFFE5F0B2
:100226003EFEE433C98DF0A42EFEE5F039CD8AF00A
:10023600A42FFFE5F03EFEE43DFD33D0E0FB500782
:100246000BBB000F020429EC2CFCEF33FFEE33FE50
:06025600ED33FD0204017E
:10025C00020429EC5D046005E85904700302041FD4
:10026C001203EA580460F6EC4860F2EC7004FDFEF0
:10027C00FF22C860DB2481C85009C3986002500675
:10028C000204269850CAF582E9294B4A7005AB82C4
:10029C0002041575F0007C1A7880C3EF9BEE9AED82
:1002AC0099400DC3EF9BFFEE9AFEED99FDE842F0ED
:1002BC00DC23ACF0D0E0FFD0E0FED0E0FDAB822040
:1002CC00E7101BEB60BAEC2CFCEF33FFEE33FEEDCA
:1002DC0033FD020401E803F830E705C0F075F000C7
:1002EC00EF2FFFEE33FEED33FD40B830E7C280AAAE
:1002FC0074F8CC6480CCC86480C8F58204604FC3A9
:10030C00EB9FF5F0EA9E42F0E99D42F0E89C45F047
:10031C00603C501DE5825FFFE582D313CB5BCBF4D1
:10032C002B5582FB50280ABA002409B900200880FA
:10033C001DE5825BFBE582D313CF5FCFF4C3132F94
:10034C005582FF50090EBE00050DBD00010CC3EB1C
:10035C009FF5F0EA9E42F0E99D42F0E89C45F06082
:09036C0007CC4820E701B3EC22A4
:1003750075F020800E75F010800575F0087D007E03
:10038500007F003392D530D50312071BEC334010A4
:10039500EF33FFEE33FEED33FDEC33FCD5F0ED220C
:0E03A500E5F0247EA2D513CC92E7CDCEFF2248
:1003B300EDD2E7CD33EC3392D524814006E4FFFE42
:1003C300FDFC22FCE4CFCECDCC24E0501174FF80A1
:1003D300EDC3CC13CCCD13CDCE13CECF13CF04703E
:0703E300F030D5DE02071B1C
:100A7600E5082405F582E43402F583E005082290B2
:100A86000202300703900205E475F00112077902AD
:100A960005E62000E97F2ED2008018EF540F24903F
:100AA600D43440D4FF30040BEF24BFB41A005003F3
:100AB6002461FFE50960021509050CE50C700205C5
:100AC6000B30070E900202E475F001120779EF026F
:100AD600062C0235277403D2078003E4C207F50803
:100AE600900202120790E4F509F50BF50CE5096092
:100AF600077F20120AB980F5750AFFC201C200C23B
:100B060002C203C205C206C208120A85FF700D3072
:100B160007057F00120ACAAF0CAE0B22B4255FC2CE
:100B2600D5C204120A85FF24D0B40A00501A75F003
:100B36000A780930D50508B6FF0106C6A426F620B0
:100B4600D5047002D20380D924CFB41A00EF500422
:100B5600C2E5D204020DBCD20180C6D20080C0D24A
:100B66000280BCD2D580BAD20580B47F20120AB9E1
:100B76002002077401B5090040F1120A76FF120A35
:100B8600B9020AF3D208D2068095120A76FB120A37
:100B960076FA120A76F94A4B700679BA7A0E7BFF14
:100BA60020022EE509602A7E008E827583001205DA
:100BB600FF60060EEE650A70F0C2D5EBC0E0EAC033
:100BC600E0E9C0E0EE120E1DD0E0F9D0E0FAD0E088
:100BD600FB1205E6FF60AAEBC0E0EAC0E0E9C0E070
:100BE600120AB9D0E02401F9D0E03400FAD0E0FBD3
:100BF600E50A0460DCD50AD98087D20280A2120DEC
:100C0600FF60F7E50A700104120434A90A600DE5D5
:100C16000A600914F50A120EA7EF60F3EA30E7023C
:100C2600F404C3995079EAF4250A0430E701E40490
:100C3600F50A800D120DFF60C1EA050A250A1204A5
:100C460034EA900231F030E701E4250A04D50A04BB
:100C560020050114120E1DE4C0E0120EA790023109
:100C6600E0601320E70714F0120AA1802204F0D0F6
:100C7600E014C0E07F00120AA1E50A6007120A9894
:100C8600150A800B300503120A98D0E0020AF3D049
:100C9600E00480C4120DFF609EE50A04120434903D
:100CA6000231EAF0E50A2005026001042404120E6E
:010CB6001D20
:100CB70074FF04C0E0120EA7120AA1E50A2005027C
:100CC7006003120A98D0E0B50AE87F45120AAB9094
:100CD7000231E07F2B30E7047F2DF404C0E0120AD5
:100CE700B9D0E075F00A84C0F0120AA2D0E0120A67
:100CF700A2020AF3791080027908C206C2088008A6
:100D0700D2D5790A8004790AC2D5E50A047002F5BA
:100D17000AE4FAFDFEFF120A76FC7B082001131293
:100D27000A76FD7B1030000A120A76FE120A76FF59
:100D37007B20EC3382D592D55013C3E43000069F55
:100D4700FFE49EFEE42001039DFDE49CFCE4CBF858
:100D5700C201EC700CCFCECDCCE824F8F870F3804C
:100D670017C3EF33FFEE33FEED33FDEC33FCEB330C
:100D7700FB994002FB0FD8E9EB300105F8D0E0C43E
:100D870048B201C0E00AEC4D4E4F78207B0070C29C
:100D9700EAB50A0040BCC0E0120E1FD0F0D0E02038
:100DA7000104C4C0E0C4B201C0F0120AA2D0F0D559
:100DB700F0EB020AF31208710B90530CFB580B610E
:100DC7004C0B5D420CFF4F0D07440D07490B764353
:100DD7000D0D550C3A460C9A450C04470EDA500B8C
:100DE700652D0B692E0B8C2B0B6D230B8A200EC3E5
:100DF7002A0B254800000B84E50AB4FF03750A0691
:100E0700120A76FC120A76FD120A76FE120A76FF9D
:100E170090022A020471790AA2D520031430050929
:100E2700B910020404B9080104A2D5200602500132
:100E3700042002689202B509005034C0E07F2030D8
:100E470003197F30A20272067205500F120E76C286
:100E570002C206C205C2087F30800F300503E9C011
:100E6700E0120AB9300503D0E0F9D0E0B509CC307B
:100E770005177F30B9100C120AB97F583004077F65
:100E8700788003B90803120AB93002057F2D020AD8
:100E9700B97F202008F87F2B2006F322920280CF0B
:100EA7007F00B40700500B242AF582E43402F5834F
:100EB700E0FF22286E756C6C2900D201120A763089
:100EC70001F8C201780930D50108F6020B252D502B
:100ED700434958120A762403B405004001E4900EF2
:100EE700D593120AAA743A120AAAD2037509040200
:020EF7000CFBF2
:1003EA00E9D2E7C933E833F892D5EDD2E7CD33EC59
:0703FA0033FC5002B2D522D2
:10040100EC30E7100FBF000C0EBE00080DBD00045C
:100411000BEB6014A2D5EB13FCED92E7FD2274FF08
:10042100FCFDFEFF22E480F8A2D574FF13FC7D8061
:03043100E480EF75
:10043400F920E73624F950037907E4F42402FBE5B4
:1004440082158270021583DBF6E024FB501BE96001
:1004540014E4F0E582158270021583E004F0B40A16
:0D04640008E4F0D9EE7401F00A22C2D5229E
:10047100ED33EC3392D5FA602AB4FF33EDC2E77B5A
:10048100FF60067A047996E4227A04799F20D504E4
:100491007A04799A224E614E002B494E46002D492D
:1004A1004E4600E47A08F0A3DAFC7B00740722C010
:1004B10083C082ECC0E0EDC0E0EEC0E0EFC0E0EA56
:1004C10075F010A4CAABF075F04DA42BFBE435F028
:1004D100FCEA2410FAEB34C5FBEC34D9FCEDC2E79D
:1004E100FF75F056A4F42411C5F0F434C58FF0A4BF
:1004F1002AE5F03BE43CF020E7141205A6D0E0FF2A
:10050100D0E0FED0E0FDD0E0FC12025F8014F404E4
:100511001205A6D0E0FFD0E0FED0E0FDD0E0FC1255
:100521000156D082D083E0FAEDD2E7CD33EC33240B
:1005310082FBE4C3CF33CFCE33CECD33CD33DBF328
:100541007B0775F00A846004F0A31B0AE5F0F0A3B1
:100551008FF0740AA4FFACF08EF0740AA42CFEACE8
:10056100F050010C8DF0740AA42CFDE435F0F0A3D9
:05057100DBDE7407222F
:100576003F8000004120000042C80000447A00008D
:10058600461C400047C35000497424004B1896800F
:100596004CBEBC205A0E1BCA6753C21C749DC5AE06
:1005A600FB60065407601C23231205D4EB54386005
:1005B600091205C01205CF120156ECF8EDF9EEFA54
:1005C600EFCB22EB1205CF80F1543803241C9005A3
:1005D60076FE93FC0EEE93FD0EEE930ECE93FF2267
:10260700022687E493A3F8E493A34003F68001F23C
:1026170008DFF48029E493A3F85407240CC8C333D4
:10262700C4540F4420C8834004F456800146F6DFA3
:10263700E4800B01020408102040809011F4E47E2E
:10264700019360BCA3FF543F30E509541FFEE49398
:10265700A360010ECF54C025E060A840B8E493A35F
:10266700FAE493A3F8E493A3C8C582C8CAC583CA8A
:10267700F0A3C8C582C8CAC583CADFE9DEE780BE42
:0114E3000008
:1005E600BB010689828A83E0225002E722BBFE0213
:0905F600E32289828A83E4932246
:1005FF00BB010CE58229F582E5833AF583E02250B1
:10060F0006E92582F8E622BBFE06E92582F8E222FA
:0D061F00E58229F582E5833AF583E4932214
:10062C00BB010689828A83F0225002F722BBFE01AD
:02063C00F322A7
:10063E00EF8DF0A4A8F0CF8CF0A428CE8DF0A42ED0
:02064E00FE228A
:10065000BC000BBE0029EF8DF084FFADF022E4CC8E
:10066000F875F008EF2FFFEE33FEEC33FCEE9DEC57
:10067000984005FCEE9DFE0FD5F0E9E4CEFD22ED9D
:10068000F8F5F0EE8420D21CFEADF075F008EF2FE7
:10069000FFED33FD4007985006D5F0F222C398FDD8
:0506A0000FD5F0EA2275
:1006A500C5F0F8A3E028F0C5F0F8E58215827002E0
:0606B5001583E038F0227D
:1006BB00A3F8E0C5F025F0F0E582158270021583F2
:0606CB00E0C838F0E8224F
:1006D100BB010A89828A83E0F5F0A3E022500687F4
:1006E100F009E71922BBFE07E3F5F009E3192289B6
:0B06F100828A83E493F5F074019322E9
:1006FC00BB010A89828A83F0E5F0A3F0225006F749
:0F070C0009A7F01922BBFE06F3E5F009F3192245
:0E071B00C3E49FFFE49EFEE49DFDE49CFC22EF
:10072900E8600FECC313FCED13FDEE13FEEF13FFAE
:03073900D8F122D2
:0C073C00E6FC08E6FD08E6FE08E6FF22E9
:0D074800E6FB08E6F908E6FA08E6CBF82221
:0C075500ECF608EDF608EEF608EFF622D0
:0C076100ECF0A3EDF0A3EEF0A3EFF0220B
:0C076D00A42582F582E5F03583F5832297
:10077900F8E0FBA3A3E0F925F0F0E5821582700209
:070789001583E0FA38F022AD
:09079000EBF0A3EAF0A3E9F0226A
:10079900BB011A89828A83D0F0D0E0F8D0E0F9D081
:1007A900E0FAD0E0FBE8C0E0C0F00207905016E99B
:1007B900F8D083D082D0E0F9D0E0FAD0E0FBC08253
:1007C900C083020A46BBFE16E9F8D083D082D0E086
:0F07D900F9D0E0FAD0E0FBC082C083020A6122AF
:1007E800BB010DE58229F582E5833AF583020A4FBC
:1007F8005007E92582F8020A3DBBFE07E92582F881
:10080800020A58E58229F582E5833AF583020A6AE5
:10081800BB0120E58229F582E5833AF583D0F0D043
:10082800E0F8D0E0F9D0E0FAD0E0FBE8C0E0C0F0B2
:100838000207905018E92582F8D083D082D0E0F9D9
:10084800D0E0FAD0E0FBC082C083020A46BBFE18A3
:10085800E92582F8D083D082D0E0F9D0E0FAD0E060
:09086800FBC082C083020A612278
:10087100D083D082F8E4937012740193700DA3A316
:1008810093F8740193F5828883E47374029368602A
:06089100EFA3A3A380DF2A
:10089700D083D082F8E4937012740193700DA3A3F0
:1008A70093F8740193F5828883E473740293B5F027
:0D08B700067403936860E9A3A3A3A380D88F
:0608C4008A838982E473BF
:10355E00EFC39461400AEF947B5005EF24E0FF2205
:01356E00223A
:1008CA00E3F5F009E208B5F06D606B80F3E3F5F04B
:1008DA0009E608B5F060605E80F387F009E608B5BE
:1008EA00F054605280F487F009E208B5F048604697
:1008FA0080F488828C8387F009E0A3B5F0386036EB
:10090A0080F488828C8387F009E493A3B5F027608A
:10091A002580F388828C83E3F5F009E0A3B5F0160D
:10092A00601480F388828C83E3F5F009E493A3B51D
:10093A00F004600280F20209E1808580E7808E80FF
:10094A00D28032801580628074809B80B5808B80D3
:10095A00A18045806680300209ED88848C85898271
:10096A008A83E493F5F0A30592E493A31592B5F074
:10097A0066606480ED89828A83E493F5F0A3E208D5
:10098A00B5F054605280F289828A83E0F5F0A3E6DA
:10099A0008B5F043604180F389828A83E0F5F0A3C9
:1009AA00E208B5F032603080F389828A83E493F5F5
:1009BA00F0A3E608B5F020601E80F2803F88848CA0
:1009CA008589828A83E493F5F0A30592E0A31592C0
:1009DA00B5F004600280EE7FFFB5F0020F224002FC
:1009EA007F012288848C8589828A83E0F5F0A305B9
:1009FA0092E0A31592B5F0DF60DD80EF88848C85E4
:100A0A0089828A83E0F5F0A30592E493A31592B54F
:100A1A00F0C560C380EE88F0ED2402B4040050B73C
:100A2A00F582EB2402B4040050AD232345822390BF
:030A3A00094373FA
:090A3D00E6FB08E6FA08E6F922DE
:090A4600EBF608EAF608E9F622D5
:090A4F00E0FBA3E0FAA3E0F922A8
:090A5800E2FB08E2FA08E2F922CF
:090A6100EBF208EAF208E9F222C6
:0C0A6A00E493FB740193FA740293F922E8
:00000001FF
