:030000000223993F
:0C239900787FE4F6D8FD7581590223E03E
:0A3FF600FFFFFFFFFFFFF75AA5AF22
:10301F007274696D65722063616C6C206261636BA1
:10302F000A0074657374207072696E74660A0061A9
:10303F003731333920696E697469616C2066616953
:0C304F006C210A007265672025640A00ED
:051D8F004200F4000019
:10278E007BFF7A30791F120AE1B2A6AFCD7E00EF41
:10279E007F00FEADCC7C00EF2DFFEE3CFE9000F4F2
:1027AE00EEF0A3EFF07B017A0079F6C003C002C011
:1027BE00019000F4E0FEA3E0FFEF24FAFDEE34FFFB
:1027CE00FC9000C4E4F0A37401F07BFF7A27798EAD
:1027DE009000C6EBF0A3EAF0A3E9F07E007FF49040
:1027EE0000C9EEF0A3EFF0D001D002D003121B050A
:0127FE0022B8
:10242500900171E4F0A3E4F075865A12326312321A
:102435003A1225B01200167BFF7A307931120AE183
:102445007F0A122E9B12313C7F0A122E9B7F217E22
:10245500807DED7C43122C51EF60097BFF7A30794A
:102465003E120AE17F181232057F0A122E9B7F0069
:10247500122EDF900171EEF0A3EFF07BFF7A307939
:1024850053900171E0FEA3E0FF90004DEEF0A3EF45
:10249500F0120AE1121EA27F0A122E9B1217B180BA
:0624A500F3E47E007F005D
:0124AB00220E
:1030970090014AEFF090014BECF0A3EDF0C2A09045
:1030A700014AE0FFEF4400FF90014AEFF090014A28
:1030B700E0FF122C047F017E001230D190014BE01B
:0A30C700FEA3E0FF122B5AD2A02254
:052EDF0090014DEFF031
:102EE40090014EE4F0A3E4F0C2A090014DE0FFEFA6
:102EF4004480FF90014DEFF090014DE0FF122C044F
:102F04007F017E001230D11226A790014EEEF0A36D
:0C2F1400EFF0D2A090014EE0FEA3E0FF21
:012F2000228E
:0D2AAC00900150EFF0900151ECF0A3EDF01F
:102AB900900150E0FF7E00784FA60608A607784FE0
:102AC900E6FE08E6FFEF7F00C454F0FE900038E010
:102AD900FCA3E0FDEE4CFEEF4DFF784FA60608A6DD
:102AE90007784FE6FC08E6FD7F0712309790015101
:0A2AF900E0FCA3E0FD7F0812309717
:012B030022AF
:0D2A5000900153EFF0900154ECF0A3EDF075
:102A5D00900153E0FF7E007851A60608A607785135
:102A6D00E6FE08E6FFEF7807C333CE33CED8F9FF85
:102A7D00900038E0FCA3E0FDEE4CFEEF4DFF7851E9
:102A8D00A60608A6077851E6FC08E6FD7F0712307A
:0E2A9D0097900154E0FCA3E0FD7F09123097F2
:012AAB002208
:052B040090017BEFF0E1
:102B090090017BE0FF7E007853A60608A60778535C
:102B1900E6FE08E6FFEF7F00C454F0FE900038E0BF
:102B2900FCA3E0FDEE4CFEEF4DFF7853A60608A688
:102B3900077853E6FC08E6FD7F071230977F0812F5
:102B49002EDF7853A60608A6077853E6FE08E6FFA7
:012B59002259
:10222A00781F7600781FE6FFEFC394085024781FC2
:10223A00E6FF75F002EFA4242AF582E5F03400F5F2
:10224A0083E0FCA3E0FD781FE6FF123097781F06B3
:10225A0080D2781F760A781FE6FFEFC394105024C5
:10226A00781FE6FF75F002EFA4242AF582E5F03420
:10227A0000F583E0FCA3E0FD781FE6FF12309778B3
:10228A001F0680D2781F7600781FE6FFEFC39410EE
:10229A005024781FE6FF75F002EFA42400F582E5CA
:1022AA00F03400F583E0FCA3E0FD781FE6FF122A74
:1022BA00AC781F0680D2781F7600781FE6FFEFC33E
:1022CA0094055024781FE6FF75F002EFA42420F548
:1022DA0082E5F03400F583E0FCA3E0FD781FE6FF19
:0822EA00122A50781F0680D271
:0122F20022C9
:101993007F00122EDF781DA60608A607900048E0F8
:1019A300FEA3E0FFEE4408FCEF4402FD7F0F12307C
:1019B300977F0F122EDF781DA60608A607781DE66F
:1019C300FE08E6FFEE5408FEEF5402FFEF4E70E10F
:1019D3007F0E122EDF781DA60608A607781DE6FEE9
:1019E30008E6FFEEC4F854F0C868FEEFC4540F488D
:1019F300FFEF5401FF781AA607781AE6FFEF60039A
:101A03007F04227F0A122B04781DA60608A60778F6
:101A13001DE6FE08E6FFEEC4F854F0C868FEEFC406
:101A2300540F48FFEF5401FF781CA607781CE6FF0C
:101A3300EF60037F04227D007C4C7F0C1230977D86
:101A4300007CF87F02122AAC900000E0FEA3E0FFC6
:101A5300EE44E0FCAD077F00122AAC900048E0FEA4
:101A6300A3E0FFEE4410FCAD077F0F1230977F0F0A
:101A7300122EDF781DA60608A607781DE6FE08E6E7
:101A8300FFEE20E4E9900042E0FCA3E0FD7F0C12AE
:101A93003097900004E0FCA3E0FD7F02122AAC9093
:101AA3000000E0FCA3E0FD7F00122AAC900048E0B8
:101AB300FEA3E0FFAC06EF4404FD7F0F1230977FD7
:101AC3000F122EDF781DA60608A607781DE6FE086E
:101AD300E6FFEF20E2E97F0E122EDF781DA606084F
:101AE300A607781DE6FE08E6FFEEFF7E00EF540131
:101AF300FF781BA607781BE6FFEF60037F04227FB6
:011B030000E1
:011B040022BE
:061C4F0090012212076162
:101C55007BCD7ACC794C7841900122E0FCA3E0FD64
:101C6500A3E0FEA3E0FF12025F780D120755780D81
:101C750012073C1203B37811A6077811E6FCE412AB
:101C8500037FC004C005C006C007780D12073CD00D
:101C950003D002D001D00012006178121207557FDF
:101CA500007E007D807C477812120748120156128B
:101CB50003B37816A60608A6077F1412320590000E
:101CC50030E0FEA3E0FFEE547FFE7818A60608A6D6
:101CD500077818E6FC08E6FD7F031230979000367A
:101CE500E0FEA3E0FFEE540FFE7818A60608A6074F
:101CF5007818E6FC08E6FD7F061230977F007E0027
:101D05007D577C44900122E0F8A3E0F9A3E0FAA313
:101D1500E0FB1202FC5015900032E0FEA3E0FFEE5E
:101D250054EFFE7818A60608A6078013900032E047
:101D3500FEA3E0FFEE4410FE7818A60608A6077875
:101D450018E6FC08E6FD7F0412309790002CE0FEB3
:101D5500A3E0FF7F007818A60608A6077811E6FF1E
:101D65007E007818E6FC08E6FDEE4CFCEF4DFD7FA5
:101D7500011230977816E6FC08E6FD7F02123097CF
:091D85007D007C007F02122A504F
:011D8E002232
:1022F300783F76FF784276FF0876FF900004E0FE91
:10230300A3E0FFAC06EF4410FD7F02122AAC90005D
:102313001EE0FEA3E0FFAC06EF4401FD7F0F122A8F
:10232300AC7F0F122B047E00EF5401FF7840A6060A
:1023330008A6077840E6FE08E6FFEF4E60107842F5
:1023430008E616188606700116FFEF4E70D37F0F4E
:10235300122B04EE5403FEEEC313FEEF13FF78407B
:10236300A60608A6077840E6FE08E6FFD3EF94BA70
:10237300EE940040137840E6FE08E6FFC3EF94C6F0
:10238300EE940050037F0522783FE616FFEF6003CB
:052393000223117F048C
:012398002222
:1032050090017CEFF0C2A090017CE0FF122C04D26B
:02321500A022F5
:102C5100900126120761D2A0C2977F701232057FC0
:102C61000A122E9B12222A7F0A7E0012262E7F8CA8
:102C71007EC57D757C341228D17F017E0012262EFF
:102C8100900126E0FCA3E0FDA3E0FEA3E0FF121CFF
:0C2C91004F7F0A7E0012262E121993229B
:1028D10090012A120761C2A07F20122C0490012AC4
:1028E100E0FCA3E0FDA3E0FEA3E0FF7818120729B6
:1028F100122C0490012AE0FCA3E0FDA3E0FEA3E07A
:10290100FF7810120729122C0490012AE0FCA3E0A1
:10291100FDA3E0FEA3E0FF7808120729122C049022
:10292100012AE0FCA3E0FDA3E0FEA3E0FF122C04DA
:05293100D2A07F00228E
:102C9D00784676000876007846E6FE08E6FF900056
:102CAD0038E0FCA3E0FDEC54F7FCED54CFFDEE4C09
:102CBD00FEEF4DFF7846A60608A6077846E6FC0807
:102CCD00E6FD7F071230977F09122EDF7844A606A6
:0A2CDD0008A6077844E6FE08E6FFAB
:012CE70022CA
:101F990090017DEFF07F141232057F14122E9B9071
:101FA9000038E0FEA3E0FFAC06EF54FEFD7F071208
:101FB900309790017DE0FFEF1208711FD7021FF4DF
:101FC9000A201132202E642068960000204D7D21C0
:101FD9007C667F001230977DD47C187F0A12309777
:101FE9007D057CF57F00122AAC80747D217C127FEF
:101FF900001230977DD47C187F0A1230977D067CB9
:10200900F77F00122AAC80577D237C007F001230B5
:10201900977DD07C187F0A1230977D067CF67F0069
:10202900122AAC803A7D217C007F001230977DD442
:102039007C187F0A1230977D067CF77F00122AAC44
:10204900801D801B900038E0FEA3E0FFAC06EF4442
:1020590001FD7F071230977F14122E9B7F0122907A
:102069000038E0FEA3E0FFAC06EF4401FD7F071254
:0A20790030977F14122E9B7F002287
:0529950090017EEFF04F
:10299A007F1412320590001AE0FEA3E0FF7F007850
:1029AA0055A60608A60790017EE0FF7E00EF24FFE9
:1029BA00FFEE34FFFE7855E6FC08E6FDEE4CFCEF30
:1029CA004DFD7F0D122AAC900014E0FEA3E0FFEE4D
:1029DA0054C0FE7855A60608A6077855E6FC08E610
:0829EA00FD7F0A122AAC7F00F8
:0129F20022C2
:1029360090017FEFF090017FE0FFEF120871294EC2
:10294600022965040000298F900046E0FEA3E0FFFF
:10295600EE54BFFCEF54FBFD7F0E122AAC802D9087
:102966000046E0FEA3E0FFEE54BFFCEF54FBFD7F04
:102976000E122AAC900046E0FEA3E0FFAC06EF4440
:0F29860004FD7F0E122AAC80037F01227F002206
:102DC60090012EEBF0A3EAF0A3E9F0900131EDF0CB
:102DD6007F601232057F01122E9BC2A07F40122C0B
:102DE60004900131E0FF14F0EF601990012EE0FB32
:102DF600A3E475F0011206BBA9F0FA1205E6FF126C
:072E06002C0480DDD2A022A4
:102E0D00900132EBF0A3EAF0A3E9F0900135EDF07B
:102E1D007FE01232057F01122E9BC2A07FC0122CC3
:102E2D0004900135E0FF14F0EF60191229F39001C1
:102E3D0032E0FBA3E475F0011206BBA9F0FAEF1224
:072E4D00062C80DDD2A0225B
:0524AC00900180EFF03B
:1024B100900180E0FFEFC39402400B900180E0FFA8
:1024C100EFD3940740037F01227F1412320590005D
:1024D10032E0FEA3E0FFEF54F0FF7857A60608A60E
:1024E10007900180E0FF7E00EF25E0FFEE33FE78EC
:1024F10057E6FC08E6FDEE4CFEEF4DFFAC06EF445F
:1025010001FD7F04122AAC7F0A7E001230D17F01C7
:10251100122B047E00EF5480FFEF7807CEC313CE59
:0E25210013D8F9FFEF4E70047F0180027F0097
:01252F002289
:10253000784D76FF0876FF7F18123205900042E052
:10254000FEA3E0FFEE54FEFCAD077F0C1230977F38
:102550000F122EDFAC06EF4401FD7F0F1230977F84
:102560000F122EDFEF5401FF784CA607784D08E6D6
:1025700016188606700116FFEF4E6007784CE6FFCE
:10258000EF70DC784DE6FE08E6FFD3EF9400EE94A2
:1025900000400F7F0C122EDFEF54FFFF784CA60790
:0F25A0008004784C76007F14123205784CE6FFE9
:0125AF002209
:102CE8001222F3EFB404037F04227F141232057D0D
:102CF800457C007F08122AAC7D7F7C027F01122A66
:102D0800AC900044E0FEA3E0FFEE4404FCAD077F76
:102D18000D123097900048E0FEA3E0FFEE4402FC5D
:0A2D2800AD077F0F1230977F0022E5
:102D32007F141232057D457C007F08122AAC7D0586
:102D42007CFC7F01122AAC1222F3EFB404037F044D
:102D520022900004E0FEA3E0FFAC06EF4410FD7FEA
:102D620002122AAC900048E0FEA3E0FFEE4402FC0F
:0A2D7200AD077F0F1230977F00229B
:102D7C007F141232057D4D7C007F08122AAC7D0534
:102D8C007CFC7F01122AAC1222F3EFB404037F0403
:102D9C0022900004E0FEA3E0FFAC06EF4430FD7F80
:102DAC0002122AAC900048E0FEA3E0FFEE4402FCC5
:0A2DBC00AD077F0F1230977F002251
:101D94006020002A00210A24B80500000A2000243B
:101DA400000000010000000018D47009440008007D
:101DB400484520C060200000F7060000000011071D
:101DC40001700201400F2AC00045D2810004082599
:101DD4000127003F155F00004A0020037F840000B4
:051DE4000000000000FA
:0D324A0053FBFB53F3FB758F0843A8842250
:10313C0053FBFB43F30453FBFD43F30243FB0153EB
:10314C00F3FE43FA8053F27F53E47E43FA4053F28A
:0E315C00BF53FADF53F2DF12324A12327722EB
:03001E00C2A0225B
:03327700D2A022C0
:10319000900181EFF0900181E0FFEFB4010753FA55
:0F31A000BF43F2402243FA4053F2BF53E4BE2232
:052C0400900173EFF0E8
:102C0900900174E4F0900174E0FFEFC39408503729
:102C1900900173E0FFEF30E704D2968002C2967FFD
:102C2900017E001230D1D2977F017E001230D1C2CD
:102C390097900173E0FFEF25E0FF900173EFF090AB
:072C49000174E004F080BEFD
:012C50002261
:082B5A00900156EEF0A3EFF02C
:102B6200900158E4F0900158E0FFEFC39410503CFC
:102B7200900156E0FEA3E0FFEE30E704D296800219
:102B8200C296D2977F017E001230D1C29790015631
:102B9200E0FEA3E0FFEF25E0FFEE33FE900156EEEC
:0C2BA200F0A3EFF0900158E004F080B9BF
:012BAE002204
:1029F300900176E4F07F01123190900175E4F0903C
:102A03000175E0FFEFC394085038309614900176B7
:102A1300E0FFEF25E0FFEF4401FF900176EFF08048
:102A23000E900176E0FFEF25E0FF900176EFF0D204
:102A3300977F017E001230D1C297900175E004F0B8
:0C2A430080BD7F00123190900176E0FF12
:012A4F002264
:1026A70090015AE4F0A3E4F07F01123190900159B0
:1026B700E4F0900159E0FFEFC39410504A30961DA3
:1026C70090015AE0FEA3E0FFEF25E0FFEE33FEEFB7
:1026D7004401FF90015AEEF0A3EFF0801790015AE2
:1026E700E0FEA3E0FFEF25E0FFEE33FE90015AEE98
:1026F700F0A3EFF0D2977F017E001230D1C29790FE
:102707000159E004F080AB7F0012319090015AE04C
:04271700FEA3E0FF3E
:01271B00229B
:052FE10090015CEFF01F
:102FE60090015DE4F0A3E4F090015DE4F0A3E4F069
:102FF60090015CE0FF7E0090015DE0FCA3E0FDC374
:10300600ED9FEC9E5012000090015EE004F0700609
:0830160090015DE004F080D898
:01301E00228F
:08262E00900117EEF0A3EFF09C
:10263600900119E4F0A3E4F090011BE4F0A3E4F0A8
:10264600900119E4F0A3E4F0900117E0FEA3E0FF87
:10265600900119E0FCA3E0FDC3ED9FEC9E50419074
:10266600011BE4F0A3E4F090011BE0FEA3E0FFC32E
:10267600EF94DCEE9400501800000000000000000B
:1026860090011CE004F0700690011BE004F080D776
:1026960090011AE004F07006900119E004F080A899
:0126A6002211
:101DE9006020007E000000000000000000000000EC
:101DF90000000000000000000000000000000000DA
:101E09000000000041007C0041007D0041007A0093
:041E190041007B0009
:1025B000D28543F920C29FD29ED29C7E007F05EF38
:1025C0008EF012089725DD000125EA000225F700AC
:1025D0000326040004261100050000261E75BA0318
:1025E00075AA98438780D2DF803F75BA0375AACC5D
:1025F000438780D2DF803275BA0375AAE6438780AD
:10260000D2DF802575BA0375AAEF438780D2DF80B9
:102610001875BA0375AAF7438780D2DF800B75BAA5
:0E2620000375AA98438780D2DFD2ACD2AF22D6
:0300230002271C95
:10271C00C0E0C083C082C085C084C0925392FEC00A
:0B272C00D075D000C006C007309844F4
:10273700900182E4F0C298C29A90007AE0FFEF0419
:10274700FFEF541FFF900182EFF090007BE0FF90B6
:102757000182E0FEEE6F601C90007AE0FF747E2F2E
:10276700F582E43400F583E599F0900182E0FF906B
:04277700007AEFF005
:10277B00D007D006D0D0D092D084D085D082D08351
:03278B00D0E03269
:1031C800900183EFF0900183E0FF8F993099FD30F3
:0531D8009902C29922DA
:102E5400900136EBF0A3EAF0A3E9F0900139EDF02C
:102E64007859760078597600900139E0FF7859E670
:102E7400FEEEC39F5020900136E0FBA3E0FAA3E0EE
:102E8400F97859E6FF8F827583001205FFFF12312E
:062E9400C878590680D247
:012E9A002215
:10305B0090015FEBF0A3EAF0A3E9F090015FE0FBD6
:10306B00A3E0FAA3E0F91205E6FFEF601E90015F03
:10307B00E0FBA3E0FAA3E0F91205E6FF1231C890DA
:0C308B000160E475F0011206A580D0225F
:1021580090011DEBF0A3EAF0A3E9F0900120ECF068
:03216800A3EDF0F4
:10216B00784A76FF0876FF784876007848E6FF7E57
:10217B0000900120E0FCA3E0FDC3EF9DEE9C40032B
:10218B00022222784AE6FE08E6FF90011DE0FBA33F
:10219B00E0FAA3E0F97848E6FD8D8275830012051D
:1021AB00FFFD7C00EE6CFEEF6DFF784AA60608A6DD
:1021BB0007784976007849E6FFEFC39408505278C8
:1021CB004AE6FE08E6FFEF30E02D784AE6FE08E629
:1021DB00FFEEC313FEEF13FF784AA60608A6077897
:1021EB004AE6FE08E6FFEE64A0FEEF6401FF784AC4
:1021FB00A60608A6078015784AE6FE08E6FFEEC39A
:10220B0013FEEF13FF784AA60608A6077849068047
:0E221B00A4784806022176784AE6FE08E6FF1F
:012229002292
:1031DD00900184EFF0900184E0FF8F993099FD30DC
:0531ED009902C29922C5
:1031F200900185EFF0900185E0FF1231DD900185AD
:03320200E0FF22C8
:102F2100900186E4F090007AE0FF90007BE0FEEEF5
:102F31006F602790007BE0FF747E2FF582E4340000
:102F4100F583E0FF900186EFF090007BE0FFEF0456
:0F2F5100FFEF541FFF90007BEFF0900186E0FF31
:012F6000224E
:102F6100900187E4F090007AE0FF90007BE0FEEEB4
:102F71006F602790007BE0FF747E2FF582E43400C0
:102F8100F583E0FF900187EFF090007BE0FFEF0415
:0F2F9100FFEF541FFF90007BEFF0900187E0FFF0
:012FA000220E
:102BAF00900188E4F090007AE0FF90007BE0FEEE69
:102BBF00C39F501590007BE0FF90007AE0FEC3EEBC
:102BCF009FFF900188EFF0802690007AE0FF900041
:102BDF007BE0FEEED39F401790007BE0FFC3742095
:102BEF009FFF90007AE0FEEF2EFF900188EFF090AC
:042BFF000188E0FF6A
:012C030022AE
:0B32630043FBC053F53FD2A6D2A722C8
:10114E000A233E20000A53415249353120436F7025
:10115E0079726967687420323031322D3232000A6A
:10116E0053415249353120434C49000A2B3D3D3DF8
:10117E003D20436F6D6D616E64203D3D3D2B3D20E6
:10118E0046756E6374696F6E203D3D3D3D3D3D3D40
:10119E003D3D3D3D3D3D2B0A7C5452414320202098
:1011AE002020202020202020207C20547261636982
:1011BE006E672041646A75737420526164696F2092
:1011CE0020207C0A7C46524551203C76613E2020F0
:1011DE0020202020207C204765742F5365742046E4
:1011EE0072657175656E63792020202020207C0A3F
:1011FE007C434F4C43203C76613E20202020202013
:10120E00207C204765742F53657420434F4C432038
:10121E00202020202020202020207C0A7C444946AB
:10122E0046203C76613E202020202020207C204736
:10123E0065742F53657420446573697265644F66D7
:10124E006673657420207C0A7C52415445203C769E
:10125E00613E202020202020207C204765742F53C3
:10126E006574205246204261756472617465202057
:10127E0020207C0A7C54585057203C76613E20201A
:10128E0020202020207C204765742F536574205227
:10129E004620545820506F776572202020207C0AFB
:1012AE007C4C4F4144202020202020202020202034
:1012BE00207C205265616420466C61736820536502
:1012CE007474696E6773202020207C0A7C5341560B
:1012DE00452020202020202020202020207C20534C
:1012EE0061766520746F20466C6173682020202023
:1012FE002020202020207C0A2B2D2D2D2D2D2D2D34
:10130E002D2D2D2D2D2D2D2D2D2B2D2D2D2D2D2D01
:10131E002D2D2D2D2D2D2D2D2D2D2D2D2D2D2D2DEF
:10132E002D2D2B00676574206C696E6520666169D2
:10133E006C65640A000A636D64206572726F720ACE
:10134E0000FF114EFF1153FF116DFF117948454CEF
:10135E005000000000FF310954580000000000004A
:03136E00FF321734
:101E1D0041009E006020009F0000000000000000B7
:101E2D0000000000000000000000000000000000A5
:081E3D0000000000000000009D
:10310900900162EBF0A3EAF0A3E9F0900162E0FB21
:10311900A3E0FAA3E0F9900162EBF0A3EAF0A3E9D6
:10312900F0901358E493FB740193FA740293F91223
:033139000AE12286
:10321700900165EBF0A3EAF0A3E9F090009E74013A
:02322700F02293
:100EF9009000FEEBF0A3EAF0A3E9F0900101EDF018
:100F0900900102E4F0900104E4F0900105E4F0128C
:100F19002BAFEFD39400500302113A122F619001C5
:100F290003EFF0900103E0FFEF1208710F54000F77
:100F39006C0810BA0D111A11111A1310A51B0F6C98
:100F49007F0F9AAA0FE3BB000010E4900105E0FFB0
:100F5900EF6401600302111A7E007F012202111A57
:100F690002111A900102E0FFEF700302111A9001B9
:100F790002E014F09000FF74FF75F0FF1206A57FE0
:100F8900081231F27F201231F27F081231F2021178
:100F99001A9001057401F0900103E0FF9000FEE052
:100FA900FBA3E0FAA3E0F9EF12062C900103E0FF9E
:100FB900900104E0FE74102EF582E43401F583EF0C
:100FC900F0900104E004F09000FFE475F0011206CE
:100FD900A5900102E004F002111A900105E0FFEF6B
:070FE9006401600302111A0C
:100FF000900106E4F0900103E0FF9000FEE0FBA307
:10100000E0FAA3E0F9EF12062C900103E0FF900153
:1010100004E0FE74102EF582E43401F583EFF090C5
:101020000104E004F09000FFE475F0011206A590C1
:101030000102E004F0900106E4F0900106E0FFEF09
:10104000C394055050122F619000FEE0FBA3E0FA1C
:10105000A3E0F9EF12062C9000FEE0FBA3E0FAA358
:10106000E0F91205E6FF900104E0FE74102EF5820F
:10107000E43401F583EFF0900104E004F09000FF08
:10108000E475F0011206A5900102E004F09001065B
:10109000E004F080A57B007A0079001232177E0010
:0310A0007F0122AB
:1010A30080759000FEE0FBA3E0FAA3E0F9E41206EA
:1010B3002CE47E007F0022900103E0FF9000FEE01D
:1010C300FBA3E0FAA3E0F9EF12062C9000FFE4750E
:1010D300F0011206A5900102E004F0900103740AE6
:1010E300F0900103E0FF9000FEE0FBA3E0FAA3E031
:1010F300F9EF12062C9000FEE0FBA3E0FAA3E0F95F
:101103001205E6FF1231F29000FFE475F0011206BA
:10111300A5900102E004F0900101E0FFEF24FEFF3F
:10112300900102E0FEEEC39F500D900103E0FFEF3C
:10113300640A6003020F249000FEE0FBA3E0FAA31D
:0A114300E0F9E412062C7E007F01A3
:01114D00227F
:0B1592009000DEEBF0A3EAF0A3E9F00C
:10159D009000E3E4F0A3740AF09000E5E4F0A3E416
:1015AD00F09000E1E4F0A3E4F09000DEE0FBA3E0B6
:1015BD00FAA3E0F91205E6FFEFB42D159000E5E46E
:1015CD00F0A37401F09000DFE475F0011206A58020
:1015DD00439000DEE0FBA3E0FAA3E0F91205E6FF7D
:1015ED00EFB430309000DFE475F0011206A59000E5
:1015FD00DEE0FBA3E0FAA3E0F91205E6FFEFB47815
:10160D00139000DFE475F0011206A59000E3E4F0FD
:10161D00A37410F09000DEE0FBA3E0FAA3E0F91252
:10162D0005E6FFEF700302178B9000DEE0FBA3E0F1
:10163D00FAA3E0F91205E6FFC3EF648094B0403ED3
:10164D009000DEE0FBA3E0FAA3E0F91205E6FFD37C
:10165D00EF648094B950279000DEE0FBA3E0FAA37D
:10166D00E0F91205E6FFEF3395E0FEEF24D0FFEE33
:10167D0034FFFE9000E7EEF0A3EFF0021738900074
:10168D00DEE0FBA3E0FAA3E0F91205E6FFC3EF6489
:10169D008094E1403D9000DEE0FBA3E0FAA3E0F989
:1016AD001205E6FFD3EF648094E650269000DEE04D
:1016BD00FBA3E0FAA3E0F91205E6FFEF3395E0FE98
:1016CD00EF24A9FFEE34FFFE9000E7EEF0A3EFF05C
:1016DD0080599000DEE0FBA3E0FAA3E0F91205E6E5
:1016ED00FFC3EF648094C1500302178B9000DEE0BE
:1016FD00FBA3E0FAA3E0F91205E6FFD3EF648094B3
:10170D00C6507B9000DEE0FBA3E0FAA3E0F91205E2
:10171D00E6FFEF3395E0FEEF24C9FFEE34FFFE90B8
:10172D0000E7EEF0A3EFF0800280539000E3E0FEBF
:10173D00A3E0FF9000E7E0FCA3E0FDC3ED9FEE64A6
:10174D0080F8EC64809850369000E3E0FCA3E0FD57
:10175D009000E1E0FEA3E0FF12063E9000E7E0FC02
:10176D00A3E0FDEF2DFFEE3CFE9000E1EEF0A3EFC8
:10177D00F09000DFE475F0011206A502162190002D
:10178D00E5E0FEA3E0FFEF4E60119000E1E0FEA367
:10179D00E0FFC3E49FFFE49EFE80089000E1E0FEC1
:0317AD00A3E0FFB7
:0117B0002216
:0B1371009000E9EBF0A3EAF0A3E9F024
:10137C009000F2E4F09000F37420F07B007A007996
:10138C0000C003C002C0019000E9E0FBA3E0FAA397
:10139C00E0F9D082D083D0E06B7008E965827003ED
:1013AC00EA6583702B9000E9E0FBA3E0FAA3E0F977
:1013BC00C003C002C0019000ECE0FBA3E0FAA3E084
:1013CC00F91207999000E9E0FBA3E0FAA3E0F922F7
:1013DC009000E9E0FBA3E0FAA3E0F91205E6FFEFC9
:1013EC00642060139000E9E0FBA3E0FAA3E0F9129B
:1013FC0005E6FFEFB4223A9000E9E0FBA3E0FAA384
:10140C00E0F91205E6FFEFB4220C9000F37422F021
:10141C009000F27401F09000E9E0FBA3E0FAA3E085
:10142C00F9E412062C9000EAE475F0011206A5808E
:10143C009F9000E9E0FBA3E0FAA3E0F99000EFEB4A
:10144C00F0A3EAF0A3E9F09000EFE0FBA3E0FAA32D
:10145C00E0F91205E6FFEF640D60589000EFE0FB39
:10146C00A3E0FAA3E0F91205E6FFEF640A604490EA
:10147C0000F2E0FFEF60149000EFE0FBA3E0FAA3B2
:10148C00E0F91205E6FFEF642260289000F2E0FF1D
:10149C00EF70149000EFE0FBA3E0FAA3E0F9120563
:1014AC00E6FFEF6420600C9000F0E475F00112068A
:1014BC00A580949000EFE0FBA3E0FAA3E0F91205FD
:1014CC00E6FF9000F3E0FEEF6E60289000EFE0FB8B
:1014DC00A3E0FAA3E0F91205E6FFEF640D601490A7
:1014EC0000EFE0FBA3E0FAA3E0F91205E6FFEF64DE
:1014FC000A70489000EFE0FBA3E0FAA3E0F9E412D5
:10150C00062C9000F2E0FFEF60249000EFE0FBA3CC
:10151C00E0FAA3E0F91205E6FF9000F3E0FEEFB568
:10152C00060C9000F0E475F0011206A5800D9000F9
:10153C00F0E475F0011206A50214BF9000EFE0FB79
:10154C00A3E0FAA3E0F91205E6FFEF60139000EFB9
:10155C00E0FBA3E0FAA3E0F9C003C002C001800CD9
:10156C007B007A007900C003C002C0019000ECE05F
:10157C00FBA3E0FAA3E0F91207999000E9E0FBA3C2
:05158C00E0FAA3E0F904
:011591002237
:1017B1009000D1E4F0A37401F07B007A00790090ED
:1017C10000D3EBF0A3EAF0A3E9F07B007A00790003
:1017D1009000D6EBF0A3EAF0A3E9F07B007A007960
:1017E100009000D9EBF0A3EAF0A3E9F09000DDE46A
:1017F100F07B017A00799F7D20120EF99000D1EEE5
:10180100F0A3EFF09000D1E0FEA3E0FFEF4E700CEB
:101811007BFF7A137932120AE102198A7B017A007D
:10182100799FC003C002C0017B017A0079D9900081
:10183100ECEBF0A3EAF0A3E9F0D001D002D003125F
:1018410013719000D3EBF0A3EAF0A3E9F09000D379
:10185100E0FBA3E0FAA3E0F91205E6FFEF70030253
:10186100198A9000D3E0FBA3E0FAA3E0F99000D637
:10187100EBF0A3EAF0A3E9F09000D6E0FBA3E0FAD5
:10188100A3E0F91205E6FFEF60419000D6E0FBA36B
:10189100E0FAA3E0F91205E6FFEF6420602D900065
:1018A100D6E0FBA3E0FAA3E0F91205E6FF12322924
:1018B1009000D6E0FBA3E0FAA3E0F9EF12062C902A
:1018C10000D7E475F0011206A580AD9000DCE4F0CC
:1018D1009000DCE0FFC3EF64809482400302197042
:1018E1009000DCE0FFEF3395E0FE7C007D0B1206FB
:1018F1003E745B2FF974133EFA7BFFC003C002C034
:10190100019000D3E0FBA3E0FAA3E0F9A801AC0247
:10191100AD03D001D002D003120A20EF704890002D
:10192100D9E0FBA3E0FAA3E0F9C003C002C0019033
:1019310000DCE0FFEF3395E0FE90136375F00BEFF1
:1019410012076DEE75F00BA42583F583E493FB7408
:101951000193FA740293F989828A83D001D002D06B
:10196100031208C880099000DCE004F00218D1904D
:1019710000DCE0FFEFB402119000D1E4F0A3E4F049
:101981007BFF7A137943120AE19000D1E0FEA3E0D4
:01199100FF56
:011992002232
:101E4500013E03013D0002220000013B00013A0072
:101E5500062D4137313339000733000000000000FB
:101E650000092468656C6C6F77202100013C0047F0
:091E750001100000000000000053
:03001300020003E5
:10000300C0D075D000C000783D7601D000D0D0328A
:102FA10090013AEBF0A3EAF0A3E9F090013DEDF0D6
:102FB1007F141232057F0A7E0012262E90013AE01C
:102FC100FBA3E0FAA3E0F990013DE0FD122DC67FDD
:102FD1001A1232057F0A7E0012262E783E760222D0
:101EA20090013EE4F0A37401F0900140E4F0A3E459
:101EB200F0783DE6FFEF64016003021F77783EE6AB
:101EC200FFEF1208711EEB011F61021ED403000016
:101ED2001F737B007A0079337D06122E0D7F181254
:101EE2003205783E7601021F737B007A0079337DDA
:101EF20007122E0D7F181232057B007A0079337D8E
:101F0200057C001221587822A60608A6077822E648
:101F1200FE08E6FFEF54FFFF783BA6077822E6FEB5
:101F220008E6FFEEFF7E00EF54FFFF783AA607783F
:101F320038E6FF783AE6FEEE6F70367839E6FF78DB
:101F42003BE6FEEE6F702A7835E6FFEF640A7021F9
:101F52007B007A0079337D07122E54B2A68012B22A
:101F6200A77F181232057F0A7E0012262E783E764F
:101F720001783D760090009EE0FFEFB401107B01F6
:101F82007A0179107D07122FA190009EE4F0900152
:061F92003EE0FEA3E0FFAB
:011F98002226
:101E7E004401070000000042010C000042010E0068
:051E8E000041010B0002
:10323A00438910758DAE758B9F43884043A88822B9
:03001B000227FFBA
:1027FF00C0E0C083C082C085C084C0925392FEC027
:10280F00D075D000C006C007C2AB90010DE004F038
:10281F00700690010CE004F090010CE0FEA3E0FFC5
:10282F007E00EF547FFFEF4E701690010FE004F023
:10283F00700690010EE004F090010B7401F0B2A746
:10284F00758DAE758B9FD2ABD007D006D0D0D092FE
:0B285F00D084D085D082D083D0E0323E
:0830D100900142EEF0A3EFF0C4
:1030D900900144E4F0A3E4F0900142E0FEA3E0FF94
:1030E900900144E0FCA3E0FDC3ED9FEC9E501090DD
:0F30F9000145E004F07006900144E004F080D936
:0131080022A4
:052E9B00900168EFF05A
:102EA000900169E4F090016AE4F0900169E4F09027
:102EB0000168E0FF900169E0FEEEC39F50209001A1
:102EC0006AE4F090016AE0FFEFC394DC50089001DF
:0E2ED0006AE004F080ED900169E004F080D12A
:012EDE0022D1
:08002600900146EEF0A3EFF09B
:10002E0012326E900148EEF0A3EFF012326E900194
:10003E0048E0FCA3E0FDC3EF9DFFEE9CFE90014661
:0C004E00E0FCA3E0FDC3EF9DEE9C40DF52
:01005A002283
:09326E0090010CE0FEA3E0FF2238
:0C32570090010EE0FEA3E0FFE4FCFD226D
:061E930043016E00000097
:040016001231AF22D2
:101B05009000BFEBF0A3EAF0A3E9F09000C2ECF07F
:031B1500A3EDF04D
:101B18009000CBE4F0A3E4F07B007A007900C003E6
:101B2800C002C00190016EE0FBA3E0FAA3E0F9D087
:101B380082D083D0E06B7008E965827003EA658320
:101B480070099000CBE4F0A37401F09000C6E0FBAC
:101B5800A3E0FAA3E0F9C003C002C0019000BFE00F
:101B6800FBA3E0FAA3E0F975820275830012081856
:101B78009000C9E0FEA3E0FFAA06A9077B01C00305
:101B8800C002C0019000BFE0FBA3E0FAA3E0F97532
:101B980082057583001208189000C2E0FEA3E0FFDA
:101BA8009000BFE0FBA3E0FAA3E0F9EE8FF0120685
:101BB800FC9000BFE0FBA3E0FAA3E0F990016EEB14
:101BC800F0A3EAF0A3E9F09000C9E0FEA3E0FF8FDC
:101BD800828E83E0FEA3E0FF9000C2E0FCA3E0FD5C
:101BE800C3ED9FFFEC9EFE9000CDEEF0A3EFF090CA
:101BF80000CDE0FEA3E0FF7C067D4A12065090016E
:101C080079EFF0900179E0FF7E007C067D491206AD
:101C18003E9000CDE0FCA3E0FDC3ED9FFFEC9EFEEF
:101C28009000CFEEF0A3EFF09000CBE0FEA3E0FF32
:101C3800EF64014E700B9000CFE0FEA3E0FF12317D
:061C48006AE47E007F004B
:011C4E002273
:102083007B007A007900C003C002C00190016EE0BA
:10209300FBA3E0FAA3E0F9D082D083D0E06B700811
:1020A300E965827003EA6583700302215790016E2C
:1020B300E0FBA3E0FAA3E0F990016BEBF0A3EAF0F5
:1020C300A3E9F07B007A00790090016EEBF0A3EABC
:1020D300F0A3E9F090016BE0FBA3E0FAA3E0F9AE13
:1020E30002AF0190016BE0FBA3E0FAA3E0F9758274
:1020F300057583001207E8AC02AD0190016BE0FBAC
:10210300A3E0FAA3E0F97582027583001207E88958
:10211300828A831208C87B007A007900C003C00258
:10212300C00190016EE0FBA3E0FAA3E0F9D082D0F6
:1021330083D0E06B7008E965827003EA65836014FD
:1021430090016EE0FBA3E0FAA3E0F91206D1FFAE23
:04215300F012316AEB
:012157002265
:081E99004101790041017A00CA
:1031AF0075CD0075CC0075CB0075CA0075C3C075A1
:0931BF00C20043C89543C1082277
:10316A00900177EEF0A3EFF0900177E0FEA3E0FF85
:10317A008FC2900177E0FEA3E0FFEEFF7E008FC3CF
:06318A0043C108D2BB2284
:03005B0002286A0E
:10286A00C0E0C0F0C083C082C085C084C0925392C9
:10287A00FEC0D075D000C000C001C002C003C004B1
:10288A00C005C006C007C2BB90017AE004F09001FF
:10289A0079E0FF90017AE0FEEEB5070812208390F6
:1028AA00017AE4F0D2BBD007D006D005D004D00319
:1028BA00D002D001D000D0D0D092D084D085D0829E
:0728CA00D083D0F0D0E03212
:10005E0002041FE86480F8E933E83360110460F0AD
:10006E00ED33EC337009E8FCE9FDEAFEEBFF220408
:10007E0060DED3EB9FEA9EE99DE8C2E78CF0C2F703
:10008E0095F0400CE8CCF8E9CDF9EACEFAEBCFFBCF
:10009E001203EA85D0F05804700320D5B3E804703B
:1000AE00075002B2D502042992D5EC0460F7E4CCD5
:1000BE00C0E0C398F8603B94186008400DD0E0FB98
:1000CE00020401E4FBFAC9FC8028E830E406E4C926
:1000DE00FBE4CAFCE830E305E4C9CACBFCE85407EC
:1000EE006010F8C3E913F9EA13FAEB13FBEC13FCF7
:1000FE00D8F130F52FC3E49CFCEF9BFFEE9AFEED9A
:10010E0099FDD0E0FBEF4E4D4C701222DB03020442
:10011E0026EC2CFCEF33FFEE33FEED33FDED30E736
:10012E00EB020401EF2BFFEE3AFEED39FDD0E0FBC2
:10013E0050130BBB0003020429ED13FDEE13FEEF6B
:08014E0013FFEC13FC02040195
:10015600EC4D6011E8497017ED33EC3304600DE4A3
:10016600FCFFFEFD22E933E8330470F802041F1297
:1001760003EA58046009E4CC248150062850090299
:100186000429284003020426C0E0EB4A7044B980E3
:1001960006D0E0FB020415EF4E701CBD8008EBFF95
:1001A600EAFEE9FD80EBE98DF0A4FEE5F002023FF0
:1001B600E9CDF9EAFEEBFFEF89F0A4FCE5F0CE8984
:1001C600F0A42EFFE435F0CD89F0A42DFEE435F041
:1001D6008067EF4E7005BD80D780C3EF8BF0A4AC6F
:1001E600F0EE8BF0A42CFCE435F0F8EF8AF0A42CAA
:1001F600E5F038FCE433CB8DF0A42CFCE5F03BF8BD
:10020600EE8AF0A42CFCE5F038F8E433CF89F0A4AC
:100216002CFCE5F038CF3400CE89F0A42FFFE5F0B2
:100226003EFEE433C98DF0A42EFEE5F039CD8AF00A
:10023600A42FFFE5F03EFEE43DFD33D0E0FB500782
:100246000BBB000F020429EC2CFCEF33FFEE33FE50
:06025600ED33FD0204017E
:10025C00020429EC5D046005E85904700302041FD4
:10026C001203EA580460F6EC4860F2EC7004FDFEF0
:10027C00FF22C860DB2481C85009C3986002500675
:10028C000204269850CAF582E9294B4A7005AB82C4
:10029C0002041575F0007C1A7880C3EF9BEE9AED82
:1002AC0099400DC3EF9BFFEE9AFEED99FDE842F0ED
:1002BC00DC23ACF0D0E0FFD0E0FED0E0FDAB822040
:1002CC00E7101BEB60BAEC2CFCEF33FFEE33FEEDCA
:1002DC0033FD020401E803F830E705C0F075F000C7
:1002EC00EF2FFFEE33FEED33FD40B830E7C280AAAE
:1002FC0074F8CC6480CCC86480C8F58204604FC3A9
:10030C00EB9FF5F0EA9E42F0E99D42F0E89C45F047
:10031C00603C501DE5825FFFE582D313CB5BCBF4D1
:10032C002B5582FB50280ABA002409B900200880FA
:10033C001DE5825BFBE582D313CF5FCFF4C3132F94
:10034C005582FF50090EBE00050DBD00010CC3EB1C
:10035C009FF5F0EA9E42F0E99D42F0E89C45F06082
:09036C0007CC4820E701B3EC22A4
:1003750075F020800E75F010800575F0087D007E03
:10038500007F003392D530D50312071BEC334010A4
:10039500EF33FFEE33FEED33FDEC33FCD5F0ED220C
:0E03A500E5F0247EA2D513CC92E7CDCEFF2248
:1003B300EDD2E7CD33EC3392D524814006E4FFFE42
:1003C300FDFC22FCE4CFCECDCC24E0501174FF80A1
:1003D300EDC3CC13CCCD13CDCE13CECF13CF04703E
:0703E300F030D5DE02071B1C
:100A7600E508244DF582E43400F583E0050822906C
:100A8600004A30070390004DE475F0011207790221
:100A960005E62000E97F2ED2008018EF540F24903F
:100AA600D43440D4FF30040BEF24BFB41A005003F3
:100AB6002461FFE50960021509050CE50C700205C5
:100AC6000B30070E90004AE475F001120779EF0229
:100AD600062C0231F27403D2078003E4C207F5083C
:100AE60090004A120790E4F509F50BF50CE509604C
:100AF600077F20120AB980F5750AFFC201C200C23B
:100B060002C203C205C206C208120A85FF700D3072
:100B160007057F00120ACAAF0CAE0B22B4255FC2CE
:100B2600D5C204120A85FF24D0B40A00501A75F003
:100B36000A780930D50508B6FF0106C6A426F620B0
:100B4600D5047002D20380D924CFB41A00EF500422
:100B5600C2E5D204020DBCD20180C6D20080C0D24A
:100B66000280BCD2D580BAD20580B47F20120AB9E1
:100B76002002077401B5090040F1120A76FF120A35
:100B8600B9020AF3D208D2068095120A76FB120A37
:100B960076FA120A76F94A4B700679BA7A0E7BFF14
:100BA60020022EE509602A7E008E827583001205DA
:100BB600FF60060EEE650A70F0C2D5EBC0E0EAC033
:100BC600E0E9C0E0EE120E1DD0E0F9D0E0FAD0E088
:100BD600FB1205E6FF60AAEBC0E0EAC0E0E9C0E070
:100BE600120AB9D0E02401F9D0E03400FAD0E0FBD3
:100BF600E50A0460DCD50AD98087D20280A2120DEC
:100C0600FF60F7E50A700104120434A90A600DE5D5
:100C16000A600914F50A120EA7EF60F3EA30E7023C
:100C2600F404C3995079EAF4250A0430E701E40490
:100C3600F50A800D120DFF60C1EA050A250A1204A5
:100C460034EA900079F030E701E4250A04D50A0475
:100C560020050114120E1DE4C0E0120EA7900079C3
:100C6600E0601320E70714F0120AA1802204F0D0F6
:100C7600E014C0E07F00120AA1E50A6007120A9894
:100C8600150A800B300503120A98D0E0020AF3D049
:100C9600E00480C4120DFF609EE50A04120434903D
:100CA6000079EAF0E50A2005026001042404120E28
:010CB6001D20
:100CB70074FF04C0E0120EA7120AA1E50A2005027C
:100CC7006003120A98D0E0B50AE87F45120AAB9094
:100CD7000079E07F2B30E7047F2DF404C0E0120A8F
:100CE700B9D0E075F00A84C0F0120AA2D0E0120A67
:100CF700A2020AF3791080027908C206C2088008A6
:100D0700D2D5790A8004790AC2D5E50A047002F5BA
:100D17000AE4FAFDFEFF120A76FC7B082001131293
:100D27000A76FD7B1030000A120A76FE120A76FF59
:100D37007B20EC3382D592D55013C3E43000069F55
:100D4700FFE49EFEE42001039DFDE49CFCE4CBF858
:100D5700C201EC700CCFCECDCCE824F8F870F3804C
:100D670017C3EF33FFEE33FEED33FDEC33FCEB330C
:100D7700FB994002FB0FD8E9EB300105F8D0E0C43E
:100D870048B201C0E00AEC4D4E4F78207B0070C29C
:100D9700EAB50A0040BCC0E0120E1FD0F0D0E02038
:100DA7000104C4C0E0C4B201C0F0120AA2D0F0D559
:100DB700F0EB020AF31208710B90530CFB580B610E
:100DC7004C0B5D420CFF4F0D07440D07490B764353
:100DD7000D0D550C3A460C9A450C04470EDA500B8C
:100DE700652D0B692E0B8C2B0B6D230B8A200EC3E5
:100DF7002A0B254800000B84E50AB4FF03750A0691
:100E0700120A76FC120A76FD120A76FE120A76FF9D
:100E1700900072020471790AA2D5200314300509E3
:100E2700B910020404B9080104A2D5200602500132
:100E3700042002689202B509005034C0E07F2030D8
:100E470003197F30A20272067205500F120E76C286
:100E570002C206C205C2087F30800F300503E9C011
:100E6700E0120AB9300503D0E0F9D0E0B509CC307B
:100E770005177F30B9100C120AB97F583004077F65
:100E8700788003B90803120AB93002057F2D020AD8
:100E9700B97F202008F87F2B2006F322920280CF0B
:100EA7007F00B40700500B2472F582E43400F58309
:100EB700E0FF22286E756C6C2900D201120A763089
:100EC70001F8C201780930D50108F6020B252D502B
:100ED700434958120A762403B405004001E4900EF2
:100EE700D593120AAA743A120AAAD2037509040200
:020EF7000CFBF2
:1003EA00E9D2E7C933E833F892D5EDD2E7CD33EC59
:0703FA0033FC5002B2D522D2
:10040100EC30E7100FBF000C0EBE00080DBD00045C
:100411000BEB6014A2D5EB13FCED92E7FD2274FF08
:10042100FCFDFEFF22E480F8A2D574FF13FC7D8061
:03043100E480EF75
:10043400F920E73624F950037907E4F42402FBE5B4
:1004440082158270021583DBF6E024FB501BE96001
:1004540014E4F0E582158270021583E004F0B40A16
:0D04640008E4F0D9EE7401F00A22C2D5229E
:10047100ED33EC3392D5FA602AB4FF33EDC2E77B5A
:10048100FF60067A047996E4227A04799F20D504E4
:100491007A04799A224E614E002B494E46002D492D
:1004A1004E4600E47A08F0A3DAFC7B00740722C010
:1004B10083C082ECC0E0EDC0E0EEC0E0EFC0E0EA56
:1004C10075F010A4CAABF075F04DA42BFBE435F028
:1004D100FCEA2410FAEB34C5FBEC34D9FCEDC2E79D
:1004E100FF75F056A4F42411C5F0F434C58FF0A4BF
:1004F1002AE5F03BE43CF020E7141205A6D0E0FF2A
:10050100D0E0FED0E0FDD0E0FC12025F8014F404E4
:100511001205A6D0E0FFD0E0FED0E0FDD0E0FC1255
:100521000156D082D083E0FAEDD2E7CD33EC33240B
:1005310082FBE4C3CF33CFCE33CECD33CD33DBF328
:100541007B0775F00A846004F0A31B0AE5F0F0A3B1
:100551008FF0740AA4FFACF08EF0740AA42CFEACE8
:10056100F050010C8DF0740AA42CFDE435F0F0A3D9
:05057100DBDE7407222F
:100576003F8000004120000042C80000447A00008D
:10058600461C400047C35000497424004B1896800F
:100596004CBEBC205A0E1BCA6753C21C749DC5AE06
:1005A600FB60065407601C23231205D4EB54386005
:1005B600091205C01205CF120156ECF8EDF9EEFA54
:1005C600EFCB22EB1205CF80F1543803241C9005A3
:1005D60076FE93FC0EEE93FD0EEE930ECE93FF2267
:1023A500022425E493A3F8E493A34003F68001F205
:1023B50008DFF48029E493A3F85407240CC8C33339
:1023C500C4540F4420C8834004F456800146F6DF08
:1023D500E4800B0102040810204080901D8FE47EEC
:1023E500019360BCA3FF543F30E509541FFEE493FD
:1023F500A360010ECF54C025E060A840B8E493A3C4
:10240500FAE493A3F8E493A3C8C582C8CAC583CAEE
:10241500F0A3C8C582C8CAC583CADFE9DEE780BEA6
:011EA1000040
:1005E600BB010689828A83E0225002E722BBFE0213
:0905F600E32289828A83E4932246
:1005FF00BB010CE58229F582E5833AF583E02250B1
:10060F0006E92582F8E622BBFE06E92582F8E222FA
:0D061F00E58229F582E5833AF583E4932214
:10062C00BB010689828A83F0225002F722BBFE01AD
:02063C00F322A7
:10063E00EF8DF0A4A8F0CF8CF0A428CE8DF0A42ED0
:02064E00FE228A
:10065000BC000BBE0029EF8DF084FFADF022E4CC8E
:10066000F875F008EF2FFFEE33FEEC33FCEE9DEC57
:10067000984005FCEE9DFE0FD5F0E9E4CEFD22ED9D
:10068000F8F5F0EE8420D21CFEADF075F008EF2FE7
:10069000FFED33FD4007985006D5F0F222C398FDD8
:0506A0000FD5F0EA2275
:1006A500C5F0F8A3E028F0C5F0F8E58215827002E0
:0606B5001583E038F0227D
:1006BB00A3F8E0C5F025F0F0E582158270021583F2
:0606CB00E0C838F0E8224F
:1006D100BB010A89828A83E0F5F0A3E022500687F4
:1006E100F009E71922BBFE07E3F5F009E3192289B6
:0B06F100828A83E493F5F074019322E9
:1006FC00BB010A89828A83F0E5F0A3F0225006F749
:0F070C0009A7F01922BBFE06F3E5F009F3192245
:0E071B00C3E49FFFE49EFEE49DFDE49CFC22EF
:10072900E8600FECC313FCED13FDEE13FEEF13FFAE
:03073900D8F122D2
:0C073C00E6FC08E6FD08E6FE08E6FF22E9
:0D074800E6FB08E6F908E6FA08E6CBF82221
:0C075500ECF608EDF608EEF608EFF622D0
:0C076100ECF0A3EDF0A3EEF0A3EFF0220B
:0C076D00A42582F582E5F03583F5832297
:10077900F8E0FBA3A3E0F925F0F0E5821582700209
:070789001583E0FA38F022AD
:09079000EBF0A3EAF0A3E9F0226A
:10079900BB011A89828A83D0F0D0E0F8D0E0F9D081
:1007A900E0FAD0E0FBE8C0E0C0F00207905016E99B
:1007B900F8D083D082D0E0F9D0E0FAD0E0FBC08253
:1007C900C083020A46BBFE16E9F8D083D082D0E086
:0F07D900F9D0E0FAD0E0FBC082C083020A6122AF
:1007E800BB010DE58229F582E5833AF583020A4FBC
:1007F8005007E92582F8020A3DBBFE07E92582F881
:10080800020A58E58229F582E5833AF583020A6AE5
:10081800BB0120E58229F582E5833AF583D0F0D043
:10082800E0F8D0E0F9D0E0FAD0E0FBE8C0E0C0F0B2
:100838000207905018E92582F8D083D082D0E0F9D9
:10084800D0E0FAD0E0FBC082C083020A46BBFE18A3
:10085800E92582F8D083D082D0E0F9D0E0FAD0E060
:09086800FBC082C083020A612278
:10087100D083D082F8E4937012740193700DA3A316
:1008810093F8740193F5828883E47374029368602A
:06089100EFA3A3A380DF2A
:10089700D083D082F8E4937012740193700DA3A3F0
:1008A70093F8740193F5828883E473740293B5F027
:0D08B700067403936860E9A3A3A3A380D88F
:0608C4008A838982E473BF
:10322900EFC39461400AEF947B5005EF24E0FF223D
:013239002272
:1008CA00E3F5F009E208B5F06D606B80F3E3F5F04B
:1008DA0009E608B5F060605E80F387F009E608B5BE
:1008EA00F054605280F487F009E208B5F048604697
:1008FA0080F488828C8387F009E0A3B5F0386036EB
:10090A0080F488828C8387F009E493A3B5F027608A
:10091A002580F388828C83E3F5F009E0A3B5F0160D
:10092A00601480F388828C83E3F5F009E493A3B51D
:10093A00F004600280F20209E1808580E7808E80FF
:10094A00D28032801580628074809B80B5808B80D3
:10095A00A18045806680300209ED88848C85898271
:10096A008A83E493F5F0A30592E493A31592B5F074
:10097A0066606480ED89828A83E493F5F0A3E208D5
:10098A00B5F054605280F289828A83E0F5F0A3E6DA
:10099A0008B5F043604180F389828A83E0F5F0A3C9
:1009AA00E208B5F032603080F389828A83E493F5F5
:1009BA00F0A3E608B5F020601E80F2803F88848CA0
:1009CA008589828A83E493F5F0A30592E0A31592C0
:1009DA00B5F004600280EE7FFFB5F0020F224002FC
:1009EA007F012288848C8589828A83E0F5F0A305B9
:1009FA0092E0A31592B5F0DF60DD80EF88848C85E4
:100A0A0089828A83E0F5F0A30592E493A31592B54F
:100A1A00F0C560C380EE88F0ED2402B4040050B73C
:100A2A00F582EB2402B4040050AD232345822390BF
:030A3A00094373FA
:090A3D00E6FB08E6FA08E6F922DE
:090A4600EBF608EAF608E9F622D5
:090A4F00E0FBA3E0FAA3E0F922A8
:090A5800E2FB08E2FA08E2F922CF
:090A6100EBF208EAF208E9F222C6
:0C0A6A00E493FB740193FA740293F922E8
:00000001FF
