:03000000021D637B
:0C1D6300787FE4F6D8FD758121021DAAEE
:0A3FF600FFFFFFFFFFFFF75AA5AF22
:1026B800613731333920696E697469616C206661EC
:0526C800696C210A000D
:10211900E49000A3F0A3F075865A122784120003F5
:1021290012216A1227A97F0A12271B12257A7F0A10
:1021390012271B7F217E807DED7C43122205EF60F3
:10214900097BFF7A2679B8120A8F7F1812274F7FE9
:102159000A12271B12191C7F0A12271B12133B8014
:01216900F382
:0C254B009000A1E04402FCA3E0FD7F0F23
:102557009000BCECF0A3EDF0C2A0EF1224117F01B4
:102567007E001227099000BCE0FEA3E0FF1223D3F0
:03257700D2A022CD
:10268600E4FDFCC2A0EF4480FF1224117F017E000E
:082696001227091220C1D2A095
:01269E002219
:0C244A0090005DE0FCA3E04410FD7F0268
:082456009000ABECF0A3EDF0E7
:10245E00EFC454F0FE900091E04EFEA3E0FDAC06FA
:10246E007F071225579000ABE0FCA3E0FD7F08022A
:02247E002557E0
:0824B5009000BAECF0A3EDF079
:1024BD007E00EF7807C333CE33CED8F9FF9000916D
:1024CD00E04EFEA3E04FFDAC067F071225579000AE
:0B24DD00BAE0FCA3E0FD7F09022557D8
:10266B00EFC454F0FE900091E04EFEA3E0FDAC06EB
:0A267B007F071225577F08122686FC
:012685002232
:101CA900E49000A9F09000A9E0FFC39408501F75C3
:101CB900F002EFA42483F582E5F03400F583E0FC1B
:101CC900A3E0FD1225579000A9E004F080D7900009
:101CD900A9740AF09000A9E0FFC39410501F75F091
:101CE90002EFA42483F582E5F03400F583E0FCA338
:101CF900E0FD1225579000A9E004F080D7E4900098
:101D0900A9F09000A9E0FFC39410501F75F002EFED
:101D1900A42459F582E5F03400F583E0FCA3E0FD45
:101D29001224569000A9E004F080D7E49000A9F0AD
:101D39009000A9E0FFC39405501F75F002EFA42499
:101D490079F582E5F03400F583E0FCA3E0FD122487
:091D5900B59000A9E004F080D768
:011D6200225E
:1016EE00E4FF1226869000A9EEF0A3EFF09000A181
:1016FE00E04408FCA3E04402FD7F0F1225577F0F44
:10170E001226869000A9EEF0A3EFF0EE5408FEEF3D
:10171E0054024E70E97F0E1226869000A9EEF0A3B9
:10172E00EFF09000A9E0C4F854F0C8A3E0C4540F41
:10173E0048540160037F04227F0A12266B9000A991
:10174E00EEF0A3EFF09000A9E0C4F854F0C8A3E0C7
:10175E00C4540F48540160037F04227D007C4C7FEB
:10176E000C1225577D007CF87F02122456900059EA
:10177E00E044E0FCA3E0FDE4FF1224569000A1E05B
:10178E0044101225517F0F1226869000A9EEF0A369
:10179E00EFF0EE20E4EF90009BE0FCA3E0FD7F0C69
:1017AE0012255790005DE0FCA3E0FD7F0212245647
:1017BE00900059E0FCA3E0FDE4FF1224569000A136
:1017CE00E0FCA3E04404FD7F0F1225577F0F122685
:1017DE00869000A9EEF0A3EFF020E2F07F0E122625
:1017EE00869000A9EEF0A3EFF09000A9E0540160FE
:0617FE00037F04227F00BE
:0118040022C1
:0615CF009000A912073C88
:1015D5007BCD7ACC794C78419000A9E0FCA3E0FD65
:1015E500A3E0FEA3E0FF12025F9000AD12073C905E
:1015F50000ADE0FCA3E0FDA3E0FEA3E0FF1203B312
:101605009000B1EFF0FCE412037FA804A905AA0637
:10161500AB079000ADE0FCA3E0FDA3E0FEA3E0FF77
:101625001200619000B212073CE4FFFE7D807C470A
:101635009000B2E0F8A3E0F9A3E0FAA3E0FB120101
:10164500561203B39000B6EEF0A312274B90008913
:10165500E0547FFEA3E0FF9000B8EEF0FCA3EFF0AE
:10166500FD7F0312255790008FE0540FFEA3E0FF86
:101675009000B8EEF0FCA3EFF0FD7F06122557E4CD
:10168500FFFE7D577C449000A9E0F8A3E0F9A3E0B4
:10169500FAA3E0FB1202FC90008BE0500454EF80AB
:1016A500024410FFA3E09000B8CFF0A3EFF0900044
:1016B500B8E0FCA3E0FD7F04122557900085E0FE0D
:1016C5007F009000B8F0A3EFF09000B1E0FDEEFCD4
:1016D5000F1225579000B6E0FCA3E0FD7F0212250E
:0916E50057E4FDFC7F020224B56C
:101EDB0090014B74FFF0A3F0A3F012244A9000770B
:101EEB00E0FCA3E04401FD7F0F1224567F0F122666
:101EFB006B7E00EF5401FF600E90014C74FFF5F008
:101F0B001206BB45F070E57F0F12266BEE5403C330
:101F1B0013FEEF13FFD394BAEE9400400BEF94C66D
:101F2B00EE940050037F052290014BE0FF14F0EF7D
:041F3B0070AB7F0404
:011F3F00227F
:04274B00EFF07F1418
:08274F00C2A0122411D2A02245
:102205009000A512073CD2A0C2977F7012274F7F7E
:102215000A12271B121CA97F0A12271B7F8C7EC559
:102225007D757C341220037F0112271B9000A5E0E9
:10223500FCA3E0FDA3E0FEA3E0FF1215CF7F0A1289
:06224500271B1216EE2219
:102003009000A912073CC2A07F201224119000A9BE
:10201300E0FCA3E0FDA3E0FEA3E0FF78181207298C
:102023001224119000A9E0FCA3E0FDA3E0FEA3E0CD
:10203300FF78101207291224119000A9E0FCA3E0F5
:10204300FDA3E0FEA3E0FF780812072912241190F4
:0F20530000A9A3A3A3E0FF122411D2A07F0022B3
:10269F00900091E054F7FCA3E054CFFDECFE7F07D0
:0826AF001225577F091226864F
:0126B7002200
:101BE10090015612274B7F1412271B900091E0FCA5
:101BF100A3E054FEFD7F07122557900156E024F61D
:101C0100602B24D8603F24CE605324CE7003021C85
:101C110092249470657D217C66E4FF1225577DD462
:101C21007C187F0A1225577D057CF580467D217C35
:101C310012E4FF1225577DD47C187F0A1225577DA7
:101C4100067CF7802E7D237C00E4FF1225577DD092
:101C51007C187F0A1225577D067CF680167D217C33
:101C610000E4FF1225577DD47C187F0A1225577D89
:101C7100067CF7E4FF1224568017900091E0FCA344
:101C8100E04401FD7F071225577F1412271B7F01B6
:101C910022900091E0FCA3E04401FD7F071225574B
:081CA1007F1412271B7F0022B3
:032356009001579C
:1023590012274B900073E07F00780DF6FE08EFF628
:10236900900157E024FFFDE434FF4EFC7F0D122459
:102379005690006DE054C0FEA3E0FF780DEEF6FC28
:0B23890008EFF6FD7F0A1224567F00CB
:012394002226
:10239500EF24FC60112402702F90009FE054BFFCD5
:1023A500A3E054FB801A90009FE054BFFCA3E054C7
:1023B500FBFD7F0E12245690009FE0FCA3E0440431
:0E23C500FD7F0E12245680037F01227F00222E
:102290009000ACEBF0A3EAF0A3E9F0A3EDF07F60CF
:1022A00012274F7F0112271BC2A07F40801E900083
:1022B000AFE0FF14F0EF60199000ACE0FBA3E47511
:1022C000F0011206BBA9F0FA1205E6FF12241180F4
:0422D000DDD2A02299
:10224B009000A8EBF0A3EAF0A3E9F0A3EDF07FE098
:10225B0012274F7F0112271BC2A07FC0122411909F
:10226B0000ABE0FF14F0EF60191222D49000A8E04D
:10227B00FBA3E475F0011206BBA9F0FAEF12062CD2
:05228B0080DDD2A0225D
:05206200900158EFF0B1
:10206700C394024006E0D3940740037F01227F1404
:1020770012274F90008BE0FEA3E054F0FDAC0690D2
:102087000158E025E0FFE4334CFEEF4DAC06440178
:10209700FD7F041224567F0A7E001227097F011252
:1020A700266B7E00EF54807807CEC313CE13D8F982
:0920B7004E70047F0180027F00DD
:0120C00022FD
:101E6A0074FF90014FF0A3F07F1812274F90009B48
:101E7A00E054FEFCA3E0FD7F0C1225577F0F1226CB
:101E8A0086AC06EF4401FD7F0F1225577F0F1226FD
:101E9A0086EF540190014EF0A374FFF5F01206BBD1
:101EAA0045F0600690014EE070E2D3900150E09454
:101EBA000090014FE0940040087F0C122686EF80C4
:101ECA0001E490014EF07F1412274F90014EE0FF7B
:011EDA0022E5
:10002600121EDBBF04037F04227F1412274F7D4577
:100036007C007F081224567D7F7C027F01122456A5
:1000460090009DE04404FCA3E0FD7F0D12255712AD
:05005600254B7F002294
:1025D4007F1412274F7D457C007F081224567D0509
:1025E4007CFC7F01122456121EDBBF04037F0422ED
:0925F40012244A12254B7F00223B
:102480007F1412274F7D4D7C007F081224567D0556
:102490007CFC7F01122456121EDBBF04037F042242
:1024A00090005DE0FCA3E04430FD7F021224561250
:0524B000254B7F002216
:101499006020008300210A24B80500000A200024E6
:1014A900000000010000000018D470094400080081
:1014B900484520C060200059F706000000001107C8
:1014C90001700201400F2AC00045D281000408259D
:1014D9000127003F155F00004A0079037F8400005F
:0514E9000000000000FE
:0D273E0053FBFB53F3FB758F0843A8842267
:10257A0053FBFB43F30453FBFD43F30243FB0153B9
:10258A00F3FE43FA8053F27F53E47E43FA4053F258
:0D259A00BF53FADF53F2DF12273E02001E8E
:03001600C2A02263
:03001E00D2A0224B
:1026CD00EFB4010753FABF43F2402243FA4053F2ED
:0526DD00BF53E4BE2222
:052411009000BEEFF099
:10241600E4A3F09000BEE030E704D2968002C296B4
:102426007F017E00122709D2977F017E00122709BD
:10243600C2979000BEE025E0F0A3E004F0E0C3946C
:032446000840D07B
:012449002270
:0823D3009000BEEEF0A3EFF054
:1023DB00E4A3F09000BEE0A330E704D2968002C2E3
:1023EB0096D2977F017E00122709C2979000BFE01B
:1023FB0025E0F09000BEE033F09000C0E004F0E088
:05240B00C3941040CE57
:0124100022A9
:1022D400E49000ADF07F011226CDE49000ACF090C4
:1022E40000ADE030960725E04401F0800325E0F0DE
:1022F400D2977F017E00122709C2979000ACE004B8
:10230400F0E0C3940840D8E4FF1226CD9000ADE07D
:01231400FFC9
:0123150022A5
:1020C100E49000ACF0A3F07F011226CDE49000ABC8
:1020D100F09000ADE025E0309612FF9000ACE033C7
:1020E100FEEF4401FFEEF0A3EFF08007F09000ACAB
:1020F100E033F0D2977F017E00122709C29790004A
:10210100ABE004F0E0C3941040C7E4FF1226CD9089
:0721110000ACE0FEA3E0FFBB
:0121180022A4
:1014EE00602000E800000000000000000000000086
:1014FE0000000000000000000000000000000000DE
:0C150E00000000004100E6004100E70082
:10216A00D28543F920C29FD29ED29CE47011740595
:10217A0024FE600D14601214601714601C2404807D
:10218A002075BA0375AACC801E75BA0375AAE680B3
:10219A001675BA0375AAEF800E75BA0375AAF78089
:1021AA000675BA0375AA98438780D2DFD2ACD2AF3C
:0121BA002202
:03002300021FA316
:101FA300C0E0C083C082C085C084C0925392FEC08B
:0B1FB300D075D000C006C00730983287
:101FBE009000E2E4F0C298C29A9000E6E0FF04546A
:101FCE001FFE9000E2F09000E7E06E601574E82FBF
:101FDE00F582E43400F583E599F09000E2E090009C
:021FEE00E6F01B
:101FF000D007D006D0D0D092D084D085D082D083E4
:03200000D0E032FB
:0B2763008F993099FD309902C2992235
:0B276E008F993099FD309902C299222A
:0B25A7009000A8EBF0A3EAF0A3E9F01D
:1025B200E4FEEEC39D501A9000A8E0FBA3E0FAA34C
:1025C200E0F98E827583001205FFFF12276E0E80DE
:0125D200E127
:0125D30022E5
:0B2779008F993099FD309902C299221F
:0627A300AE0712277922A7
:10262500E4FC9000E6E0FEA3E0FD6E601474E82D86
:10263500F582E43400F583E0FCED04541F9000E7D7
:03264500F0AF04EF
:01264800226F
:1025FD00E4FF9000E6E0FEA3E0FDC39E5006C3EEAF
:10260D009DFF80139000E6E0FEA3E0FDD39E400702
:07261D0074209DFFEE2FFF6A
:012624002293
:0B27840043FBC053F53FD2A6D2A722B2
:101123000A233E20000A53415249353120436F7050
:1011330079726967687420323031322D3232000A95
:1011430053415249353120434C49000A2B3D3D3D23
:101153003D20436F6D6D616E64203D3D3D2B3D2011
:1011630046756E6374696F6E203D3D3D3D3D3D3D6B
:101173003D3D3D3D3D3D2B0A7C54524143202020C3
:101183002020202020202020207C205472616369AD
:101193006E672041646A75737420526164696F20BD
:1011A30020207C0A7C46524551203C76613E20201B
:1011B30020202020207C204765742F53657420460F
:1011C30072657175656E63792020202020207C0A6A
:1011D3007C434F4C43203C76613E2020202020203E
:1011E300207C204765742F53657420434F4C432064
:1011F300202020202020202020207C0A7C444946D7
:1012030046203C76613E202020202020207C204761
:1012130065742F53657420446573697265644F6602
:101223006673657420207C0A7C52415445203C76C9
:10123300613E202020202020207C204765742F53EE
:101243006574205246204261756472617465202082
:1012530020207C0A7C54585057203C76613E202045
:1012630020202020207C204765742F536574205252
:101273004620545820506F776572202020207C0A26
:101283007C4C4F414420202020202020202020205F
:10129300207C205265616420466C6173682053652D
:1012A3007474696E6773202020207C0A7C53415636
:1012B300452020202020202020202020207C205377
:1012C30061766520746F20466C617368202020204E
:1012D3002020202020207C0A2B2D2D2D2D2D2D2D5F
:1012E3002D2D2D2D2D2D2D2D2D2B2D2D2D2D2D2D2D
:1012F3002D2D2D2D2D2D2D2D2D2D2D2D2D2D2D2D1B
:101303002D2D2B00676574206C696E6520666169FD
:101313006C65640A000A636D64206572726F720AF9
:1013230000FF1123FF1128FF1142FF114E48454CC6
:081333005000000000FF26F746
:10151A0041010800602001090000000000000000ED
:10152A0000000000000000000000000000000000B1
:08153A000000000000000000A9
:1026F70090132DE493FB740193FA740293F9120A71
:022707008F221F
:0E0EA7009000B2EBF0A3EAF0A3E9F0A3EDF0A7
:100EB500E4A3F09000B8F0A3F0A3F0A3F01225FD91
:100EC500EFD3940050030211101226259000B7EFBE
:100ED500F070030210FA24F8602424FB7003020F5B
:100EE5007524FC70030210FA24FE70030210FA2424
:100EF500F8606B249C600724D5602E020F9D90003E
:100F0500B6E070030210FA9000B6E014F09000B35A
:100F150074FFF5F01206A57F081227A37F2012277C
:100F2500A37F081227A30210FA9000B97401F0906C
:100F350000B7E0FF9000B2E0FBA3E0FAA3E0F9EF11
:100F450012062C9000B7E0FFA3E02400F582E434FC
:100F550000F583EFF09000B8E004F00210EA90008D
:100F6500B2E0FBA3E0FAA3E0F9E412062CFEFF22AF
:100F75009000B7E0FF9000B2E0FBA3E0FAA3E0F930
:100F8500EF12062C9000B3E475F0011206A590004F
:100F9500B6E004F0A3740AF09000B9E07003021003
:010FA500D675
:100FA600E49000BCF0A3F0A3F0A3F09000B7E0FF3C
:100FB6009000B2E0FBA3E0FAA3E0F9EF12062C9052
:100FC60000B7E0FFA3E02400F582E43400F583EFE8
:100FD600F09000BDEFF09000B8E004F09000B3E4AC
:100FE60075F0011206A59000B6E004F012279A905B
:100FF60000BEEEF0A3EFF0E49000BCF09000BDE080
:101006002401FFE433FE9000BCE0C39FEE6480F849
:1010160074809850781225FDEFD39400404C122628
:10102600259000B2E0FBA3E0FAA3E0F9EF12062C4C
:101036009000B2E0FBA3E0FAA3E0F91205E6FF9008
:1010460000B8E02400F582E43400F583EFF0900068
:10105600B8E004F09000BCE004F09000B3E475F052
:10106600011206A59000B6E004F012279A9000BF80
:10107600E02480FD9000BEE03400FCEF6D7002EECF
:101086006C60030210029000BAF0A304F09000BA5C
:10109600E07002A3E0600AE49000B8F0A3F0FEFF5F
:1010A600227B017A0079019000B8E024FEFD12252A
:1010B6001B9000B8E024FFF582E434FFF583E0B529
:1010C600070A9001087401F07E00FF22E4FEFF2269
:1010D6009000B7E0FF9000B2E0FBA3E0FAA3E0F9CE
:1010E600EF12062C9000B3E475F0011206A59000ED
:1010F600B6E004F09000B5E024FEFFA3E0C39F50E5
:1011060009A3E0640A6003020ECE9000B2E0FBA3DE
:0C111600E0FAA3E0F9E412062CFE7F01D1
:0111220022AA
:10180500900139E4F0A3740AF0E4A3F0A3F0900189
:1018150037F0A3F01205E6FFB42D0B90013BE4F081
:10182500A304F00218F3EFB4301D740129F9E43A6A
:10183500FA1205E6B47810740129F9E43AFA900130
:1018450039E4F0A37410F01205E6FF70030218FBEB
:10185500C3648094B04012D3EF648094B9500AEF0A
:101865003395E0FEEF24D080381205E6FFC364808F
:1018750094E14012D3EF648094E6500AEF3395E08B
:10188500FEEF24A9801B1205E6FFC3648094C140C6
:1018950065D3EF648094C6505DEF3395E0FEEF2489
:1018A500C9FFEE34FF90013DF0A3EFF0900139E060
:1018B500FEA3E0FFC390013EE09FEE6480F8900137
:1018C5003DE0648098502F900139E0FCA3E0FD9045
:1018D5000137E0FEA3E0FF12063E90013EE02FFF38
:1018E50090013DE03E900137F0A3EFF0740129F936
:1018F500E43AFA02184C90013BE07002A3E0900133
:1019050037600EE0FEA3E0FFC3E49FFFE49EFE8088
:0619150005E0FEA3E0FF67
:01191B0022A9
:0B1A14009000B2EBF0A3EAF0A3E9F0B1
:101A1F00E4FF7E209000B2E0FBA3E0FAA3E04A4B84
:101A2F0070119000B2A3A3E0F9C003C002C001A3DC
:101A3F00021AEB9000B2E0FBA3E0FAA3E0F9120563
:101A4F00E6FD64206004EDB42217EDB422047E227B
:101A5F007F01E412062C9000B375F0011206A580E9
:101A6F00D29000B2E0FBA3E0FAA3E0F91205E6FD85
:101A7F00640D6022ED640A601DEF60071205E664D5
:101A8F00226013EF70071205E664206009740129C4
:101A9F00F9E43AFA80D61205E6FD6E600AED640DA0
:101AAF006005ED640A701FE412062CEF600F12053B
:101ABF00E6B50609740129F9E43AFA800974012997
:101ACF00F9E43AFA80D01205E6600280067B007ACC
:101ADF00007900C003C002C0019000B5E0FBA3E095
:101AEF00FAA3E0F91207749000B2E0FBA3E0FAA3A7
:021AFF00E0F90C
:011B010022C1
:10133B009000A5E4F0A304F07B00A314F0A3F0A3AA
:10134B00F0F9A3F0A3C9F0A3E9F0A3EBF0A3F0A38A
:10135B00F09000B1F00B7A0179097D20120EA79065
:10136B0000A5EEF0A3EFF04E70097BFF7A1379071F
:10137B0002148D9000B57401F0A37400F0A374AD4A
:10138B00F07B017A017909121A149000A7EBF0A3F4
:10139B00EAF0A3E9F01205E670030214909000A79F
:1013AB00E0F9A3E0FAA3E0A3C9F0A3EAF0A3E9F004
:1013BB009000AAE0FBA3E0FAA3E0F91205E6FF60B8
:1013CB00226420601E12272D9000AAE0FBA3E0FAF6
:1013DB00A3E0F9EF12062C9000ABE475F0011206B6
:1013EB00A580CDE49000B0F09000B0E0FFC3648026
:1013FB0094815074EF3395E0FE7C007D0B12063E1A
:10140B0074302FF974133EFA7BFFC003C0029000B7
:10141B00A7E0FBA3E0FAA3E0F8AC02AD03D002D047
:10142B00031209CEEF70399000ADE0FBA3E0FAA3F5
:10143B00E0F9C002A3E0FF3395E0FE90133875F09E
:10144B000BEF120748EE75F00BA42583F58374019F
:10145B0093FA740293F5828A83D00212087680087D
:10146B009000B0E004F080809000B0E0B40116E48E
:10147B009000A5F0A3F0900108E070097BFF7A13B0
:0D148B007918120A8F9000A5E0FEA3E0FF83
:011498002231
:1015420041005803410056004600284137313339E3
:10155200006028002E0000000000000000000000D3
:101562000000000000000000000000000000000079
:1015720000000000000000000000000000602800E1
:101582000000000000000000000000000000000059
:101592000000000000000000000000000000000049
:0D15A20000000000000000000041005700A4
:0300130002264979
:10264900C0E0C083C082C085C084C0925392FE900E
:1026590000567401F0D092D084D085D082D083D036
:02266900E0325D
:062316007B01E02403FD41
:10231C009000A8EBF0A3EAF0A3E9F0A3EDF07F1492
:10232C0012274F7F0A12271B9000A8E0FBA3E0FAAC
:10233C00A3E0F9A3E0FD1222907F1A12274F7F0A27
:0A234C0012271B9000587402F022C3
:0B251B009000C0EBF0A3EAF0A3E9F091
:10252600E4FFFEEEC39D50189000C0E0FBA3E0FA66
:10253600A3E0F98E827583001205FF2FFF0E80E35C
:04254600EFF404FFAB
:01254A00226E
:10191C009000A5E4F0A304F0E4A3F0900056E0647A
:10192C000160030219DB900058E014601E14700370
:10193C000219BD1460030219D67B017A00792E7D41
:10194C000612224B7F1812274F80797B017A00797F
:10195C002E7D2812224B7F1812274F7B017A00799B
:10196C002F90002FE004FD12251B90002FE0FE2489
:10197C0030F582E43400F583E06F704E900030E077
:10198C00B40A117B017A00792EEE2403FD1225A7EF
:10199C00B2A68036900031E0603014F090002FE059
:1019AC002430F582E43400F583E004F09000578095
:1019BC0016B2A77FC812271BB2A77F1812274F7F1A
:1019CC000A12271B9000587401F0E4900056F09016
:1019DC000057E060147FE812271B7A00792E9000E4
:1019EC002F122316E4900057F0900108E0B4010F79
:1019FC007A007900900001122316E4900108F0900F
:071A0C0000A5E0FEA3E0FFCE
:011A130022B0
:1015AF0044013F000000004201430000420145009A
:0115BF00002B
:10000300438910758DAE758B9F43884043A8882222
:03001B000221BB04
:1021BB00C0E0C083C082C085C084C0925392FEC26F
:1021CB00AB900144E004F07006900143E004F09002
:1021DB000144E0547F700E900146E004F0700690CD
:1021EB000145E004F0758DAE758B9FD2ABD092D0CC
:0A21FB0084D085D082D083D0E0327A
:10270900E4FDFCC3ED9FEC9E50070DBD00010C805C
:01271900F2CD
:01271A00229C
:10271B00E4FEEEC39F500AE4FD0DEDB4DCFB0E802E
:01272B00F1BC
:01272C00228A
:0824E800900147EEF0A3EFF0B4
:1024F00012279A900149EEF0A3EFF012279A90016B
:1025000049E0FCA3E0FDC3EF9DFFEE9CFED39001EC
:0A25100048E09F900147E09E50E173
:01251A00229E
:09279A00900143E0FEA3E0FF22E0
:0C275700900145E0FEA3E0FFE4FCFD2241
:0615C00043015100000090
:0327A9000226E223
:0B1B0200900129EBF0A3EAF0A3E9F04A
:101B0D00E4900135F0A3F0900151E0FBA3E0FAA3BE
:101B1D00E04A4B7007900135F0A304F0900130E0DE
:101B2D00FBA3E0FAA3E0F9C003C002C001900129B4
:101B3D00E0FBA3E0FAA3E0F99000021207F3900195
:101B4D0033E0FEA3E0AA06F97B01C003C002C00189
:101B5D00900129E0FBA3E0FAA3E0F990000512073C
:101B6D00F3900129E0FBA3E0FAA3E0F9EC8DF0126C
:101B7D0006FC900129E0F9A3E0FAA3E0900151C918
:101B8D00F0A3EAF0A3E9F0900133E0FEA3E0F582C3
:101B9D008E83E0FEA3E0FFC3ED9FFFEC9EAB07FA43
:101BAD007C067D4AFE120650900154EFF07E007CBB
:101BBD00067D4912063EAC02AD03C3ED9FFFEC9EC0
:101BCD00FE900135E07004A3E06401700312278FCD
:031BDD00E4FEFF24
:011BE00022E2
:101DEF00900151E0FBA3E0FAA3E04A4B606C900135
:101DFF0051E0F9A3E0FAA3E09000E3C9F0A3EAF001
:101E0F00A3E9F0900151E4F0A3F0A3F09000E3E018
:101E1F00FBA3E0FAA3E0F9AE02FF9000051207C39F
:101E2F00AC02AD019000E3E0FBA3E0FAA3E0F99070
:101E3F0000021207C389828A83120876900151E04B
:101E4F00FBA3E0FAA3E04A4B6010900151A3A3E07B
:0A1E5F00F91206D1FFAEF012278F32
:011E69002256
:0815C6004101540041015500F0
:1026E200E4F5CDF5CCF5CBF5CA75C3C0F5C243C848
:0526F2009543C1082220
:0B278F008FC2EEF5C343C108D2BB228D
:03005B00021F4041
:101F4000C0E0C0F0C083C082C085C084C0925392FC
:101F5000FEC0D075D000C000C001C002C003C004E4
:101F6000C005C006C007C2BB900155E004F0900157
:101F700054E0FFA3E0B50708121DEF900155E4F00F
:101F8000D2BBD007D006D005D004D003D002D001F8
:101F9000D000D0D0D092D084D085D082D083D0F061
:031FA000D0E0325C
:10005E0002041FE86480F8E933E83360110460F0AD
:10006E00ED33EC337009E8FCE9FDEAFEEBFF220408
:10007E0060DED3EB9FEA9EE99DE8C2E78CF0C2F703
:10008E0095F0400CE8CCF8E9CDF9EACEFAEBCFFBCF
:10009E001203EA85D0F05804700320D5B3E804703B
:1000AE00075002B2D502042992D5EC0460F7E4CCD5
:1000BE00C0E0C398F8603B94186008400DD0E0FB98
:1000CE00020401E4FBFAC9FC8028E830E406E4C926
:1000DE00FBE4CAFCE830E305E4C9CACBFCE85407EC
:1000EE006010F8C3E913F9EA13FAEB13FBEC13FCF7
:1000FE00D8F130F52FC3E49CFCEF9BFFEE9AFEED9A
:10010E0099FDD0E0FBEF4E4D4C701222DB03020442
:10011E0026EC2CFCEF33FFEE33FEED33FDED30E736
:10012E00EB020401EF2BFFEE3AFEED39FDD0E0FBC2
:10013E0050130BBB0003020429ED13FDEE13FEEF6B
:08014E0013FFEC13FC02040195
:10015600EC4D6011E8497017ED33EC3304600DE4A3
:10016600FCFFFEFD22E933E8330470F802041F1297
:1001760003EA58046009E4CC248150062850090299
:100186000429284003020426C0E0EB4A7044B980E3
:1001960006D0E0FB020415EF4E701CBD8008EBFF95
:1001A600EAFEE9FD80EBE98DF0A4FEE5F002023FF0
:1001B600E9CDF9EAFEEBFFEF89F0A4FCE5F0CE8984
:1001C600F0A42EFFE435F0CD89F0A42DFEE435F041
:1001D6008067EF4E7005BD80D780C3EF8BF0A4AC6F
:1001E600F0EE8BF0A42CFCE435F0F8EF8AF0A42CAA
:1001F600E5F038FCE433CB8DF0A42CFCE5F03BF8BD
:10020600EE8AF0A42CFCE5F038F8E433CF89F0A4AC
:100216002CFCE5F038CF3400CE89F0A42FFFE5F0B2
:100226003EFEE433C98DF0A42EFEE5F039CD8AF00A
:10023600A42FFFE5F03EFEE43DFD33D0E0FB500782
:100246000BBB000F020429EC2CFCEF33FFEE33FE50
:06025600ED33FD0204017E
:10025C00020429EC5D046005E85904700302041FD4
:10026C001203EA580460F6EC4860F2EC7004FDFEF0
:10027C00FF22C860DB2481C85009C3986002500675
:10028C000204269850CAF582E9294B4A7005AB82C4
:10029C0002041575F0007C1A7880C3EF9BEE9AED82
:1002AC0099400DC3EF9BFFEE9AFEED99FDE842F0ED
:1002BC00DC23ACF0D0E0FFD0E0FED0E0FDAB822040
:1002CC00E7101BEB60BAEC2CFCEF33FFEE33FEEDCA
:1002DC0033FD020401E803F830E705C0F075F000C7
:1002EC00EF2FFFEE33FEED33FD40B830E7C280AAAE
:1002FC0074F8CC6480CCC86480C8F58204604FC3A9
:10030C00EB9FF5F0EA9E42F0E99D42F0E89C45F047
:10031C00603C501DE5825FFFE582D313CB5BCBF4D1
:10032C002B5582FB50280ABA002409B900200880FA
:10033C001DE5825BFBE582D313CF5FCFF4C3132F94
:10034C005582FF50090EBE00050DBD00010CC3EB1C
:10035C009FF5F0EA9E42F0E99D42F0E89C45F06082
:09036C0007CC4820E701B3EC22A4
:1003750075F020800E75F010800575F0087D007E03
:10038500007F003392D530D50312071BEC334010A4
:10039500EF33FFEE33FEED33FDEC33FCD5F0ED220C
:0E03A500E5F0247EA2D513CC92E7CDCEFF2248
:1003B300EDD2E7CD33EC3392D524814006E4FFFE42
:1003C300FDFC22FCE4CFCECDCC24E0501174FF80A1
:1003D300EDC3CC13CCCD13CDCE13CECF13CF04703E
:0703E300F030D5DE02071B1C
:100A2400E50824B5F582E43400F583E00508229056
:100A340000B23007039000B5E475F00112075402C8
:100A440005E62000E97F2ED2008018EF540F249091
:100A5400D43440D4FF30040BEF24BFB41A00500345
:100A64002461FFE50960021509050CE50C70020517
:100A74000B30070E9000B2E475F001120754EF0238
:100A8400062C0227A37403D2078003E4C207F508E7
:100A94009000B212076BE4F509F50BF50CE509605B
:100AA400077F20120A6780F5750AFFC201C200C2DF
:100AB40002C203C205C206C208120A33FF700D3017
:100AC40007057F00120A78AF0CAE0B22B4255FC273
:100AD400D5C204120A33FF24D0B40A00501A75F0A8
:100AE4000A780930D50508B6FF0106C6A426F62003
:100AF400D5047002D20380D924CFB41A00EF500475
:100B0400C2E5D204020D6AD20180C6D20080C0D2EE
:100B14000280BCD2D580BAD20580B47F20120A6785
:100B24002002077401B5090040F1120A24FF120AD9
:100B340067020AA1D208D2068095120A24FB120A7F
:100B440024FA120A24F94A4B700679687A0E7BFF5C
:100B540020022EE509602A7E008E8275830012052C
:100B6400FF60060EEE650A70F0C2D5EBC0E0EAC085
:100B7400E0E9C0E0EE120DCBD0E0F9D0E0FAD0E02D
:100B8400FB1205E6FF60AAEBC0E0EAC0E0E9C0E0C2
:100B9400120A67D0E02401F9D0E03400FAD0E0FB77
:100BA400E50A0460DCD50AD98087D20280A2120D3E
:100BB400AD60F7E50A700104120434A90A600DE57A
:100BC4000A600914F50A120E55EF60F3EA30E702E1
:100BD400F404C3995079EAF4250A0430E701E404E3
:100BE400F50A800D120DAD60C1EA050A250A12044A
:100BF40034EA9000E1F030E701E4250A04D50A0460
:100C040020050114120DCBE4C0E0120E559000E152
:100C1400E0601320E70714F0120A4F802204F0D09A
:100C2400E014C0E07F00120A4FE50A6007120A468A
:100C3400150A800B300503120A46D0E0020AA1D03F
:100C4400E00480C4120DAD609EE50A0412043490E1
:100C540000E1EAF0E50A2005026001042404120D13
:010C6400CBC4
:100C650074FF04C0E0120E55120A4FE50A20050272
:100C75006003120A46D0E0B50AE87F45120A59908A
:100C850000E1E07F2B30E7047F2DF404C0E0120A79
:100C950067D0E075F00A84C0F0120A50D0E0120A5D
:100CA50050020AA1791080027908C206C20880089C
:100CB500D2D5790A8004790AC2D5E50A047002F50D
:100CC5000AE4FAFDFEFF120A24FC7B082001131238
:100CD5000A24FD7B1030000A120A24FE120A24FFA2
:100CE5007B20EC3382D592D55013C3E43000069FA8
:100CF500FFE49EFEE42001039DFDE49CFCE4CBF8AB
:100D0500C201EC700CCFCECDCCE824F8F870F3809E
:100D150017C3EF33FFEE33FEED33FDEC33FCEB335E
:100D2500FB994002FB0FD8E9EB300105F8D0E0C490
:100D350048B201C0E00AEC4D4E4F78207B0070C2EE
:100D4500EAB50A0040BCC0E0120DCDD0F0D0E020DD
:100D55000104C4C0E0C4B201C0F0120A50D0F0D5FD
:100D6500F0EB020AA112084C0B3E530CA9580B0FCD
:100D75004C0B0B420CAD4F0CB5440CB5490B244341
:100D85000CBB550BE8460C48450BB2470E88500B7B
:100D9500132D0B172E0B3A2B0B1B230B38200E7123
:100DA5002A0AD34800000B32E50AB4FF03750A0688
:100DB500120A24FC120A24FD120A24FE120A24FF38
:100DC5009000DA020471790AA2D5200314300509CE
:100DD500B910020404B9080104A2D5200602500185
:100DE500042002689202B509005034C0E07F20302B
:100DF50003197F30A20272067205500F120E24C22B
:100E050002C206C205C2087F30800F300503E9C063
:100E1500E0120A67300503D0E0F9D0E0B509CC301F
:100E250005177F30B9100C120A677F583004077F09
:100E3500788003B90803120A673002057F2D020A7C
:100E4500677F202008F87F2B2006F322920280CFAF
:100E55007F00B40700500B24DAF582E43400F583F3
:100E6500E0FF22286E756C6C2900D201120A24302D
:100E750001F8C201780930D50108F6020AD32D50D0
:100E8500434958120A242403B405004001E4900E96
:100E95008393120A58743A120A58D2037509040248
:020EA5000CA996
:1003EA00E9D2E7C933E833F892D5EDD2E7CD33EC59
:0703FA0033FC5002B2D522D2
:10040100EC30E7100FBF000C0EBE00080DBD00045C
:100411000BEB6014A2D5EB13FCED92E7FD2274FF08
:10042100FCFDFEFF22E480F8A2D574FF13FC7D8061
:03043100E480EF75
:10043400F920E73624F950037907E4F42402FBE5B4
:1004440082158270021583DBF6E024FB501BE96001
:1004540014E4F0E582158270021583E004F0B40A16
:0D04640008E4F0D9EE7401F00A22C2D5229E
:10047100ED33EC3392D5FA602AB4FF33EDC2E77B5A
:10048100FF60067A047996E4227A04799F20D504E4
:100491007A04799A224E614E002B494E46002D492D
:1004A1004E4600E47A08F0A3DAFC7B00740722C010
:1004B10083C082ECC0E0EDC0E0EEC0E0EFC0E0EA56
:1004C10075F010A4CAABF075F04DA42BFBE435F028
:1004D100FCEA2410FAEB34C5FBEC34D9FCEDC2E79D
:1004E100FF75F056A4F42411C5F0F434C58FF0A4BF
:1004F1002AE5F03BE43CF020E7141205A6D0E0FF2A
:10050100D0E0FED0E0FDD0E0FC12025F8014F404E4
:100511001205A6D0E0FFD0E0FED0E0FDD0E0FC1255
:100521000156D082D083E0FAEDD2E7CD33EC33240B
:1005310082FBE4C3CF33CFCE33CECD33CD33DBF328
:100541007B0775F00A846004F0A31B0AE5F0F0A3B1
:100551008FF0740AA4FFACF08EF0740AA42CFEACE8
:10056100F050010C8DF0740AA42CFDE435F0F0A3D9
:05057100DBDE7407222F
:100576003F8000004120000042C80000447A00008D
:10058600461C400047C35000497424004B1896800F
:100596004CBEBC205A0E1BCA6753C21C749DC5AE06
:1005A600FB60065407601C23231205D4EB54386005
:1005B600091205C01205CF120156ECF8EDF9EEFA54
:1005C600EFCB22EB1205CF80F1543803241C9005A3
:1005D60076FE93FC0EEE93FD0EEE930ECE93FF2267
:101D6F00022119E493A3F8E493A34003F68001F250
:101D7F0008DFF48029E493A3F85407240CC8C33375
:101D8F00C4540F4420C8834004F456800146F6DF44
:101D9F00E4800B0102040810204080901499E47E27
:101DAF00019360BCA3FF543F30E509541FFEE49339
:101DBF00A360010ECF54C025E060A840B8E493A300
:101DCF00FAE493A3F8E493A3C8C582C8CAC583CA2B
:101DDF00F0A3C8C582C8CAC583CADFE9DEE780BEE3
:0115CE00001C
:1005E600BB010689828A83E0225002E722BBFE0213
:0905F600E32289828A83E4932246
:1005FF00BB010CE58229F582E5833AF583E02250B1
:10060F0006E92582F8E622BBFE06E92582F8E222FA
:0D061F00E58229F582E5833AF583E4932214
:10062C00BB010689828A83F0225002F722BBFE01AD
:02063C00F322A7
:10063E00EF8DF0A4A8F0CF8CF0A428CE8DF0A42ED0
:02064E00FE228A
:10065000BC000BBE0029EF8DF084FFADF022E4CC8E
:10066000F875F008EF2FFFEE33FEEC33FCEE9DEC57
:10067000984005FCEE9DFE0FD5F0E9E4CEFD22ED9D
:10068000F8F5F0EE8420D21CFEADF075F008EF2FE7
:10069000FFED33FD4007985006D5F0F222C398FDD8
:0506A0000FD5F0EA2275
:1006A500C5F0F8A3E028F0C5F0F8E58215827002E0
:0606B5001583E038F0227D
:1006BB00A3F8E0C5F025F0F0E582158270021583F2
:0606CB00E0C838F0E8224F
:1006D100BB010A89828A83E0F5F0A3E022500687F4
:1006E100F009E71922BBFE07E3F5F009E3192289B6
:0B06F100828A83E493F5F074019322E9
:1006FC00BB010A89828A83F0E5F0A3F0225006F749
:0F070C0009A7F01922BBFE06F3E5F009F3192245
:0E071B00C3E49FFFE49EFEE49DFDE49CFC22EF
:10072900E8600FECC313FCED13FDEE13FEEF13FFAE
:03073900D8F122D2
:0C073C00ECF0A3EDF0A3EEF0A3EFF02230
:0C074800A42582F582E5F03583F58322BC
:10075400F8E0FBA3A3E0F925F0F0E582158270022E
:070764001583E0FA38F022D2
:09076B00EBF0A3EAF0A3E9F0228F
:10077400BB011A89828A83D0F0D0E0F8D0E0F9D0A6
:10078400E0FAD0E0FBE8C0E0C0F002076B5016E9E5
:10079400F8D083D082D0E0F9D0E0FAD0E0FBC08278
:1007A400C0830209F4BBFE16E9F8D083D082D0E0FE
:0F07B400F9D0E0FAD0E0FBC082C083020A0F2226
:1007C300BB010DE58229F582E5833AF5830209FD34
:1007D3005007E92582F80209EBBBFE07E92582F8F9
:1007E300020A06E58229F582E5833AF583020A18AF
:1007F300BB0120E58229F582E5833AF583D0F0D069
:10080300E0F8D0E0F9D0E0FAD0E0FBE8C0E0C0F0D7
:1008130002076B5018E92582F8D083D082D0E0F923
:10082300D0E0FAD0E0FBC082C0830209F4BBFE181B
:10083300E92582F8D083D082D0E0F9D0E0FAD0E085
:09084300FBC082C083020A0F22EF
:10084C00D083D082F8E4937012740193700DA3A33B
:10085C0093F8740193F5828883E47374029368604F
:06086C00EFA3A3A380DF4F
:060872008A838982E47311
:10272D00EFC39461400AEF947B5005EF24E0FF2244
:01273D002279
:10087800E3F5F009E208B5F06D606B80F3E3F5F09D
:1008880009E608B5F060605E80F387F009E608B510
:10089800F054605280F487F009E208B5F0486046E9
:1008A80080F488828C8387F009E0A3B5F03860363D
:1008B80080F488828C8387F009E493A3B5F02760DD
:1008C8002580F388828C83E3F5F009E0A3B5F01660
:1008D800601480F388828C83E3F5F009E493A3B570
:1008E800F004600280F202098F808580E7808E80A4
:1008F800D28032801580628074809B80B5808B8026
:10090800A180458066803002099B88848C85898215
:100918008A83E493F5F0A30592E493A31592B5F0C6
:1009280066606480ED89828A83E493F5F0A3E20827
:10093800B5F054605280F289828A83E0F5F0A3E62C
:1009480008B5F043604180F389828A83E0F5F0A31B
:10095800E208B5F032603080F389828A83E493F547
:10096800F0A3E608B5F020601E80F2803F88848CF2
:100978008589828A83E493F5F0A30592E0A3159212
:10098800B5F004600280EE7FFFB5F0020F2240024E
:100998007F012288848C8589828A83E0F5F0A3050B
:1009A80092E0A31592B5F0DF60DD80EF88848C8536
:1009B80089828A83E0F5F0A30592E493A31592B5A2
:1009C800F0C560C380EE88F0ED2402B4040050B78F
:1009D800F582EB2402B4040050AD23234582239012
:0309E80008F173A0
:0909EB00E6FB08E6FA08E6F92231
:0909F400EBF608EAF608E9F62228
:0909FD00E0FBA3E0FAA3E0F922FB
:090A0600E2FB08E2FA08E2F92221
:090A0F00EBF208EAF208E9F22218
:0C0A1800E493FB740193FA740293F9223A
:00000001FF
