:030000000224894E
:0C248900787FE4F6D8FD7581590224D05C
:0A3FF600FFFFFFFFFFFFF75AA5AF22
:102F04007274696D65722063616C6C206261636BBD
:102F14000A0074657374207072696E74660A0061C5
:102F24003731333920696E697469616C206661696F
:102F34006C210A007265672025640A00636D6420B1
:052F4400656E640A0047
:051AE00042014C000072
:1027F7007BFF7A2F7904120B23B2A6AFCD7E00EFB1
:102807007F00FEADCC7C00EF2DFFEE3CFE90014C2F
:10281700EEF0A3EFF07B017A01794EC003C002C04E
:102827000190014CE0FEA3E0FFEF24FAFDEE34FF38
:10283700FC900110E4F0A37401F07BFF7A2779F78D
:10284700900112EBF0A3EAF0A3E9F07E017F4C9030
:102857000115EEF0A3EFF0D001D002D003121C391E
:01286700224E
:1023F9009001B6E4F0A3E4F075865A1232831232E2
:102409005A1226191200167BFF7A2F7916120B23FE
:102419007F0A122F4912316E7F0A122F497F217EBE
:10242900807DED7C43122CBAEF60097BFF7A2F790E
:1024390023120B237F181232377F0A122F497F008C
:10244900122F8D9001B6EEF0A3EFF07BFF7A2F7972
:10245900389001B6E0FEA3E0FF90009AEEF0A3EFFA
:10246900F0120B23121EC37F0A122F4912159F7BEC
:0F247900FF7A2F7940120B2380EAE47E007F0068
:012488002231
:1030C900900192EFF0900193ECF0A3EDF0C2A09083
:1030D9000192E0FFEF4400FF900192EFF09001921E
:1030E900E0FF122C6D7F017E00123103900193E005
:0A30F900FEA3E0FF122BC3D2A022B9
:052F8D00900195EFF03A
:102F9200900196E4F0A3E4F0C2A0900195E0FFEF67
:102FA2004480FF900195EFF0900195E0FF122C6DA7
:102FB2007F017E00123103122710900196EEF0A3DA
:0C2FC200EFF0D2A0900196E0FEA3E0FF2B
:012FCE0022E0
:0D2B1500900198EFF0900199ECF0A3EDF025
:102B2200900198E0FF7E00784FA60608A607784F2E
:102B3200E6FE08E6FFEF7F00C454F0FE900085E059
:102B4200FCA3E0FDEE4CFEEF4DFF784FA60608A673
:102B520007784FE6FC08E6FD7F071230C99001991D
:0A2B6200E0FCA3E0FD7F081230C97B
:012B6C002246
:0D2AB90090019BEFF090019CECF0A3EDF07C
:102AC60090019BE0FF7E007851A60608A607785184
:102AD600E6FE08E6FFEF7807C333CE33CED8F9FF1C
:102AE600900085E0FCA3E0FDEE4CFEEF4DFF785133
:102AF600A60608A6077851E6FC08E6FD7F07123011
:0E2B0600C990019CE0FCA3E0FD7F091230C9DC
:012B1400229E
:052B6D009001C0EFF033
:102B72009001C0E0FF7E007853A60608A6077853AE
:102B8200E6FE08E6FFEF7F00C454F0FE900085E009
:102B9200FCA3E0FDEE4CFEEF4DFF7853A60608A61F
:102BA200077853E6FC08E6FD7F071230C97F08125A
:102BB2002F8D7853A60608A6077853E6FE08E6FF8F
:012BC20022F0
:10228A00781F7600781FE6FFEFC394085024781F62
:10229A00E6FF75F002EFA42477F582E5F03400F545
:1022AA0083E0FCA3E0FD781FE6FF1230C9781F0621
:1022BA0080D2781F760A781FE6FFEFC39410502465
:1022CA00781FE6FF75F002EFA42477F582E5F03473
:1022DA0000F583E0FCA3E0FD781FE6FF1230C97821
:1022EA001F0680D2781F7600781FE6FFEFC394108E
:1022FA005024781FE6FF75F002EFA4244DF582E51D
:10230A00F03400F583E0FCA3E0FD781FE6FF122B12
:10231A0015781F0680D2781F7600781FE6FFEFC374
:10232A0094055024781FE6FF75F002EFA4246DF59A
:10233A0082E5F03400F583E0FCA3E0FD781FE6FFB8
:08234A00122AB9781F0680D2A7
:012352002268
:10196E007F00122F8D781DA60608A607900095E021
:10197E00FEA3E0FFEE4408FCEF4402FD7F0F1230A1
:10198E00C97F0F122F8D781DA60608A607781DE6B3
:10199E00FE08E6FFEE5408FEEF5402FFEF4E70E134
:1019AE007F0E122F8D781DA60608A607781DE6FE5F
:1019BE0008E6FFEEC4F854F0C868FEEFC4540F48B2
:1019CE00FFEF5401FF781AA607781AE6FFEF6003BF
:1019DE007F04227F0A122B6D781DA60608A60778B3
:1019EE001DE6FE08E6FFEEC4F854F0C868FEEFC42C
:1019FE00540F48FFEF5401FF781CA607781CE6FF32
:101A0E00EF60037F04227D007C4C7F0C1230C97D79
:101A1E00007CF87F02122B1590004DE0FEA3E0FF34
:101A2E00EE44E0FCAD077F00122B15900095E0FE12
:101A3E00A3E0FFEE4410FCAD077F0F1230C97F0FFD
:101A4E00122F8D781DA60608A607781DE6FE08E65D
:101A5E00FFEE20E4E990008FE0FCA3E0FD7F0C1286
:101A6E0030C9900051E0FCA3E0FD7F02122B1590CF
:101A7E00004DE0FCA3E0FD7F00122B15900095E0D9
:101A8E00FEA3E0FFAC06EF4404FD7F0F1230C97FCA
:101A9E000F122F8D781DA60608A607781DE6FE08E4
:101AAE00E6FFEF20E2E97F0E122F8D781DA60608C5
:101ABE00A607781DE6FE08E6FFEEFF7E00EF540156
:101ACE00FF781BA607781BE6FFEF60037F04227FDB
:011ADE000007
:011ADF0022E4
:061D830090016A120772D4
:101D89007BCD7ACC794C784190016AE0FCA3E0FDE7
:101D9900A3E0FEA3E0FF12025F780D120766780D3B
:101DA90012074D1203B37811A6077811E6FCE41265
:101DB900037FC004C005C006C007780D12074DD0C7
:101DC90003D002D001D00012006178121207667F99
:101DD900007E007D807C4778121207591201561245
:101DE90003B37816A60608A6077F141232379000A7
:101DF9007DE0FEA3E0FFEE547FFE7818A60608A654
:101E0900077818E6FC08E6FD7F031230C9900083C5
:101E1900E0FEA3E0FFEE540FFE7818A60608A60719
:101E29007818E6FC08E6FD7F061230C97F007E00BF
:101E39007D577C4490016AE0F8A3E0F9A3E0FAA396
:101E4900E0FB1202FC501590007FE0FEA3E0FFEEDC
:101E590054EFFE7818A60608A607801390007FE0C5
:101E6900FEA3E0FFEE4410FE7818A60608A6077840
:101E790018E6FC08E6FD7F041230C9900079E0FEFF
:101E8900A3E0FF7F007818A60608A6077811E6FFE9
:101E99007E007818E6FC08E6FDEE4CFCEF4DFD7F70
:101EA900011230C97816E6FC08E6FD7F021230C936
:091EB9007D007C007F02122AB9B1
:011EC20022FD
:10235300783F76FF784276FF0876FF900051E0FEE3
:10236300A3E0FFAC06EF4410FD7F02122B15900093
:102373006BE0FEA3E0FFAC06EF4401FD7F0F122BE1
:10238300157F0F122B6D7E00EF5401FF7840A606D8
:1023930008A6077840E6FE08E6FFEF4E6010784295
:1023A30008E616188606700116FFEF4E70D37F0FEE
:1023B300122B6DEE5403FEEEC313FEEF13FF7840B2
:1023C300A60608A6077840E6FE08E6FFD3EF94BA10
:1023D300EE940040137840E6FE08E6FFC3EF94C690
:1023E300EE940050037F0522783FE616FFEF60036B
:0523F3000223717F04CC
:0123F80022C2
:103237009001C1EFF0C2A09001C1E0FF122C6DD246
:02324700A022C3
:102CBA0090016E120772D2A0C2977F701232377FCC
:102CCA000A122F4912228A7F0A7E001226977F8CC7
:102CDA007EC57D757C3412293A7F017E00122697C3
:102CEA0090016EE0FCA3E0FDA3E0FEA3E0FF121D4D
:0C2CFA00837F0A7E0012269712196E22BA
:10293A00900172120772C2A07F20122C6D90017250
:10294A00E0FCA3E0FDA3E0FEA3E0FF781812073A3B
:10295A00122C6D900172E0FCA3E0FDA3E0FEA3E05F
:10296A00FF781012073A122C6D900172E0FCA3E076
:10297A00FDA3E0FEA3E0FF780812073A122C6D903F
:10298A000172E0FCA3E0FDA3E0FEA3E0FF122C6DC0
:05299A00D2A07F002225
:102D0600784676000876007846E6FE08E6FF9000EC
:102D160085E0FCA3E0FDEC54F7FCED54CFFDEE4C52
:102D2600FEEF4DFF7846A60608A6077846E6FC089D
:102D3600E6FD7F071230C97F09122F8D7844A6065B
:0A2D460008A6077844E6FE08E6FF41
:012D50002260
:101FF9009001C2EFF07F141232377F14122F4990EB
:102009000085E0FEA3E0FFAC06EF54FEFD7F07125A
:1020190030C99001C2E0FFEF1208B3203702205403
:102029000A207132208E6420C896000020AD7D21DF
:102039007C667F001230C97DD47C187F0A1230C9B2
:102049007D057CF57F00122B1580747D217C127F24
:10205900001230C97DD47C187F0A1230C97D067CF4
:10206900F77F00122B1580577D237C007F001230EB
:10207900C97DD07C187F0A1230C97D067CF67F00A5
:10208900122B15803A7D217C007F001230C97DD446
:102099007C187F0A1230C97D067CF77F00122B1548
:1020A900801D801B900085E0FEA3E0FFAC06EF4495
:1020B90001FD7F071230C97F14122F497F01229039
:1020C9000085E0FEA3E0FFAC06EF4401FD7F0712A7
:0A20D90030C97F14122F497F002246
:0529FE009001C3EFF0A1
:102A03007F14123237900067E0FEA3E0FF7F007867
:102A130055A60608A6079001C3E0FF7E00EF24FF3A
:102A2300FFEE34FFFE7855E6FC08E6FDEE4CFCEFC6
:102A33004DFD7F0D122B15900061E0FEA3E0FFEE2C
:102A430054C0FE7855A60608A6077855E6FC08E6A6
:082A5300FD7F0A122B157F0024
:012A5B002258
:10299F009001C4EFF09001C4E0FFEF1208B329B724
:1029AF000229CE04000029F8900093E0FEA3E0FF77
:1029BF00EE54BFFCEF54FBFD7F0E122B15802D90B4
:1029CF000093E0FEA3E0FFEE54BFFCEF54FBFD7F4E
:1029DF000E122B15900093E0FEA3E0FFAC06EF4420
:0F29EF0004FD7F0E122B1580037F01227F002233
:102E2F00900176EBF0A3EAF0A3E9F0900179EDF0D1
:102E3F007F601232377F01122F49C2A07F40122CC0
:102E4F006D900179E0FF14F0EF6019900176E0FBCF
:102E5F00A3E475F0011206BBA9F0FA1205E6FF1202
:072E6F002C6D80DDD2A022D2
:102E760090017AEBF0A3EAF0A3E9F090017DEDF082
:102E86007FE01232377F01122F49C2A07FC0122C79
:102E96006D90017DE0FF14F0EF6019122A5C90013D
:102EA6007AE0FBA3E475F0011206BBA9F0FAEF1273
:072EB600062C80DDD2A022F2
:052515009001C5EFF08C
:10251A009001C5E0FFEFC39402400B9001C5E0FFB4
:10252A00EFD3940740037F01227F141232379000C1
:10253A007FE0FEA3E0FFEF54F0FF7857A60608A657
:10254A00079001C5E0FF7E00EF25E0FFEE33FE783D
:10255A0057E6FC08E6FDEE4CFEEF4DFFAC06EF44F5
:10256A0001FD7F04122B157F0A7E001231037F01C1
:10257A00122B6D7E00EF5480FFEF7807CEC313CE87
:0E258A0013D8F9FFEF4E70047F0180027F002E
:012598002220
:10259900784D76FF0876FF7F1812323790008FE06A
:1025A900FEA3E0FFEE54FEFCAD077F0C1230C97F9D
:1025B9000F122F8DAC06EF4401FD7F0F1230C97F3A
:1025C9000F122F8DEF5401FF784CA607784D08E6BE
:1025D90016188606700116FFEF4E6007784CE6FF65
:1025E900EF70DC784DE6FE08E6FFD3EF9400EE9439
:1025F90000400F7F0C122F8DEF54FFFF784CA60778
:0F2609008004784C76007F14123237784CE6FF4D
:01261800229F
:102D5100122353EFB404037F04227F141232377D10
:102D6100457C007F08122B157D7F7C027F01122B91
:102D710015900091E0FEA3E0FFEE4404FCAD077F57
:102D81000D1230C9900095E0FEA3E0FFEE4402FC75
:0A2D9100AD077F0F1230C97F00224A
:102D9B007F141232377D457C007F08122B157D0581
:102DAB007CFC7F01122B15122353EFB404037F0419
:102DBB0022900051E0FEA3E0FFAC06EF4410FD7F34
:102DCB0002122B15900095E0FEA3E0FFEE4402FCEF
:0A2DDB00AD077F0F1230C97F002200
:102DE5007F141232377D4D7C007F08122B157D052F
:102DF5007CFC7F01122B15122353EFB404037F04CF
:102E050022900051E0FEA3E0FFAC06EF4430FD7FC9
:102E150002122B15900095E0FEA3E0FFEE4402FCA4
:0A2E2500AD077F0F1230C97F0022B5
:101AE5006020007700210A24B80500000A200024A0
:101AF500000000010000000018D47009440008002F
:101B0500484520C06020004DF70600000000110781
:101B150001700201400F2AC00045D281000408254A
:101B25000127003F155F00004A006D037F84000018
:051B35000000000000AB
:0D326A0053FBFB53F3FB758F0843A8842230
:10316E0053FBFB43F30453FBFD43F30243FB0153B9
:10317E00F3FE43FA8053F27F53E47E43FA4053F258
:0E318E00BF53FADF53F2DF12326A1232972279
:03001E00C2A0225B
:03329700D2A022A0
:1031C2009001C6EFF09001C6E0FFEFB4010753FA99
:0F31D200BF43F2402243FA4053F2BF53E4BE2200
:052C6D009001B8EFF03A
:102C72009001B9E4F09001B9E0FFEFC39408503736
:102C82009001B8E0FFEF30E704D2968002C2967F4F
:102C9200017E00123103D2977F017E00123103C2FE
:102CA200979001B8E0FFEF25E0FF9001B8EFF090B8
:072CB20001B9E004F080BE4F
:012CB90022F8
:082BC30090019EEEF0A3EFF07B
:102BCB009001A0E4F09001A0E0FFEFC39410503C03
:102BDB0090019EE0FEA3E0FFEE30E704D296800268
:102BEB00C296D2977F017E00123103C29790019E4D
:102BFB00E0FEA3E0FFEF25E0FFEE33FE90019EEE3B
:0C2C0B00F0A3EFF09001A0E004F080B90D
:012C1700229A
:102A5C009001BBE4F07F011231C29001BAE4F09016
:102A6C0001BAE0FFEFC3940850383096149001BBC4
:102A7C00E0FFEF25E0FFEF4401FF9001BBEFF0809A
:102A8C000E9001BBE0FFEF25E0FF9001BBEFF0D211
:102A9C00977F017E00123103C2979001BAE004F0D7
:0C2AAC0080BD7F001231C29001BBE0FF32
:012AB80022FB
:102710009001A2E4F0A3E4F07F011231C29001A184
:10272000E4F09001A1E0FFEFC39410504A30961DF1
:102730009001A2E0FEA3E0FFEF25E0FFEE33FEEF05
:102740004401FF9001A2EEF0A3EFF080179001A2E8
:10275000E0FEA3E0FFEF25E0FFEE33FE9001A2EEE6
:10276000F0A3EFF0D2977F017E00123103C2979061
:1027700001A1E004F080AB7F001231C29001A2E021
:04278000FEA3E0FFD5
:012784002232
:05304F009001A4EFF068
:103054009001A5E4F0A3E4F09001A5E4F0A3E4F06A
:103064009001A4E0FF7E009001A5E0FCA3E0FDC375
:10307400ED9FEC9E501200009001A6E004F0700653
:083084009001A5E004F080D8E2
:01308C002221
:0826970090015FEEF0A3EFF0EB
:10269F00900161E4F0A3E4F0900163E4F0A3E4F0AF
:1026AF00900161E4F0A3E4F090015FE0FEA3E0FF8E
:1026BF00900161E0FCA3E0FDC3ED9FEC9E504190C3
:1026CF000163E4F0A3E4F0900163E0FEA3E0FFC335
:1026DF00EF94DCEE940050180000000000000000A2
:1026EF00900164E004F07006900163E004F080D77D
:1026FF00900162E004F07006900161E004F080A8A0
:01270F0022A7
:101B3A00602000CB00000000000000000000000050
:101B4A00000000000000000000000000000000008B
:101B5A00000000004100C9004100CA004100C7005E
:041B6A004100C8006E
:10261900D28543F920C29FD29ED29C7E007F05EFCE
:102629008EF01208D92646000126530002266000C2
:1026390003266D0004267A00050000268775BA0373
:1026490075AA98438780D2DF803F75BA0375AACCF3
:10265900438780D2DF803275BA0375AAE643878043
:10266900D2DF802575BA0375AAEF438780D2DF8050
:102679001875BA0375AAF7438780D2DF800B75BA3C
:0E2689000375AA98438780D2DFD2ACD2AF226D
:030023000227852C
:10278500C0E0C083C082C085C084C0925392FEC0A1
:0B279500D075D000C006C0073098448B
:1027A0009001C7E4F0C298C29A9000C7E0FFEF041E
:1027B000FFEF541FFF9001C7EFF09000C8E0FF90BB
:1027C00001C7E0FEEE6F601C9000C7E0FF74CB2FE6
:1027D000F582E43400F583E599F09001C7E0FF90BD
:0427E00000C7EFF04F
:1027E400D007D006D0D0D092D084D085D082D083E8
:0327F400D0E03200
:1031FA009001C8EFF09001C8E0FF8F993099FD3037
:05320A009902C29922A7
:102EBD0090017EEBF0A3EAF0A3E9F0900181EDF033
:102ECD007859760078597600900181E0FF7859E6BF
:102EDD00FEEEC39F502090017EE0FBA3E0FAA3E03D
:102EED00F97859E6FF8F827583001205FFFF1231C5
:062EFD00FA78590680D2AC
:012F030022AB
:10308D009001A7EBF0A3EAF0A3E9F09001A7E0FB14
:10309D00A3E0FAA3E0F91205E6FFEF601E9001A789
:1030AD00E0FBA3E0FAA3E0F91205E6FF1231FA9076
:0C30BD0001A8E475F0011206A580D022E5
:1021B800900165EBF0A3EAF0A3E9F0900168ECF078
:0321C800A3EDF094
:1021CB00784A76FF0876FF784876007848E6FF7EF7
:1021DB0000900168E0FCA3E0FDC3EF9DEE9C400383
:1021EB00022282784AE6FE08E6FF900165E0FBA337
:1021FB00E0FAA3E0F97848E6FD8D827583001205BD
:10220B00FFFD7C00EE6CFEEF6DFF784AA60608A67C
:10221B0007784976007849E6FFEFC3940850527867
:10222B004AE6FE08E6FFEF30E02D784AE6FE08E6C8
:10223B00FFEEC313FEEF13FF784AA60608A6077836
:10224B004AE6FE08E6FFEE64A0FEEF6401FF784A63
:10225B00A60608A6078015784AE6FE08E6FFEEC339
:10226B0013FEEF13FF784AA60608A60778490680E7
:0E227B00A47848060221D6784AE6FE08E6FF5F
:012289002232
:10320F009001C9EFF09001C9E0FF8F993099FD301F
:05321F009902C2992292
:103224009001CAEFF09001CAE0FF12320F9001CA78
:03323400E0FF2296
:102FCF009001CBE4F09000C7E0FF9000C8E0FEEE68
:102FDF006F60279000C8E0FF74CB2FF582E43400B8
:102FEF00F583E0FF9001CBEFF09000C8E0FFEF0416
:0F2FFF00FFEF541FFF9000C8EFF09001CBE0FFF1
:01300E00229F
:102C18009001CCE4F09000C7E0FF9000C8E0FEEE21
:102C2800C39F50159000C8E0FF9000C7E0FEC3EEB8
:102C38009FFF9001CCEFF080269000C7E0FF900046
:102C4800C8E0FEEED39F40179000C8E0FFC3742091
:102C58009FFF9000C7E0FEEF2EFF9001CCEFF090B1
:042C680001CCE0FFBC
:012C6C002245
:0B32830043FBC053F53FD2A6D2A722A8
:100F3B000A233E20000A53415249353120436F703A
:100F4B0079726967687420323031322D3232000A7F
:100F5B0053415249353120434C49000A2B3D3D3D0D
:100F6B003D20436F6D6D616E64203D3D3D2B3D20FB
:100F7B0046756E6374696F6E203D3D3D3D3D3D3D55
:100F8B003D3D3D3D3D3D2B0A7C54524143202020AD
:100F9B002020202020202020207C20547261636997
:100FAB006E672041646A75737420526164696F20A7
:100FBB0020207C0A7C46524551203C76613E202005
:100FCB0020202020207C204765742F5365742046F9
:100FDB0072657175656E63792020202020207C0A54
:100FEB007C434F4C43203C76613E20202020202028
:100FFB00207C204765742F53657420434F4C43204E
:10100B00202020202020202020207C0A7C444946C0
:10101B0046203C76613E202020202020207C20474B
:10102B0065742F53657420446573697265644F66EC
:10103B006673657420207C0A7C52415445203C76B3
:10104B00613E202020202020207C204765742F53D8
:10105B00657420524620426175647261746520206C
:10106B0020207C0A7C54585057203C76613E20202F
:10107B0020202020207C204765742F53657420523C
:10108B004620545820506F776572202020207C0A10
:10109B007C4C4F4144202020202020202020202049
:1010AB00207C205265616420466C61736820536517
:1010BB007474696E6773202020207C0A7C53415620
:1010CB00452020202020202020202020207C205361
:1010DB0061766520746F20466C6173682020202038
:1010EB002020202020207C0A2B2D2D2D2D2D2D2D49
:1010FB002D2D2D2D2D2D2D2D2D2B2D2D2D2D2D2D17
:10110B002D2D2D2D2D2D2D2D2D2D2D2D2D2D2D2D04
:10111B002D2D2B00676574206C696E6520666169E7
:10112B006C65640A006765746C696E652025730ACB
:10113B00000A636D64206572726F720A00FF0F3BC9
:10114B00FF0F40FF0F5AFF0F6648454C5000000041
:04115B0000FF313B25
:101B6E00602000EB000000000000000000000000FC
:101B7E000000000000000000000000000000000057
:041B8E000000000053
:10313B009001AAEBF0A3EAF0A3E9F09001AAE0FB5F
:10314B00A3E0FAA3E0F99001AAEBF0A3EAF0A3E95C
:10315B00F0901151E493FB740193FA740293F912FA
:03316B000B232211
:1017AD0090012AEBF0A3EAF0A3E9F090012D1207C6
:0117BD0072B9
:1017BE0090013112077E00000000122C18EFD39416
:1017CE0000500302195A122FCF900135EFF09001FD
:1017DE0035E0FFEF1208B317FE0818770D191B112D
:1017EE00191B1318621B17FE7F000018C302191B6A
:1017FE007F007E007D007C00900131E0F8A3E0F9CF
:10180E00A3E0FAA3E0FBC3120729700302191B9091
:10181E000131E0FCA3E0FDA3E0FEA3E0FF7BFF7A35
:10182E00FF79FF78FFEF2BFFEE3AFEED39FDEC3836
:10183E00FC90013112077290012B74FF75F0FF12AC
:10184E0006A57F081232247F201232247F0812321E
:10185E002402191B90012AE0FBA3E0FAA3E0F9E4AD
:10186E0012062CE47E007F0022900135E0FF9001ED
:10187E002AE0FBA3E0FAA3E0F9EF12062C90012B6D
:10188E00E475F0011206A5900131E0FCA3E0FDA382
:10189E00E0FEA3E0FF7B017A0079007800EF2BFFDA
:1018AE00EE3AFEED39FDEC38FC90013112077290E4
:1018BE000135740AF0900135E0FF90012AE0FBA398
:1018CE00E0FAA3E0F9EF12062C90012AE0FBA3E068
:1018DE00FAA3E0F91205E6FF12322490012BE4750B
:1018EE00F0011206A5900131E0FCA3E0FDA3E0FE9D
:1018FE00A3E0FF7B017A0079007800EF2BFFEE3A30
:10190E00FEED39FDEC38FC90013112077290012D7D
:10191E00E0FCA3E0FDA3E0FEA3E0FFEF24FEFFEE5C
:10192E0034FFFEED34FFFDEC34FFFC900131E0F8A6
:10193E00A3E0F9A3E0FAA3E0FBC3120729500D9030
:10194E000135E0FFEF640A60030217D490012AE02C
:0F195E00FBA3E0FAA3E0F9E412062C7E007F0160
:01196D002257
:0B138000900136EBF0A3EAF0A3E9F0C7
:10138B0090013BE4F0A3740AF090013DE4F0A3E478
:10139B00F0900139E4F0A3E4F0900136E0FBA3E018
:1013AB00FAA3E0F91205E6FFEFB42D1590013DE429
:1013BB00F0A37401F0900137E475F0011206A580DB
:1013CB0043900136E0FBA3E0FAA3E0F91205E6FF38
:1013DB00EFB43030900137E475F0011206A590019F
:1013EB0036E0FBA3E0FAA3E0F91205E6FFEFB478D1
:1013FB0013900137E475F0011206A590013BE4F060
:10140B00A37410F0900136E0FBA3E0FAA3E0F9120D
:10141B0005E6FFEF7003021579900136E0FBA3E0C0
:10142B00FAA3E0F91205E6FFC3EF648094B0403EE7
:10143B00900136E0FBA3E0FAA3E0F91205E6FFD337
:10144B00EF648094B95027900136E0FBA3E0FAA338
:10145B00E0F91205E6FFEF3395E0FEEF24D0FFEE47
:10146B0034FFFE90013FEEF0A3EFF0021526900142
:10147B0036E0FBA3E0FAA3E0F91205E6FFC3EF6445
:10148B008094E1403D900136E0FBA3E0FAA3E0F944
:10149B001205E6FFD3EF648094E65026900136E008
:1014AB00FBA3E0FAA3E0F91205E6FFEF3395E0FEAC
:1014BB00EF24A9FFEE34FFFE90013FEEF0A3EFF017
:1014CB008059900136E0FBA3E0FAA3E0F91205E6A0
:1014DB00FFC3EF648094C15003021579900136E08D
:1014EB00FBA3E0FAA3E0F91205E6FFD3EF648094C7
:1014FB00C6507B900136E0FBA3E0FAA3E0F912059E
:10150B00E6FFEF3395E0FEEF24C9FFEE34FFFE90CC
:10151B00013FEEF0A3EFF08002805390013BE0FE21
:10152B00A3E0FF90013FE0FCA3E0FDC3ED9FEE6461
:10153B0080F8EC648098503690013BE0FCA3E0FD12
:10154B00900139E0FEA3E0FF12063E90013FE0FC64
:10155B00A3E0FDEF2DFFEE3CFE900139EEF0A3EF83
:10156B00F0900137E475F0011206A502140F9001FB
:10157B003DE0FEA3E0FFEF4E6011900139E0FEA3CA
:10158B00E0FFC3E49FFFE49EFE8008900139E0FE7C
:03159B00A3E0FFCB
:01159E00222A
:0B115F00900141EBF0A3EAF0A3E9F0DF
:10116A0090014AE4F090014B7420F07B007A0079F8
:10117A0000C003C002C001900141E0FBA3E0FAA352
:10118A00E0F9D082D083D0E06B7008E96582700301
:10119A00EA6583702B900141E0FBA3E0FAA3E0F932
:1011AA00C003C002C001900144E0FBA3E0FAA3E03F
:1011BA00F91207DB900141E0FBA3E0FAA3E0F92270
:1011CA00900141E0FBA3E0FAA3E0F91205E6FFEF84
:1011DA0064206013900141E0FBA3E0FAA3E0F91256
:1011EA0005E6FFEFB4223A900141E0FBA3E0FAA33F
:1011FA00E0F91205E6FFEFB4220C90014B7422F0DD
:10120A0090014A7401F0900141E0FBA3E0FAA3E0E7
:10121A00F9E412062C900142E475F0011206A58049
:10122A009F900141E0FBA3E0FAA3E0F9900147EBAC
:10123A00F0A3EAF0A3E9F0900147E0FBA3E0FAA3E8
:10124A00E0F91205E6FFEF640D6058900147E0FBF4
:10125A00A3E0FAA3E0F91205E6FFEF640A604490FE
:10126A00014AE0FFEF6014900147E0FBA3E0FAA314
:10127A00E0F91205E6FFEF6422602890014AE0FFD8
:10128A00EF7014900147E0FBA3E0FAA3E0F912051E
:10129A00E6FFEF6420600C900148E475F001120645
:1012AA00A58094900147E0FBA3E0FAA3E0F91205B8
:1012BA00E6FF90014BE0FEEF6E6028900147E0FBED
:1012CA00A3E0FAA3E0F91205E6FFEF640D601490BB
:1012DA000147E0FBA3E0FAA3E0F91205E6FFEF6499
:1012EA000A7048900147E0FBA3E0FAA3E0F9E41290
:1012FA00062C90014AE0FFEF6024900147E0FBA32F
:10130A00E0FAA3E0F91205E6FF90014BE0FEEFB523
:10131A00060C900148E475F0011206A5800D9001B3
:10132A0048E475F0011206A50212AD900147E0FBF0
:10133A00A3E0FAA3E0F91205E6FFEF601390014774
:10134A00E0FBA3E0FAA3E0F9C003C002C001800CED
:10135A007B007A007900C003C002C001900144E01A
:10136A00FBA3E0FAA3E0F91207DB900141E0FBA33B
:05137A00E0FAA3E0F918
:01137F00224B
:10159F0090011DE4F0A37401F07B007A00790090B4
:1015AF00011FEBF0A3EAF0A3E9F07B007A007900CA
:1015BF00900122EBF0A3EAF0A3E9F07B007A007927
:1015CF0000900125EBF0A3EAF0A3E9F0900129E4E4
:1015DF00F07B017A0079EB7F207E007D007C00128A
:1015EF0017AD90011DEEF0A3EFF090011DE0FEA3EB
:1015FF00E0FFEF4E700C7BFF7A11791F120B230265
:10160F0017A47BFF7A117930C003C002C0017B01A0
:10161F007A0079EB90009AEBF0A3EAF0A3E9F0D00F
:10162F0001D002D003120B237B017A0079EBC003A8
:10163F00C002C0017B017A017925900144EBF0A330
:10164F00EAF0A3E9F0D001D002D00312115F9001AC
:10165F001FEBF0A3EAF0A3E9F090011FE0FBA3E07A
:10166F00FAA3E0F91205E6FFEF70030217A4900149
:10167F001FE0FBA3E0FAA3E0F9900122EBF0A3EA4D
:10168F00F0A3E9F0900122E0FBA3E0FAA3E0F91246
:10169F0005E6FFEF6041900122E0FBA3E0FAA3E033
:1016AF00F91205E6FFEF6420602D900122E0FBA305
:1016BF00E0FAA3E0F91205E6FF123249900122E0A9
:1016CF00FBA3E0FAA3E0F9EF12062C900123E475D7
:1016DF00F0011206A580AD900128E4F0900128E0FA
:1016EF00FFC3EF64809481400302178A900128E0C2
:1016FF00FFEF3395E0FE7C007D0B12063E74542FF6
:10170F00F974113EFA7BFFC003C002C00190011FA4
:10171F00E0FBA3E0FAA3E0F9A801AC02AD03D0010E
:10172F00D002D003120A62EF7048900125E0FBA3AC
:10173F00E0FAA3E0F9C003C002C001900128E0FF66
:10174F00EF3395E0FE90115C75F00BEF1207AFEEE3
:10175F0075F00BA42583F583E493FB740193FA745E
:10176F000293F989828A83D001D002D00312090A29
:10177F008009900128E004F00216EB900128E0FFA9
:10178F00EFB4011190011DE4F0A3E4F07BFF7A1197
:0D179F00793C120B2390011DE0FEA3E0FF3A
:0117AC00221A
:101B9200013E03013D0002220000013B00013A0028
:101BA200062D4137313339000733000000000000B1
:101BB20000092468656C6C6F77202100013C0047A6
:101BC20000000000000000000060460007AABB0AF7
:101BD2000000FE38AABB0200003CB9AABB03000009
:101BE200FCE8AABB0400003D59AABB050000FD08A1
:101BF200AABB060000FDF8AABB0700003DA9AABBCC
:101C02000800003E99AABB090000FEC8AABB0A0050
:031C120000FE3899
:03001300020003E5
:10000300C0D075D000C000783D7601D000D0D0328A
:10300F00900182EBF0A3EAF0A3E9F0900185EDF0D7
:10301F007F141232377F0A7E00122697900182E0CA
:10302F00FBA3E0FAA3E0F9900185E0FD122E2F7FBC
:10303F001A1232377F0A7E00122697783E760222C6
:101EC300900186E4F0A37401F0900188E4F0A3E4A8
:101ED300F090015AE0FFEF6401704E90015AE4F074
:101EE300900188E0FEA3E0FFC3EF940AEE648094C0
:101EF30080502E900188E0FEA3E0FF7C007D071256
:101F0300063E74072FF974003EFA7B017D071230F9
:101F13000F900189E004F07006900188E004F080DE
:101F230008900188E4F0A3E4F0783DE6FFEF640154
:101F33006003021FF0783EE6FFEF1208B31F64014F
:101F43001FDA021F4D0300001FEC7B007A00793378
:101F53007D06122E767F18123237783E7601021FE5
:101F6300EC7B007A0079337D07122E767F181232CC
:101F7300377B007A0079337D057C001221B8782203
:101F8300A60608A6077822E6FE08E6FFEF54FFFF41
:101F9300783BA6077822E6FE08E6FFEEFF7E00EF19
:101FA30054FFFF783AA6077838E6FF783AE6FEEE64
:101FB3006F70367839E6FF783BE6FEEE6F702A786D
:101FC30035E6FFEF640A70217B007A0079337D07E1
:101FD300122EBDB2A68012B2A77F181232377F0A23
:101FE3007E00122697783E7601783D760090018632
:051FF300E0FEA3E0FF89
:011FF80022C6
:101C15004401560000000042015B000042015D00E6
:051C25000041015A001E
:10325A00438910758DAE758B9F43884043A8882299
:03001B0002286850
:10286800C0E0C083C082C085C084C0925392FEC0BD
:10287800D075D000C006C007C2AB90015CE004F080
:10288800700690015BE004F090015BE0FEA3E0FFBE
:102898007E00EF547FFFEF4E701690015EE004F06B
:1028A800700690015DE004F090015A7401F0B2A73F
:1028B800758DAE758B9FD2ABD007D006D0D0D09295
:0B28C800D084D085D082D083D0E032D5
:0831030090018AEEF0A3EFF049
:10310B0090018CE4F0A3E4F090018AE0FEA3E0FFD1
:10311B0090018CE0FCA3E0FDC3ED9FEC9E50109062
:0F312B00018DE004F0700690018CE004F080D973
:01313A002272
:052F49009001ADEFF066
:102F4E009001AEE4F09001AFE4F09001AEE4F090A9
:102F5E0001ADE0FF9001AEE0FEEEC39F5020900168
:102F6E00AFE4F09001AFE0FFEFC394DC50089001A6
:0E2F7E00AFE004F080ED9001AEE004F080D1F1
:012F8C002222
:0800260090018EEEF0A3EFF053
:10002E0012328E900190EEF0A3EFF012328E90010C
:10003E0090E0FCA3E0FDC3EF9DFFEE9CFE90018ED1
:0C004E00E0FCA3E0FDC3EF9DEE9C40DF52
:01005A002283
:09328E0090015BE0FEA3E0FF22C9
:0C32770090015DE0FEA3E0FFE4FCFD22FE
:061C2A004301B3000000BD
:040016001231E122A0
:101C390090010BEBF0A3EAF0A3E9F090010EECF0B0
:031C4900A3EDF018
:101C4C00900117E4F0A3E4F07B007A007900C00364
:101C5C00C002C0019001B3E0FBA3E0FAA3E0F9D00D
:101C6C0082D083D0E06B7008E965827003EA6583EB
:101C7C007009900117E4F0A37401F0900112E0FBDD
:101C8C00A3E0FAA3E0F9C003C002C00190010BE08D
:101C9C00FBA3E0FAA3E0F975820275830012085ADF
:101CAC00900115E0FEA3E0FFAA06A9077B01C00383
:101CBC00C002C00190010BE0FBA3E0FAA3E0F975B0
:101CCC00820575830012085A90010EE0FEA3E0FF16
:101CDC0090010BE0FBA3E0FAA3E0F9EE8FF0120603
:101CEC00FC90010BE0FBA3E0FAA3E0F99001B3EB4D
:101CFC00F0A3EAF0A3E9F0900115E0FEA3E0FF8F5A
:101D0C00828E83E0FEA3E0FF90010EE0FCA3E0FDD9
:101D1C00C3ED9FFFEC9EFE900119EEF0A3EFF09047
:101D2C000119E0FEA3E0FF7C067D4A1206509001EB
:101D3C00BEEFF09001BEE0FF7E007C067D491206EE
:101D4C003E900119E0FCA3E0FDC3ED9FFFEC9EFE6D
:101D5C0090011BEEF0A3EFF0900117E0FEA3E0FF63
:101D6C00EF64014E700B90011BE0FEA3E0FF1231FB
:061D7C009CE47E007F00E4
:011D8200223E
:1020E3007B007A007900C003C002C0019001B3E015
:1020F300FBA3E0FAA3E0F9D082D083D0E06B7008B1
:10210300E965827003EA658370030221B79001B326
:10211300E0FBA3E0FAA3E0F99001B0EBF0A3EAF04F
:10212300A3E9F07B007A0079009001B3EBF0A3EA16
:10213300F0A3E9F09001B0E0FBA3E0FAA3E0F9AE6D
:1021430002AF019001B0E0FBA3E0FAA3E0F97582CE
:102153000575830012082AAC02AD019001B0E0FBC3
:10216300A3E0FAA3E0F975820275830012082A89B5
:10217300828A8312090A7B007A007900C003C002B5
:10218300C0019001B3E0FBA3E0FAA3E0F9D082D051
:1021930083D0E06B7008E965827003EA658360149D
:1021A3009001B3E0FBA3E0FAA3E0F91206D1FFAE7E
:0421B300F012319C59
:0121B7002205
:081C30004101BE004101BF00AB
:1031E10075CD0075CC0075CB0075CA0075C3C0756F
:0931F100C20043C89543C1082245
:10319C009001BCEEF0A3EFF09001BCE0FEA3E0FFC9
:1031AC008FC29001BCE0FEA3E0FFEEFF7E008FC358
:0631BC0043C108D2BB2252
:03005B000228D3A5
:1028D300C0E0C0F0C083C082C085C084C092539260
:1028E300FEC0D075D000C000C001C002C003C00448
:1028F300C005C006C007C2BB9001BFE004F0900151
:10290300BEE0FF9001BFE0FEEEB507081220E390A2
:1029130001BFE4F0D2BBD007D006D005D004D0036A
:10292300D002D001D000D0D0D092D084D085D08234
:07293300D083D0F0D0E032A8
:10005E0002041FE86480F8E933E83360110460F0AD
:10006E00ED33EC337009E8FCE9FDEAFEEBFF220408
:10007E0060DED3EB9FEA9EE99DE8C2E78CF0C2F703
:10008E0095F0400CE8CCF8E9CDF9EACEFAEBCFFBCF
:10009E001203EA85D0F05804700320D5B3E804703B
:1000AE00075002B2D502042992D5EC0460F7E4CCD5
:1000BE00C0E0C398F8603B94186008400DD0E0FB98
:1000CE00020401E4FBFAC9FC8028E830E406E4C926
:1000DE00FBE4CAFCE830E305E4C9CACBFCE85407EC
:1000EE006010F8C3E913F9EA13FAEB13FBEC13FCF7
:1000FE00D8F130F52FC3E49CFCEF9BFFEE9AFEED9A
:10010E0099FDD0E0FBEF4E4D4C701222DB03020442
:10011E0026EC2CFCEF33FFEE33FEED33FDED30E736
:10012E00EB020401EF2BFFEE3AFEED39FDD0E0FBC2
:10013E0050130BBB0003020429ED13FDEE13FEEF6B
:08014E0013FFEC13FC02040195
:10015600EC4D6011E8497017ED33EC3304600DE4A3
:10016600FCFFFEFD22E933E8330470F802041F1297
:1001760003EA58046009E4CC248150062850090299
:100186000429284003020426C0E0EB4A7044B980E3
:1001960006D0E0FB020415EF4E701CBD8008EBFF95
:1001A600EAFEE9FD80EBE98DF0A4FEE5F002023FF0
:1001B600E9CDF9EAFEEBFFEF89F0A4FCE5F0CE8984
:1001C600F0A42EFFE435F0CD89F0A42DFEE435F041
:1001D6008067EF4E7005BD80D780C3EF8BF0A4AC6F
:1001E600F0EE8BF0A42CFCE435F0F8EF8AF0A42CAA
:1001F600E5F038FCE433CB8DF0A42CFCE5F03BF8BD
:10020600EE8AF0A42CFCE5F038F8E433CF89F0A4AC
:100216002CFCE5F038CF3400CE89F0A42FFFE5F0B2
:100226003EFEE433C98DF0A42EFEE5F039CD8AF00A
:10023600A42FFFE5F03EFEE43DFD33D0E0FB500782
:100246000BBB000F020429EC2CFCEF33FFEE33FE50
:06025600ED33FD0204017E
:10025C00020429EC5D046005E85904700302041FD4
:10026C001203EA580460F6EC4860F2EC7004FDFEF0
:10027C00FF22C860DB2481C85009C3986002500675
:10028C000204269850CAF582E9294B4A7005AB82C4
:10029C0002041575F0007C1A7880C3EF9BEE9AED82
:1002AC0099400DC3EF9BFFEE9AFEED99FDE842F0ED
:1002BC00DC23ACF0D0E0FFD0E0FED0E0FDAB822040
:1002CC00E7101BEB60BAEC2CFCEF33FFEE33FEEDCA
:1002DC0033FD020401E803F830E705C0F075F000C7
:1002EC00EF2FFFEE33FEED33FD40B830E7C280AAAE
:1002FC0074F8CC6480CCC86480C8F58204604FC3A9
:10030C00EB9FF5F0EA9E42F0E99D42F0E89C45F047
:10031C00603C501DE5825FFFE582D313CB5BCBF4D1
:10032C002B5582FB50280ABA002409B900200880FA
:10033C001DE5825BFBE582D313CF5FCFF4C3132F94
:10034C005582FF50090EBE00050DBD00010CC3EB1C
:10035C009FF5F0EA9E42F0E99D42F0E89C45F06082
:09036C0007CC4820E701B3EC22A4
:1003750075F020800E75F010800575F0087D007E03
:10038500007F003392D530D50312071BEC334010A4
:10039500EF33FFEE33FEED33FDEC33FCD5F0ED220C
:0E03A500E5F0247EA2D513CC92E7CDCEFF2248
:1003B300EDD2E7CD33EC3392D524814006E4FFFE42
:1003C300FDFC22FCE4CFCECDCC24E0501174FF80A1
:1003D300EDC3CC13CCCD13CDCE13CECF13CF04703E
:0703E300F030D5DE02071B1C
:100AB800E508249AF582E43400F583E005082290DD
:100AC800009730070390009AE475F0011207BB0203
:100AD80005E62000E97F2ED2008018EF540F2490FD
:100AE800D43440D4FF30040BEF24BFB41A005003B1
:100AF8002461FFE50960021509050CE50C70020583
:100B08000B30070E900097E475F0011207BBEF0257
:100B1800062C0232247403D2078003E4C207F508C6
:100B28009000971207D2E4F509F50BF50CE509607A
:100B3800077F20120AFB80F5750AFFC201C200C2B6
:100B480002C203C205C206C208120AC7FF700D30EE
:100B580007057F00120B0CAF0CAE0B22B4255FC249
:100B6800D5C204120AC7FF24D0B40A00501A75F07F
:100B78000A780930D50508B6FF0106C6A426F6206E
:100B8800D5047002D20380D924CFB41A00EF5004E0
:100B9800C2E5D204020DFED20180C6D20080C0D2C6
:100BA8000280BCD2D580BAD20580B47F20120AFB5D
:100BB8002002077401B5090040F1120AB8FF120AB1
:100BC800FB020B35D208D2068095120AB8FB120A2E
:100BD800B8FA120AB8F94A4B700679FC7A0E7BFF0C
:100BE80020022EE509602A7E008E82758300120598
:100BF800FF60060EEE650A70F0C2D5EBC0E0EAC0F1
:100C0800E0E9C0E0EE120E5FD0E0F9D0E0FAD0E003
:100C1800FB1205E6FF60AAEBC0E0EAC0E0E9C0E02D
:100C2800120AFBD0E02401F9D0E03400FAD0E0FB4E
:100C3800E50A0460DCD50AD98087D20280A2120EA8
:100C48004160F7E50A700104120434A90A600DE551
:100C58000A600914F50A120EE9EF60F3EA30E702B8
:100C6800F404C3995079EAF4250A0430E701E4044E
:100C7800F50A800D120E4160C1EA050A250A120420
:100C880034EA9000C6F030E701E4250A04D50A04E6
:100C980020050114120E5FE4C0E0120EE99000C6B0
:100CA800E0601320E70714F0120AE3802204F0D072
:100CB800E014C0E07F00120AE3E50A6007120ADACE
:100CC800150A800B300503120ADAD0E0020B35D082
:100CD800E00480C4120E41609EE50A0412043490B8
:100CE80000C6EAF0E50A2005026001042404120E99
:010CF8005F9C
:100CF90074FF04C0E0120EE9120AE3E50A200502B6
:100D09006003120ADAD0E0B50AE87F45120AED90CD
:100D190000C6E07F2B30E7047F2DF404C0E0120AFF
:100D2900FBD0E075F00A84C0F0120AE4D0E0120AA0
:100D3900E4020B35791080027908C206C2088008DE
:100D4900D2D5790A8004790AC2D5E50A047002F578
:100D59000AE4FAFDFEFF120AB8FC7B08200113120F
:100D69000AB8FD7B1030000A120AB8FE120AB8FF51
:100D79007B20EC3382D592D55013C3E43000069F13
:100D8900FFE49EFEE42001039DFDE49CFCE4CBF816
:100D9900C201EC700CCFCECDCCE824F8F870F3800A
:100DA90017C3EF33FFEE33FEED33FDEC33FCEB33CA
:100DB900FB994002FB0FD8E9EB300105F8D0E0C4FC
:100DC90048B201C0E00AEC4D4E4F78207B0070C25A
:100DD900EAB50A0040BCC0E0120E61D0F0D0E020B4
:100DE9000104C4C0E0C4B201C0F0120AE4D0F0D5D5
:100DF900F0EB020B351208B30BD2530D3D580BA380
:100E09004C0B9F420D414F0D49440D49490BB843C5
:100E19000D4F550C7C460CDC450C46470F1C500BFE
:100E2900A72D0BAB2E0BCE2B0BAF230BCC200F0515
:100E39002A0B674800000BC6E50AB4FF03750A06CA
:100E4900120AB8FC120AB8FD120AB8FE120AB8FF53
:100E59009000BF020471790AA2D520031430050954
:100E6900B910020404B9080104A2D52006025001F0
:100E7900042002689202B509005034C0E07F203096
:100E890003197F30A20272067205500F120EB8C202
:100E990002C206C205C2087F30800F300503E9C0CF
:100EA900E0120AFB300503D0E0F9D0E0B509CC30F7
:100EB90005177F30B9100C120AFB7F583004077FE1
:100EC900788003B90803120AFB3002057F2D020A54
:100ED900FB7F202008F87F2B2006F322920280CF87
:100EE9007F00B40700500B24BFF582E43400F5837A
:100EF900E0FF22286E756C6C2900D201120AB83005
:100F090001F8C201780930D50108F6020B672D50A6
:100F1900434958120AB82403B405004001E4900F6C
:100F29001793120AEC743A120AECD20375090402F7
:020F39000D3D6C
:1003EA00E9D2E7C933E833F892D5EDD2E7CD33EC59
:0703FA0033FC5002B2D522D2
:10040100EC30E7100FBF000C0EBE00080DBD00045C
:100411000BEB6014A2D5EB13FCED92E7FD2274FF08
:10042100FCFDFEFF22E480F8A2D574FF13FC7D8061
:03043100E480EF75
:10043400F920E73624F950037907E4F42402FBE5B4
:1004440082158270021583DBF6E024FB501BE96001
:1004540014E4F0E582158270021583E004F0B40A16
:0D04640008E4F0D9EE7401F00A22C2D5229E
:10047100ED33EC3392D5FA602AB4FF33EDC2E77B5A
:10048100FF60067A047996E4227A04799F20D504E4
:100491007A04799A224E614E002B494E46002D492D
:1004A1004E4600E47A08F0A3DAFC7B00740722C010
:1004B10083C082ECC0E0EDC0E0EEC0E0EFC0E0EA56
:1004C10075F010A4CAABF075F04DA42BFBE435F028
:1004D100FCEA2410FAEB34C5FBEC34D9FCEDC2E79D
:1004E100FF75F056A4F42411C5F0F434C58FF0A4BF
:1004F1002AE5F03BE43CF020E7141205A6D0E0FF2A
:10050100D0E0FED0E0FDD0E0FC12025F8014F404E4
:100511001205A6D0E0FFD0E0FED0E0FDD0E0FC1255
:100521000156D082D083E0FAEDD2E7CD33EC33240B
:1005310082FBE4C3CF33CFCE33CECD33CD33DBF328
:100541007B0775F00A846004F0A31B0AE5F0F0A3B1
:100551008FF0740AA4FFACF08EF0740AA42CFEACE8
:10056100F050010C8DF0740AA42CFDE435F0F0A3D9
:05057100DBDE7407222F
:100576003F8000004120000042C80000447A00008D
:10058600461C400047C35000497424004B1896800F
:100596004CBEBC205A0E1BCA6753C21C749DC5AE06
:1005A600FB60065407601C23231205D4EB54386005
:1005B600091205C01205CF120156ECF8EDF9EEFA54
:1005C600EFCB22EB1205CF80F1543803241C9005A3
:1005D60076FE93FC0EEE93FD0EEE930ECE93FF2267
:102495000223F9E493A3F8E493A34003F68001F241
:1024A50008DFF48029E493A3F85407240CC8C33348
:1024B500C4540F4420C8834004F456800146F6DF17
:1024C500E4800B0102040810204080901AE0E47EAD
:1024D500019360BCA3FF543F30E509541FFEE4930C
:1024E500A360010ECF54C025E060A840B8E493A3D3
:1024F500FAE493A3F8E493A3C8C582C8CAC583CAFE
:10250500F0A3C8C582C8CAC583CADFE9DEE780BEB5
:011C380000AB
:1005E600BB010689828A83E0225002E722BBFE0213
:0905F600E32289828A83E4932246
:1005FF00BB010CE58229F582E5833AF583E02250B1
:10060F0006E92582F8E622BBFE06E92582F8E222FA
:0D061F00E58229F582E5833AF583E4932214
:10062C00BB010689828A83F0225002F722BBFE01AD
:02063C00F322A7
:10063E00EF8DF0A4A8F0CF8CF0A428CE8DF0A42ED0
:02064E00FE228A
:10065000BC000BBE0029EF8DF084FFADF022E4CC8E
:10066000F875F008EF2FFFEE33FEEC33FCEE9DEC57
:10067000984005FCEE9DFE0FD5F0E9E4CEFD22ED9D
:10068000F8F5F0EE8420D21CFEADF075F008EF2FE7
:10069000FFED33FD4007985006D5F0F222C398FDD8
:0506A0000FD5F0EA2275
:1006A500C5F0F8A3E028F0C5F0F8E58215827002E0
:0606B5001583E038F0227D
:1006BB00A3F8E0C5F025F0F0E582158270021583F2
:0606CB00E0C838F0E8224F
:1006D100BB010A89828A83E0F5F0A3E022500687F4
:1006E100F009E71922BBFE07E3F5F009E3192289B6
:0B06F100828A83E493F5F074019322E9
:1006FC00BB010A89828A83F0E5F0A3F0225006F749
:0F070C0009A7F01922BBFE06F3E5F009F3192245
:0E071B00C3E49FFFE49EFEE49DFDE49CFC22EF
:10072900EB9FF5F0EA9E42F0E99D42F0E89C45F026
:01073900229D
:10073A00E8600FECC313FCED13FDEE13FEEF13FF9D
:03074A00D8F122C1
:0C074D00E6FC08E6FD08E6FE08E6FF22D8
:0D075900E6FB08E6F908E6FA08E6CBF82210
:0C076600ECF608EDF608EEF608EFF622BF
:0C077200ECF0A3EDF0A3EEF0A3EFF022FA
:10077E00A8828583F0D083D0821207951207951236
:10078E000795120795E473E493A3C583C5F0C5835B
:10079E00C8C582C8F0A3C583C5F0C583C8C582C8C5
:0107AE002228
:0C07AF00A42582F582E5F03583F5832255
:1007BB00F8E0FBA3A3E0F925F0F0E58215827002C7
:0707CB001583E0FA38F0226B
:0907D200EBF0A3EAF0A3E9F02228
:1007DB00BB011A89828A83D0F0D0E0F8D0E0F9D03F
:1007EB00E0FAD0E0FBE8C0E0C0F00207D25016E917
:1007FB00F8D083D082D0E0F9D0E0FAD0E0FBC08211
:10080B00C083020A88BBFE16E9F8D083D082D0E001
:0F081B00F9D0E0FAD0E0FBC082C083020AA3222A
:10082A00BB010DE58229F582E5833AF583020A9137
:10083A005007E92582F8020A7FBBFE07E92582F8FC
:10084A00020A9AE58229F582E5833AF583020AAC1F
:10085A00BB0120E58229F582E5833AF583D0F0D001
:10086A00E0F8D0E0F9D0E0FAD0E0FBE8C0E0C0F070
:10087A000207D25018E92582F8D083D082D0E0F955
:10088A00D0E0FAD0E0FBC082C083020A88BBFE181F
:10089A00E92582F8D083D082D0E0F9D0E0FAD0E01E
:0908AA00FBC082C083020AA322F4
:1008B300D083D082F8E4937012740193700DA3A3D4
:1008C30093F8740193F5828883E4737402936860E8
:0608D300EFA3A3A380DFE8
:1008D900D083D082F8E4937012740193700DA3A3AE
:1008E90093F8740193F5828883E473740293B5F0E5
:0D08F900067403936860E9A3A3A3A380D84D
:060906008A838982E4737C
:10324900EFC39461400AEF947B5005EF24E0FF221D
:013259002252
:10090C00E3F5F009E208B5F06D606B80F3E3F5F008
:10091C0009E608B5F060605E80F387F009E608B57B
:10092C00F054605280F487F009E208B5F048604654
:10093C0080F488828C8387F009E0A3B5F0386036A8
:10094C0080F488828C8387F009E493A3B5F0276048
:10095C002580F388828C83E3F5F009E0A3B5F016CB
:10096C00601480F388828C83E3F5F009E493A3B5DB
:10097C00F004600280F2020A23808580E7808E807A
:10098C00D28032801580628074809B80B5808B8091
:10099C00A1804580668030020A2F88848C858982EC
:1009AC008A83E493F5F0A30592E493A31592B5F032
:1009BC0066606480ED89828A83E493F5F0A3E20893
:1009CC00B5F054605280F289828A83E0F5F0A3E698
:1009DC0008B5F043604180F389828A83E0F5F0A387
:1009EC00E208B5F032603080F389828A83E493F5B3
:1009FC00F0A3E608B5F020601E80F2803F88848C5E
:100A0C008589828A83E493F5F0A30592E0A315927D
:100A1C00B5F004600280EE7FFFB5F0020F224002B9
:100A2C007F012288848C8589828A83E0F5F0A30576
:100A3C0092E0A31592B5F0DF60DD80EF88848C85A1
:100A4C0089828A83E0F5F0A30592E493A31592B50D
:100A5C00F0C560C380EE88F0ED2402B4040050B7FA
:100A6C00F582EB2402B4040050AD2323458223907D
:030A7C0009857376
:090A7F00E6FB08E6FA08E6F9229C
:090A8800EBF608EAF608E9F62293
:090A9100E0FBA3E0FAA3E0F92266
:090A9A00E2FB08E2FA08E2F9228D
:090AA300EBF208EAF208E9F22284
:0C0AAC00E493FB740193FA740293F922A6
:00000001FF
