:03000000022216C3
:0C221600787FE4F6D8FD75813E02225D61
:0A3FF600FFFFFFFFFFFFF75AA5AF22
:102E4F007274696D65722063616C6C206261636B73
:0F2E5F000A0074657374207072696E74660A00DD
:051F03004200FE000099
:102606007BFF7A2E794F120B23B2A6AFCD7E00EF59
:102616007F00FEADCC7C00EF2DFFEE3CFE9000FE71
:10262600EEF0A3EFF07B017A017900C003C002C08F
:10263600019000FEE0FEA3E0FFEF24FAFDEE34FF7A
:10264600FC9000C3E4F0A37401F07BFF7A267906C0
:102656009000C5EBF0A3EAF0A3E9F07E007FFE90C0
:1026660000C8EEF0A3EFF0D001D002D003121AB4E6
:012676002241
:1022A20075865A122F37122F0E12242A12001E7B05
:1022B200FF7A2E7961120B23AFCD7E00EF7F00FEF5
:1022C200ADCC7C00EF2DFFEE3CFE9000FEEEF0A3C5
:1022D200EFF07B017A017900C003C002C0019000D7
:1022E200FEE0FEA3E0FFEF2400FDEE3480FC900050
:1022F200C3E4F0A37401F07BFF7A2679069000C54F
:10230200EBF0A3EAF0A3E9F07E007FFE9000C8EEB6
:10231200F0A3EFF0D001D002D003121AB412159F2D
:06232200E47E007F0022B2
:102D220090013BEFF090013CECF0A3EDF0C2A090DB
:102D3200013BE0FFEF4400FF90013BEFF090013BCD
:102D4200E0FF122BD87F01122CA890013CE0FEA3D9
:082D5200E0FF1229CAD2A02201
:052D9200900161EFF06B
:102D9700C2A0900161E0FFEF4480FF900161EFF076
:102DA700900161E0FF122BD87F01122CA812252178
:102DB7007832A60608A607D2A07832E6FE08E6FF14
:012DC70022E9
:0D291C0090013EEFF090013FECF0A3EDF0D4
:1029290090013EE0FF7E007834A60608A6077834B9
:10293900E6FE08E6FFEF7F00C454F0FE900038E0A1
:10294900FCA3E0FDEE4CFEEF4DFF7834A60608A689
:10295900077834E6FC08E6FD7F07122D2290013F37
:0A296900E0FCA3E0FD7F08122D2220
:012973002241
:0D286500900141EFF0900142ECF0A3EDF086
:10287200900141E0FF7E007836A60608A60778366A
:10288200E6FE08E6FFEF7807C333CE33CED8F9FF72
:10289200900038E0FCA3E0FDEE4CFEEF4DFF7836F1
:1028A200A60608A6077836E6FC08E6FD7F07122D85
:0E28B20022900142E0FCA3E0FD7F09122D22DE
:0128C00022F5
:05297400900162EFF08C
:10297900900162E0FF7E007838A60608A60778383D
:10298900E6FE08E6FFEF7F00C454F0FE900038E051
:10299900FCA3E0FDEE4CFEEF4DFF7838A60608A635
:1029A900077838E6FC08E6FD7F07122D227F08121A
:1029B9002D927838A60608A6077838E6FE08E6FFBD
:0129C90022EB
:1020A700781F7600781FE6FFEFC394085024781F47
:1020B700E6FF75F002EFA4242AF582E5F03400F577
:1020C70083E0FCA3E0FD781FE6FF122D22781F06B0
:1020D70080D2781F760A781FE6FFEFC3941050244A
:1020E700781FE6FF75F002EFA4242AF582E5F034A5
:1020F70000F583E0FCA3E0FD781FE6FF122D2278B0
:102107001F0680D2781F7600781FE6FFEFC3941072
:102117005024781FE6FF75F002EFA42400F582E54E
:10212700F03400F583E0FCA3E0FD781FE6FF1229F9
:102137001C781F0680D2781F7600781FE6FFEFC352
:1021470094055024781FE6FF75F002EFA42420F5CC
:1021570082E5F03400F583E0FCA3E0FD781FE6FF9D
:08216700122865781F0680D2E2
:01216F00224D
:101942007F00122D92781DA60608A607900048E097
:10195200FEA3E0FFEE4408FCEF4402FD7F0F122DD0
:10196200227F0F122D92781DA60608A607781DE683
:10197200FE08E6FFEE5408FEEF5402FFEF4E70E160
:101982007F0E122D92781DA60608A607781DE6FE88
:1019920008E6FFEEC4F854F0C868FEEFC4540F48DE
:1019A200FFEF5401FF781AA607781AE6FFEF6003EB
:1019B2007F04227F0A122974781DA60608A60778DA
:1019C2001DE6FE08E6FFEEC4F854F0C868FEEFC458
:1019D200540F48FFEF5401FF781CA607781CE6FF5E
:1019E200EF60037F04227D007C4C7F0C122D227D50
:1019F200007CF87F0212291C900000E0FEA3E0FFA9
:101A0200EE44E0FCAD077F0012291C900048E0FE86
:101A1200A3E0FFEE4410FCAD077F0F122D227F0FD3
:101A2200122D92781DA60608A607781DE6FE08E686
:101A3200FFEE20E4E9900042E0FCA3E0FD7F0C12FF
:101A42002D22900004E0FCA3E0FD7F0212291C90ED
:101A52000000E0FCA3E0FD7F0012291C900048E09A
:101A6200FEA3E0FFAC06EF4404FD7F0F122D227FA0
:101A72000F122D92781DA60608A607781DE6FE080D
:101A8200E6FFEF20E2E97F0E122D92781DA60608EE
:101A9200A607781DE6FE08E6FFEEFF7E00EF540182
:101AA200FF781BA607781BE6FFEF60037F04227F07
:011AB2000033
:011AB3002210
:061BFE0090011B120772AA
:101C04007BCD7ACC794C784190011BE0FCA3E0FDBC
:101C1400A3E0FEA3E0FF12025F780D120766780DC1
:101C240012074D1203B37811A6077811E6FCE412EB
:101C3400037FC004C005C006C007780D12074DD04D
:101C440003D002D001D00012006178121207667F1F
:101C5400007E007D807C47781212075912015612CB
:101C640003B37816A60608A6077F14122EEB90007D
:101C740030E0FEA3E0FFEE547FFE7818A60608A627
:101C8400077818E6FC08E6FD7F03122D2290003643
:101C9400E0FEA3E0FFEE540FFE7818A60608A607A0
:101CA4007818E6FC08E6FD7F06122D227F007E00F0
:101CB4007D577C4490011BE0F8A3E0F9A3E0FAA36C
:101CC400E0FB1202FC5015900032E0FEA3E0FFEEB0
:101CD40054EFFE7818A60608A6078013900032E099
:101CE400FEA3E0FFEE4410FE7818A60608A60778C7
:101CF40018E6FC08E6FD7F04122D2290002CE0FE7D
:101D0400A3E0FF7F007818A60608A6077811E6FF6F
:101D14007E007818E6FC08E6FDEE4CFCEF4DFD7FF6
:101D240001122D227816E6FC08E6FD7F02122D2210
:091D34007D007C007F021228658D
:011D3D002283
:10217000782276FF782576FF0876FF900004E0FE4F
:10218000A3E0FFAC06EF4410FD7F0212291C900073
:102190001EE0FEA3E0FFAC06EF4401FD7F0F122915
:1021A0001C7F0F1229747E00EF5401FF7823A606CE
:1021B00008A6077823E6FE08E6FFEF4E60107825B4
:1021C00008E616188606700116FFEF4E70D37F0FD3
:1021D000122974EE5403FEEEC313FEEF13FF7823AF
:1021E000A60608A6077823E6FE08E6FFD3EF94BA12
:1021F000EE940040137823E6FE08E6FFC3EF94C692
:10220000EE940050037F05227822E616FFEF60036C
:0522100002218E7F0495
:0122150022A6
:102EEB00900163EFF0C2A0900163E0FF122BD8D2E8
:022EFB00A02213
:102E8D0090011F120772D2A0C2977F70122EEB7F96
:0D2E9D000A7E001224A81220A7121942225A
:1026DE00900123120772C2A07F20122BD8900123E3
:1026EE00E0FCA3E0FDA3E0FEA3E0FF781812073A9A
:1026FE00122BD8900123E0FCA3E0FDA3E0FEA3E0A3
:10270E00FF781012073A122BD8900123E0FCA3E0B9
:10271E00FDA3E0FEA3E0FF780812073A122BD89033
:10272E000123E0FCA3E0FDA3E0FEA3E0FF122BD803
:05273E00D2A07F002283
:102A1D00782976000876007829E6FE08E6FF900012
:102A2D0038E0FCA3E0FDEC54F7FCED54CFFDEE4C8B
:102A3D00FEEF4DFF7829A60608A6077829E6FC08C3
:102A4D00E6FD7F07122D227F09122D927827A6060B
:0A2A5D0008A6077827E6FE08E6FF4A
:012A6700224C
:101D3E00900164EFF07F14122EEB7F147E001224BC
:101D4E00A8900038E0FEA3E0FFAC06EF54FEFD7F46
:101D5E0007122D22900164E0FFEF1208B31D7E02E0
:101D6E001D9B0A1DB8321DD5641E119600001DF470
:101D7E007D217C667F00122D227DD47C187F0A1275
:101D8E002D227D057CF57F0012291C80767D217C1D
:101D9E00127F00122D227DD47C187F0A122D227DF7
:101DAE00067CF77F0012291C80597D237C007F0062
:101DBE00122D227DD07C187F0A122D227D067CF6F4
:101DCE007F0012291C803C7D217C007F00122D2279
:101DDE007DD47C187F0A122D227D067CF77F00129F
:101DEE00291C801F801D900038E0FEA3E0FFAC068A
:101DFE00EF4401FD7F07122D227F147E001224A8CE
:101E0E007F0122900038E0FEA3E0FFAC06EF440114
:101E1E00FD7F07122D227F147E001224A87F002240
:05280700900165EFF0F7
:10280C007F14122EEB90001AE0FEA3E0FF7F0078FD
:10281C003AA60608A607900165E0FF7E00EF24FFAC
:10282C00FFEE34FFFE783AE6FC08E6FDEE4CFCEFDA
:10283C004DFD7F0D12291C900014E0FEA3E0FFEE6D
:10284C0054C0FE783AA60608A607783AE6FC08E6D5
:08285C00FD7F0A12291C7F0018
:012864002251
:1027A800900166EFF0900166E0FFEF1208B327C0D2
:1027B8000227D70400002801900046E0FEA3E0FFAE
:1027C800EE54BFFCEF54FBFD7F0E12291C802D90A8
:1027D8000046E0FEA3E0FFEE54BFFCEF54FBFD7F94
:1027E8000E12291C900046E0FEA3E0FFAC06EF4461
:0F27F80004FD7F0E12291C80037F01227F002227
:102B4600900127EBF0A3EAF0A3E9F090012AEDF05B
:102B56007F60122EEB7F017E001224A8C2A07F4068
:102B6600122BD890012AE0FF14F0EF60199001278C
:102B7600E0FBA3E475F0011206BBA9F0FA1205E624
:092B8600FF122BD880DDD2A02241
:102B8F0090012BEBF0A3EAF0A3E9F090012EEDF00A
:102B9F007FE0122EEB7F017E001224A8C2A07FC01F
:102BAF00122BD890012EE0FF14F0EF60191228C1FC
:102BBF0090012BE0FBA3E475F0011206BBA9F0FA1C
:092BCF00EF12062C80DDD2A022D9
:05232800900167EFF0D9
:10232D00900167E0FFEFC39402400B900167E0FF5F
:10233D00EFD3940740037F01227F14122EEB900000
:10234D0032E0FEA3E0FFEF54F0FF783CA60608A6AE
:10235D0007900167E0FF7E00EF25E0FFEE33FE788A
:10236D003CE6FC08E6FDEE4CFEEF4DFFAC06EF44FF
:10237D0001FD7F0412291C7F0A122CA87F0112294E
:10238D00747E00EF5480FFEF7807CEC313CE13D8C1
:0C239D00F9FFEF4E70047F0180027F000A
:0123A9002211
:1023AA00783076FF0876FF7F18122EEB900042E015
:1023BA00FEA3E0FFEE54FEFCAD077F0C122D227F38
:1023CA000F122D92AC06EF4401FD7F0F122D227FD2
:1023DA000F122D92EF5401FF782FA607783008E6E6
:1023EA0016188606700116FFEF4E6007782FE6FF73
:1023FA00EF70DC7830E6FE08E6FFD3EF9400EE9447
:10240A0000400F7F0C122D92EF54FFFF782FA60782
:0F241A008004782F76007F14122EEB782FE6FFC8
:012429002290
:102A6800122170EFB404037F04227F14122EEB7D31
:102A7800457C007F0812291C7D7F7C027F0112297A
:102A88001C900044E0FEA3E0FFEE4404FCAD077F89
:102A98000D122D22900048E0FEA3E0FFEE4402FC58
:0A2AA800AD077F0F122D227F0022E0
:102AB2007F14122EEB7D457C007F0812291C7D05B8
:102AC2007CFC7F0112291C122170EFB404037F04E5
:102AD20022900004E0FEA3E0FFAC06EF4410FD7F6D
:102AE2000212291C900048E0FEA3E0FFEE4402FC23
:0A2AF200AD077F0F122D227F002296
:102AFC007F14122EEB7D4D7C007F0812291C7D0566
:102B0C007CFC7F0112291C122170EFB404037F049A
:102B1C0022900004E0FEA3E0FFAC06EF4430FD7F02
:102B2C000212291C900048E0FEA3E0FFEE4402FCD8
:0A2B3C00AD077F0F122D227F00224B
:101F08006020002A00210A24B80500000A200024C5
:101F1800000000010000000018D470094400080007
:101F2800484520C060200000F706000000001107A7
:101F380001700201400F2AC00045D2810004082523
:101F48000127003F155F00004A0020037F8400003E
:051F5800000000000084
:0D2F1E0053FBFB53F3FB758F0843A884227F
:102DFB0053FBFB43F30453FBFD43F30243FB015330
:102E0B00F3FE43FA8053F27F53E47E43FA4053F2CE
:0E2E1B00BF53FADF53F2DF122F1E122F4B228D
:03001800C2A02261
:032F4B00D2A022EF
:102E6E00900168EFF0900168E0FFEFB4010753FAAC
:0F2E7E00BF43F2402243FA4053F2BF53E4BE2257
:052BD800900159EFF02F
:102BDD0090015AE4F090015AE0FFEFC3940850338E
:102BED00900159E0FFEF30E704D2968002C2967F44
:102BFD0001122CA8D2977F01122CA8C297900159CF
:102C0D00E0FFEF25E0FF900159EFF090015AE0044D
:032C1D00F080C282
:012C20002291
:0829CA00900144EEF0A3EFF0D0
:1029D200900146E4F0900146E0FFEFC39410503AB4
:1029E200900144E0FEA3E0FFEE30E704D2968002BD
:1029F200C296D2977F01122CA8C297900144E0FEA2
:102A0200A3E0FFEF25E0FFEE33FE900144EEF0A3DA
:0A2A1200EFF0900146E004F080BBF5
:012A1C002297
:1028C10090015CE4F07F01122E6E90015BE4F090C8
:1028D100015BE0FFEFC39408503630961490015C21
:1028E100E0FFEF25E0FFEF4401FF90015CEFF08096
:1028F1000E90015CE0FFEF25E0FF90015CEFF0D26C
:10290100977F01122CA8C29790015BE004F080BF71
:0A2911007F00122E6E90015CE0FFC3
:01291B002299
:10252100900148E4F0A3E4F07F01122E6E90014780
:10253100E4F0900147E0FFEFC39410504830961D3E
:10254100900148E0FEA3E0FFEF25E0FFEE33FEEF50
:102551004401FF900148EEF0A3EFF080179001488D
:10256100E0FEA3E0FFEF25E0FFEE33FE900148EE31
:10257100F0A3EFF0D2977F01122CA8C297900147E8
:10258100E004F080AD7F00122E6E900148E0FEA3C2
:02259100E0FF69
:012593002225
:052CA80090014AEFF06D
:102CAD0090014BE4F0A3E4F090014BE4F0A3E4F0C9
:102CBD0090014AE0FF7E0090014BE0FCA3E0FDC3D4
:102CCD00ED9FEC9E5012000090014CE004F0700658
:082CDD0090014BE004F080D8E7
:012CE50022CC
:0824A800900110EEF0A3EFF02B
:1024B000900112E4F0A3E4F0900114E4F0A3E4F03E
:1024C000900112E4F0A3E4F0900110E0FEA3E0FF1D
:1024D000900112E0FCA3E0FDC3ED9FEC9E50419003
:1024E0000114E4F0A3E4F0900114E0FEA3E0FFC3C4
:1024F000EF94DCEE94005018000000000000000093
:10250000900115E004F07006900114E004F080D70B
:10251000900113E004F07006900112E004F080A82E
:012520002298
:101F5D006020007E00000000000000000000000076
:101F6D000000000000000000000000000000000064
:101F7D000000000041007C0041007D0041007A001E
:041F8D0041007B0094
:10242A00D28543F920C29FD29ED29C7E007F05EFBF
:10243A008EF01208D9245700012464000224710086
:10244A0003247E0004248B00050000249875BA0337
:10245A0075AA98438780D2DF803F75BA0375AACCE4
:10246A00438780D2DF803275BA0375AAE643878034
:10247A00D2DF802575BA0375AAEF438780D2DF8041
:10248A001875BA0375AAF7438780D2DF800B75BA2D
:0E249A000375AA98438780D2DFD2ACD2AF225E
:030023000225941F
:10259400C0E0C083C082C085C084C0925392FEC094
:0B25A400D075D000C006C0073098447E
:1025AF00900169E4F0C298C29A90007AE0FFEF04BC
:1025BF00FFEF541FFF900169EFF090007BE0FF9059
:1025CF000169E0FEEE6F601C90007AE0FF747E2FD1
:1025DF00F582E43400F583E599F0900169E0FF900E
:0425EF00007AEFF08F
:1025F300D007D006D0D0D092D084D085D082D083DB
:03260300D0E032F2
:1000030090016AEFF090016AE0FF8F993099FD301B
:050013009902C29922D0
:102C210090012FEBF0A3EAF0A3E9F0900132EDF06F
:102C3100783E7600783E7600900132E0FF783EE6FD
:102C4100FEEEC39F502090012FE0FBA3E0FAA3E02A
:102C5100F9783EE6FF8F827583001205FFFF1200AF
:062C610003783E0680D25C
:012C6700224A
:102CE60090014DEBF0A3EAF0A3E9F090014DE0FB73
:102CF600A3E0FAA3E0F91205E6FFEF601E90014D8E
:102D0600E0FBA3E0FAA3E0F91205E6FF1200039048
:0C2D1600014EE475F0011206A580D022E9
:101FD500900116EBF0A3EAF0A3E9F0900119ECF0FB
:031FE500A3EDF079
:101FE800782D76FF0876FF782B7600782BE6FF7E33
:101FF80000900119E0FCA3E0FDC3EF9DEE9C4003B7
:1020080002209F782DE6FE08E6FF900116E0FBA36C
:10201800E0FAA3E0F9782BE6FD8D827583001205BE
:10202800FFFD7C00EE6CFEEF6DFF782DA60608A67E
:1020380007782C7600782CE6FFEFC3940850527886
:102048002DE6FE08E6FFEF30E02D782DE6FE08E6E7
:10205800FFEEC313FEEF13FF782DA60608A6077838
:102068002DE6FE08E6FFEE64A0FEEF6401FF782D82
:10207800A60608A6078015782DE6FE08E6FFEEC33B
:1020880013FEEF13FF782DA60608A607782C068006
:0E209800A4782B06021FF3782DE6FE08E6FF63
:0120A6002217
:102EC30090016BEFF090016BE0FF8F993099FD302B
:052ED3009902C29922E2
:102ED80090016CEFF090016CE0FF122EC390016C32
:032EE800E0FF22E6
:102C680090016DE4F090007AE0FF90007BE0FEEECA
:102C78006F602790007BE0FF747E2FF582E43400BC
:102C8800F583E0FF90016DEFF090007BE0FFEF042B
:0F2C9800FFEF541FFF90007BEFF090016DE0FF06
:012CA700220A
:0B2F370043FBC053F53FD2A6D2A722F7
:100F3B000A233E20000A53415249353120436F703A
:100F4B0079726967687420323031322D3232000A7F
:100F5B0053415249353120434C49000A2B3D3D3D0D
:100F6B003D20436F6D6D616E64203D3D3D2B3D20FB
:100F7B0046756E6374696F6E203D3D3D3D3D3D3D55
:100F8B003D3D3D3D3D3D2B0A7C54524143202020AD
:100F9B002020202020202020207C20547261636997
:100FAB006E672041646A75737420526164696F20A7
:100FBB0020207C0A7C46524551203C76613E202005
:100FCB0020202020207C204765742F5365742046F9
:100FDB0072657175656E63792020202020207C0A54
:100FEB007C434F4C43203C76613E20202020202028
:100FFB00207C204765742F53657420434F4C43204E
:10100B00202020202020202020207C0A7C444946C0
:10101B0046203C76613E202020202020207C20474B
:10102B0065742F53657420446573697265644F66EC
:10103B006673657420207C0A7C52415445203C76B3
:10104B00613E202020202020207C204765742F53D8
:10105B00657420524620426175647261746520206C
:10106B0020207C0A7C54585057203C76613E20202F
:10107B0020202020207C204765742F53657420523C
:10108B004620545820506F776572202020207C0A10
:10109B007C4C4F4144202020202020202020202049
:1010AB00207C205265616420466C61736820536517
:1010BB007474696E6773202020207C0A7C53415620
:1010CB00452020202020202020202020207C205361
:1010DB0061766520746F20466C6173682020202038
:1010EB002020202020207C0A2B2D2D2D2D2D2D2D49
:1010FB002D2D2D2D2D2D2D2D2D2B2D2D2D2D2D2D17
:10110B002D2D2D2D2D2D2D2D2D2D2D2D2D2D2D2D04
:10111B002D2D2B00676574206C696E6520666169E7
:10112B006C65640A006765746C696E652025730ACB
:10113B00000A636D64206572726F720A00FF0F3BC9
:10114B00FF0F40FF0F5AFF0F6648454C5000000041
:04115B0000FF2DC89C
:101F91006020009E00000000000000000000000022
:101FA1000000000000000000000000000000000030
:041FB100000000002C
:102DC800900150EBF0A3EAF0A3E9F0900150E0FB8A
:102DD800A3E0FAA3E0F9900150EBF0A3EAF0A3E92D
:102DE800F0901151E493FB740193FA740293F91271
:032DF8000B232288
:10178A009000D0EBF0A3EAF0A3E9F09000D312079F
:01179A0072DC
:10179B009000D712077E00000000122C689000DB2F
:1017AB00EFF09000DBE0FFEF1208B318EF0017D259
:1017BB0008184B0D18EF1118EF1318361B17D27FA3
:1017CB00000018970218EF7F007E007D007C0090D0
:1017DB0000D7E0F8A3E0F9A3E0FAA3E0FBC31207FC
:1017EB002970030218EF9000D7E0FCA3E0FDA3E003
:1017FB00FEA3E0FF7BFF7AFF79FF78FFEF2BFFEE75
:10180B003AFEED39FDEC38FC9000D71207729000D0
:10181B00D174FF75F0FF1206A57F08122ED87F201A
:10182B00122ED87F08122ED80218EF9000D0E0FBB2
:10183B00A3E0FAA3E0F9E412062CE47E007F002279
:10184B009000DBE0FF9000D0E0FBA3E0FAA3E0F90F
:10185B00EF12062C9000D1E475F0011206A5900052
:10186B00D7E0FCA3E0FDA3E0FEA3E0FF7B017A0041
:10187B0079007800EF2BFFEE3AFEED39FDEC38FCEA
:10188B009000D71207729000DB740AF09000DBE037
:10189B00FF9000D0E0FBA3E0FAA3E0F9EF12062CD7
:1018AB009000D0E0FBA3E0FAA3E0F91205E6FF12EB
:1018BB002ED89000D1E475F0011206A59000D7E068
:1018CB00FCA3E0FDA3E0FEA3E0FF7B017A0079001F
:1018DB007800EF2BFFEE3AFEED39FDEC38FC900073
:1018EB00D71207729000D3E0FCA3E0FDA3E0FEA3A8
:1018FB00E0FFEF24FEFFEE34FFFEED34FFFDEC3492
:10190B00FFFC9000D7E0F8A3E0F9A3E0FAA3E0FB1B
:10191B00C3120729500D9000DBE0FFEF640A600350
:10192B000217A59000D0E0FBA3E0FAA3E0F9E412C4
:06193B00062C7E007F0176
:011941002283
:0B1380009000E8EBF0A3EAF0A3E9F016
:10138B009000EDE4F0A3740AF09000EFE4F0A3E416
:10139B00F09000EBE4F0A3E4F09000E8E0FBA3E0B6
:1013AB00FAA3E0F91205E6FFEFB42D159000EFE478
:1013BB00F0A37401F09000E9E475F0011206A5802A
:1013CB00439000E8E0FBA3E0FAA3E0F91205E6FF87
:1013DB00EFB430309000E9E475F0011206A59000EF
:1013EB00E8E0FBA3E0FAA3E0F91205E6FFEFB4781F
:1013FB00139000E9E475F0011206A59000EDE4F0FE
:10140B00A37410F09000E8E0FBA3E0FAA3E0F9125C
:10141B0005E6FFEF70030215799000E8E0FBA3E00F
:10142B00FAA3E0F91205E6FFC3EF648094B0403EE7
:10143B009000E8E0FBA3E0FAA3E0F91205E6FFD386
:10144B00EF648094B950279000E8E0FBA3E0FAA387
:10145B00E0F91205E6FFEF3395E0FEEF24D0FFEE47
:10146B0034FFFE9000F1EEF0A3EFF0021526900092
:10147B00E8E0FBA3E0FAA3E0F91205E6FFC3EF6493
:10148B008094E1403D9000E8E0FBA3E0FAA3E0F993
:10149B001205E6FFD3EF648094E650269000E8E057
:1014AB00FBA3E0FAA3E0F91205E6FFEF3395E0FEAC
:1014BB00EF24A9FFEE34FFFE9000F1EEF0A3EFF066
:1014CB0080599000E8E0FBA3E0FAA3E0F91205E6EF
:1014DB00FFC3EF648094C150030215799000E8E0DC
:1014EB00FBA3E0FAA3E0F91205E6FFD3EF648094C7
:1014FB00C6507B9000E8E0FBA3E0FAA3E0F91205ED
:10150B00E6FFEF3395E0FEEF24C9FFEE34FFFE90CC
:10151B0000F1EEF0A3EFF0800280539000EDE0FEBF
:10152B00A3E0FF9000F1E0FCA3E0FDC3ED9FEE64B0
:10153B0080F8EC64809850369000EDE0FCA3E0FD61
:10154B009000EBE0FEA3E0FF12063E9000F1E0FC02
:10155B00A3E0FDEF2DFFEE3CFE9000EBEEF0A3EFD2
:10156B00F09000E9E475F0011206A502140F90004B
:10157B00EFE0FEA3E0FFEF4E60119000EBE0FEA367
:10158B00E0FFC3E49FFFE49EFE80089000EBE0FECB
:03159B00A3E0FFCB
:01159E00222A
:0B115F009000F3EBF0A3EAF0A3E9F02E
:10116A009000FCE4F09000FD7420F07B007A007996
:10117A0000C003C002C0019000F3E0FBA3E0FAA3A1
:10118A00E0F9D082D083D0E06B7008E96582700301
:10119A00EA6583702B9000F3E0FBA3E0FAA3E0F981
:1011AA00C003C002C0019000F6E0FBA3E0FAA3E08E
:1011BA00F91207DB9000F3E0FBA3E0FAA3E0F922BF
:1011CA009000F3E0FBA3E0FAA3E0F91205E6FFEFD3
:1011DA00642060139000F3E0FBA3E0FAA3E0F912A5
:1011EA0005E6FFEFB4223A9000F3E0FBA3E0FAA38E
:1011FA00E0F91205E6FFEFB4220C9000FD7422F02C
:10120A009000FC7401F09000F3E0FBA3E0FAA3E085
:10121A00F9E412062C9000F4E475F0011206A58098
:10122A009F9000F3E0FBA3E0FAA3E0F99000F9EB4A
:10123A00F0A3EAF0A3E9F09000F9E0FBA3E0FAA337
:10124A00E0F91205E6FFEF640D60589000F9E0FB43
:10125A00A3E0FAA3E0F91205E6FFEF640A604490FE
:10126A0000FCE0FFEF60149000F9E0FBA3E0FAA3B2
:10127A00E0F91205E6FFEF642260289000FCE0FF27
:10128A00EF70149000F9E0FBA3E0FAA3E0F912056D
:10129A00E6FFEF6420600C9000FAE475F001120694
:1012AA00A580949000F9E0FBA3E0FAA3E0F9120507
:1012BA00E6FF9000FDE0FEEF6E60289000F9E0FB8B
:1012CA00A3E0FAA3E0F91205E6FFEF640D601490BB
:1012DA0000F9E0FBA3E0FAA3E0F91205E6FFEF64E8
:1012EA000A70489000F9E0FBA3E0FAA3E0F9E412DF
:1012FA00062C9000FCE0FFEF60249000F9E0FBA3CD
:10130A00E0FAA3E0F91205E6FF9000FDE0FEEFB572
:10131A00060C9000FAE475F0011206A5800D900003
:10132A00FAE475F0011206A50212AD9000F9E0FB8D
:10133A00A3E0FAA3E0F91205E6FFEF60139000F9C3
:10134A00E0FBA3E0FAA3E0F9C003C002C001800CED
:10135A007B007A007900C003C002C0019000F6E069
:10136A00FBA3E0FAA3E0F91207DB9000F3E0FBA38A
:05137A00E0FAA3E0F918
:01137F00224B
:10159F007B007A0079009000DCEBF0A3EAF0A3E97E
:1015AF00F07B007A0079009000DFEBF0A3EAF0A364
:1015BF00E9F07B007A0079009000E2EBF0A3EAF00B
:1015CF00A3E9F09000E6E4F07B017A00799E7F209A
:1015DF007E007D007C0012178AEF4E700B7BFF7A26
:1015EF0011791F120B2380E07BFF7A117930C00332
:1015FF00C002C0017B017A00799E90004DEBF0A3F1
:10160F00EAF0A3E9F0D001D002D003120B237B0143
:10161F007A00799EC003C002C0017B017A0079E293
:10162F009000F6EBF0A3EAF0A3E9F0D001D002D0DE
:10163F000312115F9000DCEBF0A3EAF0A3E9F09046
:10164F0000DCE0FBA3E0FAA3E0F91205E6FFEF7080
:10165F00030215D79000DCE0FBA3E0FAA3E0F990BA
:10166F0000DFEBF0A3EAF0A3E9F09000DFE0FBA3CB
:10167F00E0FAA3E0F91205E6FFEF60419000DFE02A
:10168F00FBA3E0FAA3E0F91205E6FFEF6420602D5B
:10169F009000DFE0FBA3E0FAA3E0F91205E6FF12EA
:1016AF002EFD9000DFE0FBA3E0FAA3E0F9EF1206B6
:1016BF002C9000E0E475F0011206A580AD9000E5D6
:1016CF00E4F09000E5E0FFC3EF64809481400302F3
:1016DF0017709000E5E0FFEF3395E0FE7C007D0B87
:1016EF0012063E74542FF974113EFA7BFFC003C0EB
:1016FF0002C0019000DCE0FBA3E0FAA3E0F9A8012F
:10170F00AC02AD03D001D002D003120A62EF7048D1
:10171F009000E2E0FBA3E0FAA3E0F9C003C002C02F
:10172F00019000E5E0FFEF3395E0FE90115C75F05E
:10173F000BEF1207AFEE75F00BA42583F583E4933F
:10174F00FB740193FA740293F989828A83D001D0D2
:10175F0002D00312090A80099000E5E004F0021696
:10176F00D19000E5E0FFEF640160030215D77BFF26
:0A177F007A11793C120B230215D7F2
:01178900223D
:101FB5004401080000000042010C000042010E002F
:011FC500001B
:102F0E00438910758DAE758B9F43884043A88822E8
:03001B0002274376
:10274300C0E0C083C082C085C084C0925392FEC0E3
:10275300D075D000C006C007C2AB90010DE004F0F5
:10276300700690010CE004F090010CE0FEA3E0FF82
:102773007E00EF547FFFEF4E701090010FE004F0E6
:10278300700690010EE004F0B2A7758DAE758B9FB5
:10279300D2ABD007D006D0D0D092D084D085D0820F
:0527A300D083D0E032FC
:082D5A00900133EEF0A3EFF04D
:102D6200900135E4F0A3E4F0900133E0FEA3E0FF2C
:102D7200900135E0FCA3E0FDC3ED9FEC9E50109066
:0F2D82000136E004F07006900135E004F080D9CE
:012D9100221F
:08002600900137EEF0A3EFF0AA
:10002E00122F42900139EEF0A3EFF0122F42900101
:10003E0039E0FCA3E0FDC3EF9DFFEE9CFE9001377F
:0C004E00E0FCA3E0FDC3EF9DEE9C40DF52
:01005A002283
:092F420090010CE0FEA3E0FF2267
:0C2F2B0090010EE0FEA3E0FFE4FCFD229C
:061FC6004301560000007B
:04001E00122EAA22D2
:101AB4009000BEEBF0A3EAF0A3E9F09000C1ECF0D3
:031AC400A3EDF09F
:101AC7009000CAE4F0A3E4F07B007A007900C00339
:101AD700C002C001900156E0FBA3E0FAA3E0F9D0F1
:101AE70082D083D0E06B7008E965827003EA658372
:101AF70070099000CAE4F0A37401F09000C5E0FB00
:101B0700A3E0FAA3E0F9C003C002C0019000BEE061
:101B1700FBA3E0FAA3E0F975820275830012085A65
:101B27009000C8E0FEA3E0FFAA06A9077B01C00357
:101B3700C002C0019000BEE0FBA3E0FAA3E0F97584
:101B4700820575830012085A9000C1E0FEA3E0FFEA
:101B57009000BEE0FBA3E0FAA3E0F9EE8FF01206D7
:101B6700FC9000BEE0FBA3E0FAA3E0F9900156EB7E
:101B7700F0A3EAF0A3E9F09000C8E0FEA3E0FF8F2E
:101B8700828E83E0FEA3E0FF9000C1E0FCA3E0FDAE
:101B9700C3ED9FFFEC9EFE9000CCEEF0A3EFF0901C
:101BA70000CCE0FEA3E0FF7C067D4A1206509001C0
:101BB7005FEFF090015FE0FF7E007C067D49120633
:101BC7003E9000CCE0FCA3E0FDC3ED9FFFEC9EFE42
:101BD7009000CEEEF0A3EFF09000CAE0FEA3E0FF86
:101BE700EF64014E700B9000CEE0FEA3E0FF122ED3
:061BF70029E47E007F00DE
:011BFD0022C5
:101E2E007B007A007900C003C002C001900156E029
:101E3E00FBA3E0FAA3E0F9D082D083D0E06B700868
:101E4E00E965827003EA65837003021F02900156F2
:101E5E00E0FBA3E0FAA3E0F9900153EBF0A3EAF064
:101E6E00A3E9F07B007A007900900156EBF0A3EA2B
:101E7E00F0A3E9F0900153E0FBA3E0FAA3E0F9AE82
:101E8E0002AF01900153E0FBA3E0FAA3E0F97582E3
:101E9E000575830012082AAC02AD01900153E0FBD8
:101EAE00A3E0FAA3E0F975820275830012082A896D
:101EBE00828A8312090A7B007A007900C003C0026D
:101ECE00C001900156E0FBA3E0FAA3E0F9D082D066
:101EDE0083D0E06B7008E965827003EA6583601455
:101EEE00900156E0FBA3E0FAA3E0F91206D1FFAE93
:041EFE00F0122E2987
:011F020022BC
:081FCC0041015F0041016000CA
:102EAA0075CD0075CC0075CB0075CA0075C3C075A9
:092EBA00C20043C89543C108227F
:102E290090015DEEF0A3EFF090015DE0FEA3E0FFFD
:102E39008FC290015DE0FEA3E0FFEEFF7E008FC32D
:062E490043C108D2BB22C8
:03005B0002267703
:10267700C0E0C0F0C083C082C085C084C0925392BE
:10268700FEC0D075D000C000C001C002C003C004A6
:10269700C005C006C007C2BB900160E004F090010E
:1026A7005FE0FF900160E0FEEEB50708121E2E9076
:1026B7000160E4F0D2BBD007D006D005D004D00328
:1026C700D002D001D000D0D0D092D084D085D08293
:0726D700D083D0F0D0E03207
:10005E0002041FE86480F8E933E83360110460F0AD
:10006E00ED33EC337009E8FCE9FDEAFEEBFF220408
:10007E0060DED3EB9FEA9EE99DE8C2E78CF0C2F703
:10008E0095F0400CE8CCF8E9CDF9EACEFAEBCFFBCF
:10009E001203EA85D0F05804700320D5B3E804703B
:1000AE00075002B2D502042992D5EC0460F7E4CCD5
:1000BE00C0E0C398F8603B94186008400DD0E0FB98
:1000CE00020401E4FBFAC9FC8028E830E406E4C926
:1000DE00FBE4CAFCE830E305E4C9CACBFCE85407EC
:1000EE006010F8C3E913F9EA13FAEB13FBEC13FCF7
:1000FE00D8F130F52FC3E49CFCEF9BFFEE9AFEED9A
:10010E0099FDD0E0FBEF4E4D4C701222DB03020442
:10011E0026EC2CFCEF33FFEE33FEED33FDED30E736
:10012E00EB020401EF2BFFEE3AFEED39FDD0E0FBC2
:10013E0050130BBB0003020429ED13FDEE13FEEF6B
:08014E0013FFEC13FC02040195
:10015600EC4D6011E8497017ED33EC3304600DE4A3
:10016600FCFFFEFD22E933E8330470F802041F1297
:1001760003EA58046009E4CC248150062850090299
:100186000429284003020426C0E0EB4A7044B980E3
:1001960006D0E0FB020415EF4E701CBD8008EBFF95
:1001A600EAFEE9FD80EBE98DF0A4FEE5F002023FF0
:1001B600E9CDF9EAFEEBFFEF89F0A4FCE5F0CE8984
:1001C600F0A42EFFE435F0CD89F0A42DFEE435F041
:1001D6008067EF4E7005BD80D780C3EF8BF0A4AC6F
:1001E600F0EE8BF0A42CFCE435F0F8EF8AF0A42CAA
:1001F600E5F038FCE433CB8DF0A42CFCE5F03BF8BD
:10020600EE8AF0A42CFCE5F038F8E433CF89F0A4AC
:100216002CFCE5F038CF3400CE89F0A42FFFE5F0B2
:100226003EFEE433C98DF0A42EFEE5F039CD8AF00A
:10023600A42FFFE5F03EFEE43DFD33D0E0FB500782
:100246000BBB000F020429EC2CFCEF33FFEE33FE50
:06025600ED33FD0204017E
:10025C00020429EC5D046005E85904700302041FD4
:10026C001203EA580460F6EC4860F2EC7004FDFEF0
:10027C00FF22C860DB2481C85009C3986002500675
:10028C000204269850CAF582E9294B4A7005AB82C4
:10029C0002041575F0007C1A7880C3EF9BEE9AED82
:1002AC0099400DC3EF9BFFEE9AFEED99FDE842F0ED
:1002BC00DC23ACF0D0E0FFD0E0FED0E0FDAB822040
:1002CC00E7101BEB60BAEC2CFCEF33FFEE33FEEDCA
:1002DC0033FD020401E803F830E705C0F075F000C7
:1002EC00EF2FFFEE33FEED33FD40B830E7C280AAAE
:1002FC0074F8CC6480CCC86480C8F58204604FC3A9
:10030C00EB9FF5F0EA9E42F0E99D42F0E89C45F047
:10031C00603C501DE5825FFFE582D313CB5BCBF4D1
:10032C002B5582FB50280ABA002409B900200880FA
:10033C001DE5825BFBE582D313CF5FCFF4C3132F94
:10034C005582FF50090EBE00050DBD00010CC3EB1C
:10035C009FF5F0EA9E42F0E99D42F0E89C45F06082
:09036C0007CC4820E701B3EC22A4
:1003750075F020800E75F010800575F0087D007E03
:10038500007F003392D530D50312071BEC334010A4
:10039500EF33FFEE33FEED33FDEC33FCD5F0ED220C
:0E03A500E5F0247EA2D513CC92E7CDCEFF2248
:1003B300EDD2E7CD33EC3392D524814006E4FFFE42
:1003C300FDFC22FCE4CFCECDCC24E0501174FF80A1
:1003D300EDC3CC13CCCD13CDCE13CECF13CF04703E
:0703E300F030D5DE02071B1C
:100AB800E508244DF582E43400F583E0050822902A
:100AC800004A30070390004DE475F0011207BB029D
:100AD80005E62000E97F2ED2008018EF540F2490FD
:100AE800D43440D4FF30040BEF24BFB41A005003B1
:100AF8002461FFE50960021509050CE50C70020583
:100B08000B30070E90004AE475F0011207BBEF02A4
:100B1800062C022ED87403D2078003E4C207F50816
:100B280090004A1207D2E4F509F50BF50CE50960C7
:100B3800077F20120AFB80F5750AFFC201C200C2B6
:100B480002C203C205C206C208120AC7FF700D30EE
:100B580007057F00120B0CAF0CAE0B22B4255FC249
:100B6800D5C204120AC7FF24D0B40A00501A75F07F
:100B78000A780930D50508B6FF0106C6A426F6206E
:100B8800D5047002D20380D924CFB41A00EF5004E0
:100B9800C2E5D204020DFED20180C6D20080C0D2C6
:100BA8000280BCD2D580BAD20580B47F20120AFB5D
:100BB8002002077401B5090040F1120AB8FF120AB1
:100BC800FB020B35D208D2068095120AB8FB120A2E
:100BD800B8FA120AB8F94A4B700679FC7A0E7BFF0C
:100BE80020022EE509602A7E008E82758300120598
:100BF800FF60060EEE650A70F0C2D5EBC0E0EAC0F1
:100C0800E0E9C0E0EE120E5FD0E0F9D0E0FAD0E003
:100C1800FB1205E6FF60AAEBC0E0EAC0E0E9C0E02D
:100C2800120AFBD0E02401F9D0E03400FAD0E0FB4E
:100C3800E50A0460DCD50AD98087D20280A2120EA8
:100C48004160F7E50A700104120434A90A600DE551
:100C58000A600914F50A120EE9EF60F3EA30E702B8
:100C6800F404C3995079EAF4250A0430E701E4044E
:100C7800F50A800D120E4160C1EA050A250A120420
:100C880034EA900079F030E701E4250A04D50A0433
:100C980020050114120E5FE4C0E0120EE9900079FD
:100CA800E0601320E70714F0120AE3802204F0D072
:100CB800E014C0E07F00120AE3E50A6007120ADACE
:100CC800150A800B300503120ADAD0E0020B35D082
:100CD800E00480C4120E41609EE50A0412043490B8
:100CE8000079EAF0E50A2005026001042404120EE6
:010CF8005F9C
:100CF90074FF04C0E0120EE9120AE3E50A200502B6
:100D09006003120ADAD0E0B50AE87F45120AED90CD
:100D19000079E07F2B30E7047F2DF404C0E0120A4C
:100D2900FBD0E075F00A84C0F0120AE4D0E0120AA0
:100D3900E4020B35791080027908C206C2088008DE
:100D4900D2D5790A8004790AC2D5E50A047002F578
:100D59000AE4FAFDFEFF120AB8FC7B08200113120F
:100D69000AB8FD7B1030000A120AB8FE120AB8FF51
:100D79007B20EC3382D592D55013C3E43000069F13
:100D8900FFE49EFEE42001039DFDE49CFCE4CBF816
:100D9900C201EC700CCFCECDCCE824F8F870F3800A
:100DA90017C3EF33FFEE33FEED33FDEC33FCEB33CA
:100DB900FB994002FB0FD8E9EB300105F8D0E0C4FC
:100DC90048B201C0E00AEC4D4E4F78207B0070C25A
:100DD900EAB50A0040BCC0E0120E61D0F0D0E020B4
:100DE9000104C4C0E0C4B201C0F0120AE4D0F0D5D5
:100DF900F0EB020B351208B30BD2530D3D580BA380
:100E09004C0B9F420D414F0D49440D49490BB843C5
:100E19000D4F550C7C460CDC450C46470F1C500BFE
:100E2900A72D0BAB2E0BCE2B0BAF230BCC200F0515
:100E39002A0B674800000BC6E50AB4FF03750A06CA
:100E4900120AB8FC120AB8FD120AB8FE120AB8FF53
:100E5900900072020471790AA2D5200314300509A1
:100E6900B910020404B9080104A2D52006025001F0
:100E7900042002689202B509005034C0E07F203096
:100E890003197F30A20272067205500F120EB8C202
:100E990002C206C205C2087F30800F300503E9C0CF
:100EA900E0120AFB300503D0E0F9D0E0B509CC30F7
:100EB90005177F30B9100C120AFB7F583004077FE1
:100EC900788003B90803120AFB3002057F2D020A54
:100ED900FB7F202008F87F2B2006F322920280CF87
:100EE9007F00B40700500B2472F582E43400F583C7
:100EF900E0FF22286E756C6C2900D201120AB83005
:100F090001F8C201780930D50108F6020B672D50A6
:100F1900434958120AB82403B405004001E4900F6C
:100F29001793120AEC743A120AECD20375090402F7
:020F39000D3D6C
:1003EA00E9D2E7C933E833F892D5EDD2E7CD33EC59
:0703FA0033FC5002B2D522D2
:10040100EC30E7100FBF000C0EBE00080DBD00045C
:100411000BEB6014A2D5EB13FCED92E7FD2274FF08
:10042100FCFDFEFF22E480F8A2D574FF13FC7D8061
:03043100E480EF75
:10043400F920E73624F950037907E4F42402FBE5B4
:1004440082158270021583DBF6E024FB501BE96001
:1004540014E4F0E582158270021583E004F0B40A16
:0D04640008E4F0D9EE7401F00A22C2D5229E
:10047100ED33EC3392D5FA602AB4FF33EDC2E77B5A
:10048100FF60067A047996E4227A04799F20D504E4
:100491007A04799A224E614E002B494E46002D492D
:1004A1004E4600E47A08F0A3DAFC7B00740722C010
:1004B10083C082ECC0E0EDC0E0EEC0E0EFC0E0EA56
:1004C10075F010A4CAABF075F04DA42BFBE435F028
:1004D100FCEA2410FAEB34C5FBEC34D9FCEDC2E79D
:1004E100FF75F056A4F42411C5F0F434C58FF0A4BF
:1004F1002AE5F03BE43CF020E7141205A6D0E0FF2A
:10050100D0E0FED0E0FDD0E0FC12025F8014F404E4
:100511001205A6D0E0FFD0E0FED0E0FDD0E0FC1255
:100521000156D082D083E0FAEDD2E7CD33EC33240B
:1005310082FBE4C3CF33CFCE33CECD33CD33DBF328
:100541007B0775F00A846004F0A31B0AE5F0F0A3B1
:100551008FF0740AA4FFACF08EF0740AA42CFEACE8
:10056100F050010C8DF0740AA42CFDE435F0F0A3D9
:05057100DBDE7407222F
:100576003F8000004120000042C80000447A00008D
:10058600461C400047C35000497424004B1896800F
:100596004CBEBC205A0E1BCA6753C21C749DC5AE06
:1005A600FB60065407601C23231205D4EB54386005
:1005B600091205C01205CF120156ECF8EDF9EEFA54
:1005C600EFCB22EB1205CF80F1543803241C9005A3
:1005D60076FE93FC0EEE93FD0EEE930ECE93FF2267
:102222000222A2E493A3F8E493A34003F68001F20E
:1022320008DFF48029E493A3F85407240CC8C333BD
:10224200C4540F4420C8834004F456800146F6DF8C
:10225200E4800B0102040810204080901F03E47EFA
:10226200019360BCA3FF543F30E509541FFEE49381
:10227200A360010ECF54C025E060A840B8E493A348
:10228200FAE493A3F8E493A3C8C582C8CAC583CA73
:10229200F0A3C8C582C8CAC583CADFE9DEE780BE2B
:011FD400000C
:1005E600BB010689828A83E0225002E722BBFE0213
:0905F600E32289828A83E4932246
:1005FF00BB010CE58229F582E5833AF583E02250B1
:10060F0006E92582F8E622BBFE06E92582F8E222FA
:0D061F00E58229F582E5833AF583E4932214
:10062C00BB010689828A83F0225002F722BBFE01AD
:02063C00F322A7
:10063E00EF8DF0A4A8F0CF8CF0A428CE8DF0A42ED0
:02064E00FE228A
:10065000BC000BBE0029EF8DF084FFADF022E4CC8E
:10066000F875F008EF2FFFEE33FEEC33FCEE9DEC57
:10067000984005FCEE9DFE0FD5F0E9E4CEFD22ED9D
:10068000F8F5F0EE8420D21CFEADF075F008EF2FE7
:10069000FFED33FD4007985006D5F0F222C398FDD8
:0506A0000FD5F0EA2275
:1006A500C5F0F8A3E028F0C5F0F8E58215827002E0
:0606B5001583E038F0227D
:1006BB00A3F8E0C5F025F0F0E582158270021583F2
:0606CB00E0C838F0E8224F
:1006D100BB010A89828A83E0F5F0A3E022500687F4
:1006E100F009E71922BBFE07E3F5F009E3192289B6
:0B06F100828A83E493F5F074019322E9
:1006FC00BB010A89828A83F0E5F0A3F0225006F749
:0F070C0009A7F01922BBFE06F3E5F009F3192245
:0E071B00C3E49FFFE49EFEE49DFDE49CFC22EF
:10072900EB9FF5F0EA9E42F0E99D42F0E89C45F026
:01073900229D
:10073A00E8600FECC313FCED13FDEE13FEEF13FF9D
:03074A00D8F122C1
:0C074D00E6FC08E6FD08E6FE08E6FF22D8
:0D075900E6FB08E6F908E6FA08E6CBF82210
:0C076600ECF608EDF608EEF608EFF622BF
:0C077200ECF0A3EDF0A3EEF0A3EFF022FA
:10077E00A8828583F0D083D0821207951207951236
:10078E000795120795E473E493A3C583C5F0C5835B
:10079E00C8C582C8F0A3C583C5F0C583C8C582C8C5
:0107AE002228
:0C07AF00A42582F582E5F03583F5832255
:1007BB00F8E0FBA3A3E0F925F0F0E58215827002C7
:0707CB001583E0FA38F0226B
:0907D200EBF0A3EAF0A3E9F02228
:1007DB00BB011A89828A83D0F0D0E0F8D0E0F9D03F
:1007EB00E0FAD0E0FBE8C0E0C0F00207D25016E917
:1007FB00F8D083D082D0E0F9D0E0FAD0E0FBC08211
:10080B00C083020A88BBFE16E9F8D083D082D0E001
:0F081B00F9D0E0FAD0E0FBC082C083020AA3222A
:10082A00BB010DE58229F582E5833AF583020A9137
:10083A005007E92582F8020A7FBBFE07E92582F8FC
:10084A00020A9AE58229F582E5833AF583020AAC1F
:10085A00BB0120E58229F582E5833AF583D0F0D001
:10086A00E0F8D0E0F9D0E0FAD0E0FBE8C0E0C0F070
:10087A000207D25018E92582F8D083D082D0E0F955
:10088A00D0E0FAD0E0FBC082C083020A88BBFE181F
:10089A00E92582F8D083D082D0E0F9D0E0FAD0E01E
:0908AA00FBC082C083020AA322F4
:1008B300D083D082F8E4937012740193700DA3A3D4
:1008C30093F8740193F5828883E4737402936860E8
:0608D300EFA3A3A380DFE8
:1008D900D083D082F8E4937012740193700DA3A3AE
:1008E90093F8740193F5828883E473740293B5F0E5
:0D08F900067403936860E9A3A3A3A380D84D
:060906008A838982E4737C
:102EFD00EFC39461400AEF947B5005EF24E0FF226D
:012F0D0022A1
:10090C00E3F5F009E208B5F06D606B80F3E3F5F008
:10091C0009E608B5F060605E80F387F009E608B57B
:10092C00F054605280F487F009E208B5F048604654
:10093C0080F488828C8387F009E0A3B5F0386036A8
:10094C0080F488828C8387F009E493A3B5F0276048
:10095C002580F388828C83E3F5F009E0A3B5F016CB
:10096C00601480F388828C83E3F5F009E493A3B5DB
:10097C00F004600280F2020A23808580E7808E807A
:10098C00D28032801580628074809B80B5808B8091
:10099C00A1804580668030020A2F88848C858982EC
:1009AC008A83E493F5F0A30592E493A31592B5F032
:1009BC0066606480ED89828A83E493F5F0A3E20893
:1009CC00B5F054605280F289828A83E0F5F0A3E698
:1009DC0008B5F043604180F389828A83E0F5F0A387
:1009EC00E208B5F032603080F389828A83E493F5B3
:1009FC00F0A3E608B5F020601E80F2803F88848C5E
:100A0C008589828A83E493F5F0A30592E0A315927D
:100A1C00B5F004600280EE7FFFB5F0020F224002B9
:100A2C007F012288848C8589828A83E0F5F0A30576
:100A3C0092E0A31592B5F0DF60DD80EF88848C85A1
:100A4C0089828A83E0F5F0A30592E493A31592B50D
:100A5C00F0C560C380EE88F0ED2402B4040050B7FA
:100A6C00F582EB2402B4040050AD2323458223907D
:030A7C0009857376
:090A7F00E6FB08E6FA08E6F9229C
:090A8800EBF608EAF608E9F62293
:090A9100E0FBA3E0FAA3E0F92266
:090A9A00E2FB08E2FA08E2F9228D
:090AA300EBF208EAF208E9F22284
:0C0AAC00E493FB740193FA740293F922A6
:00000001FF
